:040000000DEF00F010
:04000800FCEF9CF07D
:06001800FF00C4EFA3F09D
:10FAFA0000EE41010000000000001C4D0100000062
:10FB0A00BE490100000000000000000000000000E3
:10FB1A0000000000000000000000000000000000DB
:10FB2A0000000000000000000000000000664C0118
:10FB3A00424C011E4C01000000044D0100000096D9
:10FB4A0033010000000000000000000000008449AA
:10FB5A00010000000000000000000000000000009A
:10FB6A00000000020000FF0002C000FF0002400087
:10FB7A000000232323232323232323232323232391
:10FB8A00232323232323232323232323232323233B
:10FB9A00232323232323232323232323232323232B
:10FBAA00232323232323232323232323232323231B
:10FBBA00230D0A005B3078253032585D20307825D5
:10FBCA003032582054585F46554C4C3A25732054CD
:10FBDA00585F454D5054593A25732052585F46553F
:10FBEA004C4C3A25732052585F454D5054593A258A
:10FBFA00730D0A005B3078253032585D2030782545
:10FC0A00303258204152443D2558204152433D2527
:10FC1A00582028726574722E64656C61793D257569
:10FC2A0075732C20636F756E743D2575290D0A0056
:10FC3A005B3078253032585D2030782530325820B4
:10FC4A004D41534B3A25303358204352433A2530DD
:10FC5A003258205057523A2573204D4F44453A5056
:10FC6A0025730D0A005B3078253032585D203078D4
:10FC7A002530325820434F4E545F574156453A2556
:10FC8A007320504C4C5F4C4F434B3A2573204461D0
:10FC9A007461526174653D005B3078253032585D7D
:10FCAA0020307825303258204952513A253033587D
:10FCBA002052585F504950453A25752054585F469E
:10FCCA00554C4C3A25730D0A005B30782530325872
:10FCDA005D20307825303258204164647265737330
:10FCEA002057696474683A202575206279746573AF
:10FCFA000D0A005B3078253032585D203078253087
:10FD0A00325820504C4F535F434E543D2575204185
:10FD1A0052435F434E543D25750D0A004E524632FA
:10FD2A00344C303120496E697469616C697A652096
:10FD3A007375636365737366756C0D0A0046616952
:10FD4A006C656420496E697469616C697A65204ED4
:10FD5A00524632344C30310D0A005B30782530324D
:10FD6A00585D203078253032582028252E337547A3
:10FD7A00487A290D0A005B3078253032585D2030E8
:10FD8A00782530325820454E5F5258414444523A01
:10FD9A0020005B3078253032585D203078253032AB
:10FDAA0058205250443D25730D0A00545820736957
:10FDBA0064653A2041434B20526563656976656400
:10FDCA00210A006974656D576569676874206973EB
:10FDDA002052454A45435445440A006974656D57A3
:10FDEA0065696768742069732041434345505445E7
:10FDFA00440A005B3078253032585D2052585F50F3
:10FE0A00575F50303D25750D0A005B30782530323A
:10FE1A00585D2052585F50575F50313D25750D0A85
:10FE2A00005B3078253032585D2052585F50575F5A
:10FE3A0050323D25750D0A005B3078253032585D09
:10FE4A002052585F50575F50333D25750D0A005BAD
:10FE5A003078253032585D2052585F50575F503401
:10FE6A003D25750D0A005B3078253032585D2052E9
:10FE7A00585F50575F50353D25750D0A005B307845
:10FE8A00253032585D2030782530325820454E4191
:10FE9A00413A20005B53656E645D20446174613AA7
:10FEAA002025642C25642C25730A005B30782530C4
:10FEBA0032585D2052585F414444525F50302022EC
:10FECA00005B3078253032585D2052585F414444F7
:10FEDA00525F50312022005B3078253032585D2045
:10FEEA0052585F414444525F50322022005B3078BE
:10FEFA00253032585D2052585F414444525F503396
:10FF0A002022005B3078253032585D2052585F41FC
:10FF1A004444525F50342022005B307825303258F6
:10FF2A005D2052585F414444525F50352022005BA5
:10FF3A003078253032585D2054585F41444452206D
:10FF4A00220041667465722053656E64696E673A71
:10FF5A00200A006974656D4E756D6265723A2025D6
:10FF6A00640D0A006974656D5765696768742025B0
:10FF7A00640D0A005B5025317525735D2573005B9E
:10FF8A003078253032585D20003235306B6270731C
:10FF9A00200052465F5057523D00286E756C6C29FE
:10FFAA0000314D6270732000324D6270732000255B
:10FFBA0063220D0A0064426D0D0A003F3F3F200094
:10FFCA0020414343002D3132002D3138003F3F3F5D
:10FFDA00004F4646005945530052454A002D360007
:10FFEA004F4E004E4F005258005458002564002BC3
:06FFFA00002D00300000A4
:020000040001F9
:10000000000E56ECA6F00601A66FA6B10AEF80F02E
:100010000CEF80F012EF80F0F30E836FFF0E846F11
:1000200016EF80F0F00E836FFF0E846FA6B31BEF08
:1000300080F01DEF80F023EF80F0DB0E856FFF0E68
:10004000866F27EF80F0EA0E856FFF0E866F3A0EFF
:100050000501AB6FFC0EAC6F000EAE6F000EAD6F06
:10006000A6C6AFF5B06BA6C6BBF5BB3B0F0EBB1764
:10007000BB51B16FB26BA6C6BCF5D890BC33D8905B
:10008000BC33030EBC17BC51B36FB46B85C6B5F55A
:1000900086C6B6F583C6B7F584C6B8F5C1ECA5F03B
:1000A000010E56ECA6F00601A66F870E0501AB6F98
:1000B000FE0EAC6F000EAE6F010EAD6FA6C6AFF5B3
:1000C000B06BC1ECA5F00601A46B050EA419D8B461
:1000D0006CEF80F06EEF80F074EF80F09C0E876F15
:1000E000FE0E886F78EF80F0BC0E876FFF0E886F72
:1000F000A4C6BBF5010E0501BC6FBB2B82EF80F0DF
:10010000D890BC37BB2F80EF80F00501BC510601B1
:10011000A6150009D8A48FEF80F091EF80F097EF3B
:1001200080F0FB0E896FFF0E8A6F9BEF80F0F90E57
:10013000896FFF0E8A6F7E0E0501AB6FFF0EAC6FED
:10014000A4C6ADF5AE6B89C6AFF58AC6B0F587C655
:10015000B1F588C6B2F5C1ECA5F00601A42B050ED9
:10016000A465B5EF80F0B7EF80F065EF80F0020E88
:1001700056ECA6F00601A66F800E0501AB6FFD0ED2
:10018000AC6F000EAE6F020EAD6FA6C6AFF5B06BD2
:10019000C1ECA5F00601A46B050EA419D8B4D3EFE9
:1001A00080F0D5EF80F0DBEF80F09C0E8B6FFE0EC1
:1001B0008C6FDFEF80F0BC0E8B6FFF0E8C6FA4C6D0
:1001C000BBF5010E0501BC6FBB2BE9EF80F0D890A9
:1001D000BC37BB2FE7EF80F00501BC510601A61527
:1001E0000009D8A4F6EF80F0F8EF80F0FEEF80F081
:1001F000FB0E8D6FFF0E8E6F02EF81F0F90E8D6F8B
:10020000FF0E8E6F7E0E0501AB6FFF0EAC6FA4C6A6
:10021000ADF5AE6B8DC6AFF58EC6B0F58BC6B1F53C
:100220008CC6B2F5C1ECA5F00601A42B050EA465A1
:100230001CEF81F01EEF81F0CCEF80F0030E56EC46
:10024000A6F00601A66FA651030B020FA56FD30EF1
:100250000501AB6FFC0EAC6F000EAE6F030EAD6F01
:10026000A6C6AFF5B06BA5C6B1F5B26BC1ECA5F0F3
:10027000040E56ECA6F00601A66FFE0E0501AB6F4C
:10028000FB0EAC6F000EAE6F040EAD6FA6C6AFF5E1
:10029000B06BA6C6BBF5BB3B0F0EBB17BB51B16F16
:1002A000B26BA6C6BCF50F0EBC17BC51B36FB46BD6
:1002B000A6C6BDF5BD3B0F0EBD17BD51FA0DF3C46B
:1002C000BEF5F4C4BFF5FA0EBE25B56F000EBF2112
:1002D000B66FA6C6C0F50F0EC017C051B76FB86B8A
:1002E000C1ECA5F0050E56ECA6F00601A66F640E53
:1002F0000501AB6FFD0EAC6F000EAE6F050EAD6F5E
:10030000A6C6AFF5B06B600E0601A6250501B16F5C
:10031000B26B090EB223C1ECA5F0060E56ECA6F0A6
:100320000601A66FA6BF97EF81F099EF81F09FEFCE
:1003300081F0DB0E8F6FFF0E906FA3EF81F0EA0E5E
:100340008F6FFF0E906FA6BFA8EF81F0AAEF81F02C
:10035000B0EF81F0DB0E916FFF0E926FB4EF81F082
:10036000EA0E916FFF0E926F6F0E0501AB6FFC0EE0
:10037000AC6F000EAE6F060EAD6FA6C6AFF5B06BDC
:1003800091C6B1F592C6B2F58FC6B3F590C6B4F575
:10039000C1ECA5F0ECEF81F0AB0EAB6FFF0EAC6FD4
:1003A000C1ECA5F00AEF82F0B20EAB6FFF0EAC6F9E
:1003B000C1ECA5F00AEF82F0930EAB6FFF0EAC6FAD
:1003C000C1ECA5F00AEF82F0C50EAB6FFF0EAC6F6B
:1003D000C1ECA5F00AEF82F00601A639E8461F0B32
:1003E000050B0501BB6FBC6BBC51000AD8B4FBEF19
:1003F00081F0E4EF81F0BB51000AD8B4CCEF81F07A
:10040000010AD8B4D4EF81F0050AD8B4DCEF81F04A
:10041000E4EF81F09C0E0501AB6FFF0EAC6FC1ECF9
:10042000A5F03BEF82F0D30EAB6FFF0EAC6FC1ECCB
:10043000A5F05CEF82F0CF0EAB6FFF0EAC6FC1EC9E
:10044000A5F05CEF82F0E70EAB6FFF0EAC6FC1EC76
:10045000A5F05CEF82F0FD0EAB6FFF0EAC6FC1EC50
:10046000A5F05CEF82F0D70EAB6FFF0EAC6FC1EC66
:10047000A5F05CEF82F00601D890A631030B0501D0
:10048000BB6FBC6BBC51000AD8B449EF82F033EFAC
:1004900082F0BB51000AD8B413EF82F0010AD8B43D
:1004A0001BEF82F0030AD8B423EF82F0010AD8B41C
:1004B0002BEF82F033EF82F0BF0E0501AB6FFF0E22
:1004C000AC6FC1ECA5F0070E56ECA6F00601A66FC6
:1004D000A6B16DEF82F06FEF82F075EF82F0ED0E56
:1004E000936FFF0E946F79EF82F0DF0E936FFF0E24
:1004F000946FA20E0501AB6FFC0EAC6F000EAE6FD9
:10050000070EAD6FA6C6AFF5B06BA6C6BBF5BB3B7D
:100510000F0EBB17070EBB17BB51B16FB26BA6C650
:10052000BCF5D890BC33070EBC17BC51B36FB46B8D
:1005300093C6B5F594C6B6F5C1ECA5F0080E56EC19
:10054000A6F00601A66FFD0E0501AB6FFC0EAC6FA9
:10055000000EAE6F080EAD6FA6C6AFF5B06BA6C6A7
:10056000BBF5BB3B0F0EBB17BB51B16FB26BA6C641
:10057000BCF50F0EBC17BC51B36FB46BC1ECA5F04A
:10058000090E56ECA6F00601A66FA6B1CAEF82F0DE
:10059000CCEF82F0D2EF82F0ED0E956FFF0E966FEA
:1005A000D6EF82F0DF0E956FFF0E966F9C0E050161
:1005B000AB6FFD0EAC6F000EAE6F090EAD6FA6C631
:1005C000AFF5B06B95C6B1F596C6B2F5C1ECA5F026
:1005D0009F0E05016C6F060E6D6FA5C66EF50A0EB7
:1005E00076ECA3F0B50E0501AB6FFE0EAC6F000EFE
:1005F000AE6F0A0EAD6FC1ECA5F00601A66B17EF4A
:1006000083F0890E0501AB6FFF0EAC6F9F0E0601E4
:10061000A625D96EDA6A060EDA22DF500501BB6F15
:10062000BB51AD6FAE6BC1ECA5F00601A62BA55179
:10063000A65DD8A01EEF83F020EF83F001EF83F0DA
:10064000BB0E0501AB6FFF0EAC6FC1ECA5F09F0EAA
:1006500005016C6F060E6D6FA5C66EF50B0E76EC80
:10066000A3F0CB0E0501AB6FFE0EAC6F000EAE6FAC
:100670000B0EAD6FC1ECA5F00601A66B56EF83F033
:10068000890E0501AB6FFF0EAC6F9F0E0601A6250C
:10069000D96EDA6A060EDA22DF500501BB6FBB5154
:1006A000AD6FAE6BC1ECA5F00601A62BA551A65D02
:1006B000D8A05DEF83F05FEF83F040EF83F0BB0ED7
:1006C0000501AB6FFF0EAC6FC1ECA5F0E10E0501AB
:1006D000AB6FFE0EAC6F000EAE6F0C0EAD6FC1ECCB
:1006E000A5F00601A66B8AEF83F0890EAB6FFF0EB3
:1006F000AC6F9F0E0601A625D96EDA6A060EDA22C5
:10070000DF500501BB6FBB51AD6FAE6BC1ECA5F007
:100710000601A62BFF0EA5250501BB6FBC6BFF0EC6
:10072000BC230601A6510501BD6FBE6BBB51BD5D6B
:10073000BE51800ABF6FBC51800ABF59D8A0A3EF39
:1007400083F0A5EF83F075EF83F00C0E56ECA6F066
:100750000601A66FB90E0501AB6FFF0EAC6FA6C602
:10076000ADF5AE6BC1ECA5F0F70E0501AB6FFE0E5B
:10077000AC6F000EAE6F0D0EAD6FC1ECA5F00601B3
:10078000A66BD8EF83F0890EAB6FFF0EAC6F9F0E98
:100790000601A625D96EDA6A060EDA22DF500501B7
:1007A000BB6FBB51AD6FAE6BC1ECA5F00601A62BC4
:1007B000FF0EA5250501BB6FBC6BFF0EBC23060118
:1007C000A6510501BD6FBE6BBB51BD5DBE51800A18
:1007D000BF6FBC51800ABF59D8A0F1EF83F0F3EF8F
:1007E00083F0C3EF83F00D0E56ECA6F00601A66F62
:1007F000B90E0501AB6FFF0EAC6FA6C6ADF5AE6BC3
:10080000C1ECA5F00D0E0501AB6FFF0EAC6F000E35
:10081000AE6F0E0EAD6FC1ECA5F00601A66B26EF14
:1008200084F0890EAB6FFF0EAC6F9F0E0601A625FC
:10083000D96EDA6A060EDA22DF500501BB6FBB51B2
:10084000AD6FAE6BC1ECA5F00601A62BFF0EA52582
:100850000501BB6FBC6BFF0EBC230601A651050151
:10086000BD6FBE6BBB51BD5DBE51800ABF6FBC5139
:10087000800ABF59D8A03FEF84F041EF84F011EF18
:1008800084F00E0E56ECA6F00601A66FB90E050117
:10089000AB6FFF0EAC6FA6C6ADF5AE6BC1ECA5F0AD
:1008A000230E0501AB6FFF0EAC6F000EAE6F0F0E87
:1008B000AD6FC1ECA5F00601A66B74EF84F0890E54
:1008C000AB6FFF0EAC6F9F0E0601A625D96EDA6ADC
:1008D000060EDA22DF500501BB6FBB51AD6FAE6B68
:1008E000C1ECA5F00601A62BFF0EA5250501BB6FE7
:1008F000BC6BFF0EBC230601A6510501BD6FBE6B8C
:10090000BB51BD5DBE51800ABF6FBC51800ABF594B
:10091000D8A08DEF84F08FEF84F05FEF84F00F0E9E
:1009200056ECA6F00601A66FB90E0501AB6FFF0EDF
:10093000AC6FA6C6ADF5AE6BC1ECA5F09F0E050180
:100940006C6F060E6D6FA5C66EF5100E76ECA3F0FB
:10095000390E0501AB6FFF0EAC6F000EAE6F100EBF
:10096000AD6FC1ECA5F00601A66BCDEF84F0890E4A
:100970000501AB6FFF0EAC6F9F0E0601A625D96E69
:10098000DA6A060EDA22DF500501BB6FBB51AD6F8C
:10099000AE6BC1ECA5F00601A62BA551A65DD8A0B3
:1009A000D4EF84F0D6EF84F0B7EF84F0BB0E0501EE
:1009B000AB6FFF0EAC6FC1ECA5F0110E56ECA6F0BC
:1009C0000601A66FFD0E0501AB6FFD0EAC6F000EAC
:1009D000AE6F110EAD6FA6C6AFF5B06BC1ECA5F052
:1009E000120E56ECA6F00601A66F140E0501AB6FB1
:1009F000FE0EAC6F000EAE6F120EAD6FA6C6AFF559
:100A0000B06BC1ECA5F0130E56ECA6F00601A66F74
:100A10002B0E0501AB6FFE0EAC6F000EAE6F130E0A
:100A2000AD6FA6C6AFF5B06BC1ECA5F0140E56ECD9
:100A3000A6F00601A66F420E0501AB6FFE0EAC6F6D
:100A4000000EAE6F140EAD6FA6C6AFF5B06BC1EC65
:100A5000A5F0150E56ECA6F00601A66F590E05017D
:100A6000AB6FFE0EAC6F000EAE6F150EAD6FA6C66F
:100A7000AFF5B06BC1ECA5F0160E56ECA6F0060172
:100A8000A66F700E0501AB6FFE0EAC6F000EAE6F61
:100A9000160EAD6FA6C6AFF5B06BC1ECA5F0170E84
:100AA00056ECA6F00601A66FA6B159EF85F05BEFF4
:100AB00085F061EF85F0ED0E976FFF0E986F65EF93
:100AC00085F0DF0E976FFF0E986FA6B36AEF85F083
:100AD0006CEF85F072EF85F0ED0E996FFF0E9A6F57
:100AE00076EF85F0DF0E996FFF0E9A6FA6B97BEF58
:100AF00085F07DEF85F083EF85F0ED0E9B6FFF0EA7
:100B00009C6F87EF85F0DF0E9B6FFF0E9C6FA6BB7F
:100B10008CEF85F08EEF85F094EF85F0ED0E9D6FF4
:100B2000FF0E9E6F98EF85F0DF0E9D6FFF0E9E6F9C
:100B3000BE0E0501AB6FFB0EAC6F000EAE6F170E55
:100B4000AD6FA6C6AFF5B06B9DC6B1F59EC6B2F54A
:100B50009BC6B3F59CC6B4F599C6B5F59AC6B6F56D
:100B600097C6B7F598C6B8F5C1ECA5F0120095C5C3
:100B7000D9F496C5DAF4DEC4F6F4DDC4F7F4000E59
:100B8000F86E0800F550250AD8A4C9EF85F0CBEF20
:100B900085F0ECEF87F095C5D9F496C5DAF4DE2A36
:100BA000000EDD22000E0501CD6F000ECC6FCCC50E
:100BB000D8F5CE69CF69A06BFEEF85F0D88395C5D7
:100BC000D9F496C5DAF4DE2A000EDD22FEEF85F0B8
:100BD000010EA06FFEEF85F095C5D9F496C5DAF445
:100BE000DEC4F6F4DDC4F7F4000EF86E0800F5502C
:100BF000300AD8B4DEEF85F0E8EF85F0A051D8B424
:100C000004EF86F006EF86F0ECEF85F095C56AF507
:100C100096C56BF597C56CF598C56DF535EC9AF0F2
:100C20006AC5CCF56BC5CDF50501CDBF1CEF86F0CF
:100C30001AEF86F021EF86F0D881CC6DCD1FD8B0A9
:100C4000CD2B95C5D9F496C5DAF4DEC4F6F4DDC42F
:100C5000F7F4000EF86E0800F5502E0AD8A433EF12
:100C600086F035EF86F04AEF86F095C5D9F496C543
:100C7000DAF4DE2A000EDD2295C56AF596C56BF51D
:100C800097C56CF598C56DF535EC9AF06AC5CEF54B
:100C90006BC5CFF595C5D9F496C5DAF4DEC4F6F484
:100CA000DDC4F7F4000EF86E0800F550630AD8A40E
:100CB0005CEF86F05EEF86F082EF86F095C5D9F4A2
:100CC00096C5DAF4DE2A000EDD2297C5D9F498C560
:100CD000DAF4DFC499F5020EDE26DFC49AF5000EC1
:100CE000DD2299C5D9F49AC5DAF4DF5005019B6F6E
:100CF00093C575F594C576F59BC577F59CEC9AF090
:100D000003EF88F095C5D9F496C5DAF4DEC4A1F5F1
:100D1000DDC4A2F5A1C5F6F4A2C5F7F4000EF86E85
:100D20000800F550640AD8B498EF86F09AEF86F080
:100D3000AAEF86F0A1C5F6F4A2C5F7F4000EF86E8E
:100D40000800F550690AD8A4A8EF86F0AAEF86F04B
:100D5000D9EF86F097C5D9F498C5DAF4DFC499F5D0
:100D6000020EDE26DFC49AF5000EDD2299C5D9F405
:100D70009AC5DAF4DEC49CF5DDC49DF5010E0501CB
:100D8000A125996F000EA2219A6F95C5D9F496C539
:100D9000DAF499C5DEF49AC5DDF493C585F594C5FA
:100DA00086F59CC587F59DC588F57DEC90F003EF31
:100DB00088F0A1C5F6F4A2C5F7F4000EF86E08009D
:100DC000F550580AD8B4E7EF86F0E9EF86F0F9EF6E
:100DD00086F0A1C5F6F4A2C5F7F4000EF86E08007F
:100DE000F550750AD8A4F7EF86F0F9EF86F048EFD2
:100DF00087F097C5D9F498C5DAF4DFC499F5020EE7
:100E0000DE26DFC49AF5000EDD2299C5D9F49AC515
:100E1000DAF4DEC49CF5DDC49DF5010E0501A125C3
:100E2000996F000EA2219A6F95C5D9F496C5DAF490
:100E300099C5DEF49AC5DDF436EF87F093C585F5E4
:100E400094C586F59CC587F59DC588F598EC96F008
:100E500003EF88F093C585F594C586F59CC587F5A5
:100E60009DC588F5B5EC94F003EF88F0A1C5F6F4C4
:100E7000A2C5F7F4000EF86E0800F550580AD8B471
:100E80002AEF87F02D0AD8B41EEF87F048EF87F0DD
:100E90000501A06B95C5D9F496C5DAF4DEC4F6F465
:100EA000DDC4F7F4000EF86E0800F550730AD8A4FC
:100EB0005CEF87F05EEF87F069EF87F095C5D9F4B6
:100EC00096C5DAF4DE2A000EDD22010EA06FBFEF18
:100ED00087F095C5D9F496C5DAF4DEC4F6F4DDC41E
:100EE000F7F4000EF86E0800F5506C0AD8A47BEFFA
:100EF00087F07DEF87F0BFEF87F095C5D9F496C5F1
:100F0000DAF4DEC499F5DDC49AF5010E9927000ED6
:100F10009A2399C5F6F49AC5F7F4000EF86E080006
:100F2000F5506C0AD8A497EF87F099EF87F0BFEFE0
:100F300087F095C5D9F496C5DAF4DEC499F5DDC419
:100F40009AF5020E9927000E9A2399C5F6F49AC5D0
:100F5000F7F4000EF86E0800F550730AD8A4B3EF4A
:100F600087F0B5EF87F0BFEF87F0030E95C5D9F492
:100F700096C5DAF4DE26000EDD2265EF87F0A0517B
:100F8000D8B4C5EF87F0C7EF87F0E3EF87F093C5DC
:100F900075F594C576F597C5D9F498C5DAF4DFC42C
:100FA00099F5020EDE26DFC49AF5000EDD2299C502
:100FB000D9F49AC5DAF4DEC477F5DDC478F50EEC21
:100FC00093F003EF88F095C5D9F496C5DAF4DE2ADC
:100FD000000EDD2203EF88F095C5D9F496C5DAF44A
:100FE000DEC4F6F4DDC4F7F4000EF86E0800F55028
:100FF00005016C6F6D6B93C56EF594C56FF503ECD1
:101000009BF0E3EF87F012002CC5D9F42DC5DAF47C
:10101000DEC4F6F4DDC4F7F4000EF86E0800F550F7
:10102000250AD8A416EF88F018EF88F036EF8AF07A
:101030002CC5D9F42DC5DAF4DE2A000EDD22000E0F
:101040000501CD6F000ECC6FCCC5D8F5CE69CF6948
:10105000376A4CEF88F00501D8832CC5D9F42DC52B
:10106000DAF4DE2A000EDD224CEF88F0010E376E36
:101070004CEF88F02CC5D9F42DC5DAF4DEC4F6F4B3
:10108000DDC4F7F4000EF86E0800F550300AD8B44D
:101090002BEF88F036EF88F03750D8B452EF88F055
:1010A00054EF88F03AEF88F02CC501F52DC502F514
:1010B0002EC503F52FC504F569EC9BF001C5CCF5F1
:1010C00002C5CDF50501CDBF6AEF88F068EF88F065
:1010D0006FEF88F0D881CC6DCD1FD8B0CD2B2CC54B
:1010E000D9F42DC5DAF4DEC4F6F4DDC4F7F4000E4D
:1010F000F86E0800F5502E0AD8A481EF88F083EF2F
:1011000088F098EF88F02CC5D9F42DC5DAF4DE2AE2
:10111000000EDD222CC501F52DC502F52EC503F507
:101120002FC504F569EC9BF001C5CEF502C5CFF5DE
:101130002CC5D9F42DC5DAF4DEC4F6F4DDC4F7F419
:10114000000EF86E0800F550630AD8A4AAEF88F0E4
:10115000ACEF88F0CFEF88F02CC5D9F42DC5DAF4C8
:10116000DE2A000EDD222EC5D9F42FC5DAF4DFC445
:1011700030F5020EDE26DFC431F5000EDD2230C56B
:10118000D9F431C5DAF4DF50326E2AC50CF52BC51F
:101190000DF532C50EF5CFEC9BF04CEF8AF02CC567
:1011A000D9F42DC5DAF4DEC438F5DDC439F538C517
:1011B000F6F439C5F7F4000EF86E0800F550640A2D
:1011C000D8B4E5EF88F0E7EF88F0F7EF88F038C59E
:1011D000F6F439C5F7F4000EF86E0800F550690A08
:1011E000D8A4F5EF88F0F7EF88F025EF89F02EC549
:1011F000D9F42FC5DAF4DFC430F5020EDE26DFC4E1
:1012000031F5000EDD2230C5D9F431C5DAF4DEC483
:1012100033F5DDC434F5010E3824306E000E39206C
:10122000316E2CC5D9F42DC5DAF430C5DEF431C5E4
:10123000DDF42AC51CF52BC51DF533C51EF534C5D7
:101240001FF559EC91F04CEF8AF038C5F6F439C52A
:10125000F7F4000EF86E0800F550580AD8B433EFD2
:1012600089F035EF89F045EF89F038C5F6F439C5D6
:10127000F7F4000EF86E0800F550750AD8A443EF95
:1012800089F045EF89F093EF89F02EC5D9F42FC589
:10129000DAF4DFC430F5020EDE26DFC431F5000ECD
:1012A000DD2230C5D9F431C5DAF4DEC433F5DDC44E
:1012B00034F5010E3824306E000E3920316E2CC505
:1012C000D9F42DC5DAF430C5DEF431C5DDF481EF93
:1012D00089F02AC51CF52BC51DF533C51EF534C58F
:1012E0001FF52EEC97F04CEF8AF02AC51CF52BC5A4
:1012F0001DF533C51EF534C51FF557EC95F04CEFC1
:101300008AF038C5F6F439C5F7F4000EF86E080017
:10131000F550580AD8B475EF89F02D0AD8B469EFA2
:1013200089F093EF89F0376A2CC5D9F42DC5DAF42A
:10133000DEC4F6F4DDC4F7F4000EF86E0800F550D4
:10134000730AD8A4A6EF89F0A8EF89F0B3EF89F06B
:101350002CC5D9F42DC5DAF4DE2A000EDD22010EEB
:10136000376E09EF8AF02CC5D9F42DC5DAF4DEC446
:10137000F6F4DDC4F7F4000EF86E0800F5506C0AC0
:10138000D8A4C5EF89F0C7EF89F009EF8AF02CC522
:10139000D9F42DC5DAF4DEC430F5DDC431F5010E23
:1013A0003026000E312230C5F6F431C5F7F4000EB8
:1013B000F86E0800F5506C0AD8A4E1EF89F0E3EF6D
:1013C00089F009EF8AF02CC5D9F42DC5DAF4DEC412
:1013D00030F5DDC431F5020E3026000E312230C565
:1013E000F6F431C5F7F4000EF86E0800F550730AF4
:1013F000D8A4FDEF89F0FFEF89F009EF8AF0030E22
:101400002CC5D9F42DC5DAF4DE26000EDD22AFEFAF
:1014100089F03750D8B40FEF8AF011EF8AF02DEF32
:101420008AF02AC50CF52BC50DF52EC5D9F42FC5AC
:10143000DAF4DFC430F5020EDE26DFC431F5000E2B
:10144000DD2230C5D9F431C5DAF4DEC40EF5DDC4D1
:101450000FF5E4EC93F04CEF8AF02CC5D9F42DC5D0
:10146000DAF4DE2A000EDD224CEF8AF02CC5D9F426
:101470002DC5DAF4DEC4F6F4DDC4F7F4000EF86E20
:101480000800F550036E046A2AC505F52BC506F55C
:1014900035EC9CF02DEF8AF0120005017B51800B9A
:1014A000846F7B517B258A6F7AAF59EF8AF05BEFAF
:1014B0008AF05CEF8AF08A818A51D8B462EF8AF0B0
:1014C00064EF8AF077EF8AF08A29D8A46AEF8AF06D
:1014D0006CEF8AF074EF8AF0000E786F000E796F6F
:1014E000000E7A6F000E7B6F7A8F7FEF8AF0000E0E
:1014F000786F000E796F000E7A6F000E7B6F7F5150
:10150000800B841B7F517F25896F7EAF8AEF8AF025
:101510008CEF8AF08DEF8AF089818951D8B493EFEE
:101520008AF095EF8AF0A8EF8AF08929D8A49BEF7A
:101530008AF09DEF8AF0A5EF8AF0000E7C6F000E16
:101540007D6F000E7E6F000E7F6F7E8FB0EF8AF092
:10155000000E7C6F000E7D6F000E7E6F000E7F6FA1
:101560008951D8B4B6EF8AF0B8EF8AF0C0EF8AF0AC
:101570008A51D8A4BEEF8AF0C0EF8AF0CAEF8AF091
:10158000000E786F000E796F000E7A6F000E7B6F81
:1015900060EF8CF07E517803F3C48FF5F4C490F5BE
:1015A0008F51856F866B876B886B90518B6F8C6BBF
:1015B0008D6B8E6B7D517903F3C48FF5F4C490F578
:1015C0008F518527000E86238723882390518B27F0
:1015D000000E8C238D238E237C517A03F3C48FF568
:1015E000F4C490F58F518527000E86238723882326
:1015F00090518B27000E8C238D238E2387C588F571
:1016000086C587F585C586F5856B7C517903F3C45E
:101610008FF5F4C490F58F51852790518623000EE5
:101620008723000E88237D517803F3C48FF5F4C41B
:1016300090F58F51852790518623000E8723000E49
:10164000882387C588F586C587F585C586F5856BAA
:101650007C517803F3C48FF5F4C490F58F5185273E
:1016600090518623000E8723000E88237E51790334
:10167000F3C48FF5F4C490F58F518B2790518C23D0
:10168000000E8D23000E8E237D517A03F3C48FF557
:10169000F4C490F58F518B2790518C23000E8D232D
:1016A000000E8E237E517A03F3C48FF5F4C490F5B7
:1016B0008F51806F9051816F826B836B82C583F5F0
:1016C00081C582F580C581F5806B80518B27815162
:1016D0008C2382518D2383518E2385C580F586C549
:1016E00081F587C582F588C583F5190E7DEF8BF0EE
:1016F000D8908333823381338033E82E78EF8BF0B8
:1017000080518B2781518C2382518D2383518E23CD
:1017100087C588F586C587F585C586F5856B8951AA
:101720008AC580F5816B8027000E8123820E80257B
:101730008F6FFF0E8121906FB3EF8BF0D8908B37B6
:101740008C378D378E3788AFA8EF8BF0AAEF8BF0F0
:10175000ABEF8BF08B81D89085378637873788370A
:101760008F07D8A090078DAFB8EF8BF0BAEF8BF052
:101770009EEF8BF0896B88AFC0EF8BF0C2EF8BF0E0
:10178000E6EF8BF0FF0E8515806FFF0E8615816FDB
:10179000FF0E8715826F7F0E8815836F8051811130
:1017A00082118311D8B4D7EF8BF0D9EF8BF0DDEF36
:1017B0008BF0010E896FE6EF8BF08BA1E2EF8BF0DF
:1017C000E4EF8BF0E6EF8BF0D9EF8BF08951D8B4D2
:1017D000ECEF8BF0EEEF8BF012EF8CF0010E8B271D
:1017E000000E8C238D238E238EA1F9EF8BF0FBEF5F
:1017F0008BF012EF8CF08BC580F58CC581F58DC513
:1018000082F58EC583F5833583338233813380330C
:1018100080C58BF581C58CF582C58DF583C58EF5A8
:101820008F4B902B90BF1DEF8CF0905108E18F29CA
:10183000D8A01DEF8CF01FEF8CF029EF8CF0000E7C
:101840008B6F000E8C6F800E8D6F7F0E8E6F56EF3C
:101850008CF090BF36EF8CF0905106E18F05D8B038
:1018600034EF8CF036EF8CF041EF8CF0000E8B6F84
:10187000000E8C6F000E8D6F000E8E6F846B56EF16
:101880008CF08FC58AF5FF0E8B17FF0E8C177F0E1D
:101890008D17000E8E178AA150EF8CF052EF8CF04E
:1018A00053EF8CF08D8FD8908A318E6F84518E13C8
:1018B0008BC578F58CC579F58DC57AF58EC57BF528
:1018C00012001250800B1B6E12501224216E11AEAA
:1018D0006CEF8CF06EEF8CF06FEF8CF0218021506C
:1018E000D8B475EF8CF077EF8CF08AEF8CF021286C
:1018F000D8A47DEF8CF07FEF8CF087EF8CF0000E9A
:101900000F6E000E106E000E116E000E126E118E14
:1019100092EF8CF0000E0F6E000E106E000E116E26
:10192000000E126E1650800B1B1A16501624206ED5
:1019300015AE9DEF8CF09FEF8CF0A0EF8CF0208027
:101940002050D8B4A6EF8CF0A8EF8CF0BBEF8CF051
:101950002028D8A4AEEF8CF0B0EF8CF0B8EF8CF06C
:10196000000E136E000E146E000E156E000E166E35
:10197000158EC3EF8CF0000E136E000E146E000E69
:10198000156E000E166E2050D8B4C9EF8CF0CBEF58
:101990008CF0D3EF8CF02150D8A4D1EF8CF0D3EFA2
:1019A0008CF0DDEF8CF0000E0F6E000E106E000E4E
:1019B000116E000E126E73EF8EF015500F02F3C40D
:1019C00026F5F4C427F526501C6E1D6A1E6A1F6A90
:1019D0002750226E236A246A256A14501002F3C429
:1019E00026F5F4C427F526501C26000E1D221E22C3
:1019F0001F2227502226000E2322242225221350A4
:101A00001102F3C426F5F4C427F526501C26000E57
:101A10001D221E221F2227502226000E23222422AE
:101A200025221EC51FF51DC51EF51CC51DF51C6A0A
:101A300013501002F3C426F5F4C427F526501C26D3
:101A400027501D22000E1E22000E1F2214500F02CE
:101A5000F3C426F5F4C427F526501C2627501D2272
:101A6000000E1E22000E1F221EC51FF51DC51EF5ED
:101A70001CC51DF51C6A13500F02F3C426F5F4C4EF
:101A800027F526501C2627501D22000E1E22000E70
:101A90001F2215501002F3C426F5F4C427F5265072
:101AA000222627502322000E2422000E2522145025
:101AB0001102F3C426F5F4C427F526502226275038
:101AC0002322000E2422000E252215501102F3C4F9
:101AD00026F5F4C427F52650176E2750186E196A9C
:101AE0001A6A19C51AF518C519F517C518F5176A30
:101AF0001750222618502322195024221A5025222A
:101B00001CC517F51DC518F51EC519F51FC51AF515
:101B1000190E90EF8DF0D8901A3219321832173210
:101B2000E82E8BEF8DF017502226185023221950E3
:101B300024221A5025221EC51FF51DC51EF51CC5E1
:101B40001DF51C6A205021C517F5186A1726000ECE
:101B50001822820E1724266EFF0E1820276EC6EF5D
:101B60008DF0D89022362336243625361FAEBBEFB3
:101B70008DF0BDEF8DF0BEEF8DF02280D8901C3639
:101B80001D361E361F362606D8A0270624AECBEFFC
:101B90008DF0CDEF8DF0B1EF8DF0206A1FAED3EF59
:101BA0008DF0D5EF8DF0F9EF8DF0FF0E1C14176E50
:101BB000FF0E1D14186EFF0E1E14196E7F0E1F14DB
:101BC0001A6E1750181019101A10D8B4EAEF8DF0C9
:101BD000ECEF8DF0F0EF8DF0010E206EF9EF8DF04F
:101BE00022A0F5EF8DF0F7EF8DF0F9EF8DF0ECEF2F
:101BF0008DF02050D8B4FFEF8DF001EF8EF025EF7F
:101C00008EF0010E2226000E23222422252225A05A
:101C10000CEF8EF00EEF8EF025EF8EF022C517F54B
:101C200023C518F524C519F525C51AF51A341A3235
:101C300019321832173217C522F518C523F519C500
:101C400024F51AC525F5264A272A27BE30EF8EF03F
:101C5000275008E12628D8A030EF8EF032EF8EF022
:101C60003CEF8EF0000E226E000E236E800E246E6E
:101C70007F0E256E69EF8EF027BE49EF8EF027505C
:101C800006E12604D8B047EF8EF049EF8EF054EF0E
:101C90008EF0000E226E000E236E000E246E000EDB
:101CA000256E1B6A69EF8EF026C521F5FF0E221600
:101CB000FF0E23167F0E2416000E251621A063EFBB
:101CC0008EF065EF8EF066EF8EF0248ED890213086
:101CD000256E1B50251222C50FF523C510F524C50E
:101CE00011F525C512F51200A490520E0501636F7F
:101CF0002B0E626F000EE82EFED7622FFCD7632FEB
:101D0000FAD700000501DA2B5D0E426EFF0E436E1E
:101D1000DAC544F5456AFCECA5F0520E0501636F87
:101D20002B0E626F000EE82EFED7622FFCD7632FBA
:101D3000FAD70000FDECA6F0000E7FECA5F001C57F
:101D4000D2F502C5D3F56E0E426EFF0E436ED2C5BC
:101D500044F5D3C545F5FCECA5F00501D3BFBAEFBA
:101D60008EF0D35109E10A0ED25DD8A0BAEF8EF001
:101D7000BCEF8EF012EF8FF0D3BFCAEF8EF0290EBA
:101D8000D25D0A0ED359D8B0C8EF8EF0CAEF8EF0EC
:101D900012EF8FF0630E426E060E436EF60E446E27
:101DA000FF0E456EDAC546F5476A10ECA4F0630EE7
:101DB0000501606F060E616F21ECA0F0630E426EAC
:101DC000060E436EF60E446EFF0E456ED2C546F506
:101DD000D3C547F510ECA4F0630E0501606F060E45
:101DE000616F21ECA0F0630E426E060E436ECA0EC8
:101DF000446EFF0E456E10ECA4F0630E0501606F9B
:101E0000060E616F21ECA0F0E50E426EFD0E436EF2
:101E1000FCECA5F0BD0E426EFF0E436EFCECA5F08F
:101E2000A0EF8FF0CD0E426EFD0E436EFCECA5F0E0
:101E3000630E016E060E026E000E046E000E036E3F
:101E4000000E066E200E056EFBECA4F0310E0601AE
:101E5000636F320E646F330E656F520E666F450E00
:101E6000676F4A0E686F630E0501606F060E616F43
:101E700021ECA0F09E0E426EFE0E436EDAC544F5D4
:101E8000456AD2C546F5D3C547F5E30E486EFF0E49
:101E9000496EFCECA5F00A0E346ED70E356EA30E1B
:101EA000366E3D0E376E000E386E000E396E000E27
:101EB0003A6E000E3B6E76EC9EF0290E0501636FC4
:101EC000960E626F7F0EE82EFED7622FFCD7632F2F
:101ED000FAD77F0E346E6A0E356EBC0E366E3C0E2F
:101EE000376E000E386E000E396E000E3A6E000E20
:101EF0003B6E76EC9EF0A30E0501636F570E626F8A
:101F0000020EE82EFED7622FFCD7632FFAD700000F
:101F10000A0E346ED70E356EA30E366E3D0E376E3A
:101F2000000E386E000E396E400E3A6E3F0E3B6E5C
:101F300076EC9EF0BD0E426EFF0E436EFCECA5F0FB
:101F400012000501726F05017251D8B4AAEF8FF02B
:101F5000ACEF8FF0CEEF8FF06DBFB3EF8FF0B1EF3E
:101F60008FF0CEEF8FF06AC56EF56BC56FF56CC55F
:101F700070F56DC571F56E1F6F1F701F711F6E2B91
:101F8000000E6F23702371236EC574F56FC575F550
:101F900070C576F571C577F5D6EF8FF06AC574F523
:101FA0006BC575F56CC576F56DC577F56A516B1126
:101FB0006C116D11D8A4DFEF8FF0E1EF8FF0EBEF34
:101FC0008FF0000E6A6F000E6B6F000E6C6F000ECC
:101FD0006D6F7CEF90F0960E736FF5EF8FF0732BB3
:101FE000D8907733763375337433000E74156E6F73
:101FF000000E75156F6F000E7615706FFE0E77155B
:10200000716F6E516F1170117111D8A40AEF90F0B9
:102010000CEF90F0EFEF8FF01AEF90F0732B010EB2
:102020007427000E752376237723D8907733763381
:1020300075337433000E74156E6F000E75156F6F67
:10204000000E7615706FFF0E7715716F6E516F1160
:1020500070117111D8A42FEF90F031EF90F00EEFC6
:1020600090F039EF90F07307D89074377537763762
:10207000773776BF3EEF90F040EF90F048EF90F06A
:10208000020E736146EF90F048EF90F033EF90F05E
:1020900073B14DEF90F04FEF90F050EF90F0769FCE
:1020A000D890733373C56EF56F6B706B716B6EC5C3
:1020B00071F5706B6F6B6E6B6E5174136F5175139E
:1020C00070517613715177137251D8B46AEF90F052
:1020D0006CEF90F074EF90F06DBF73EF90F071EFD4
:1020E00090F074EF90F0778F74C56AF575C56BF555
:1020F00076C56CF577C56DF51200050188BF83EFD5
:1021000090F086EF90F0010E87EF90F0000E8F6F49
:10211000CFBF8DEF90F08FEF90F090EF90F0D893CD
:10212000CFBF97EF90F095EF90F09DEF90F0000EFD
:102130008C6F010E8B6FA1EF90F0CEC58BF5CFC5E4
:102140008CF5CCC58DF5CDC58EF58F51D8B4ABEFE0
:1021500090F0ADEF90F0C4EF90F08D07D8A08E070F
:102160008F51D8A4B6EF90F0B8EF90F0BEEF90F09A
:10217000000E8A6F2B0E896FC2EF90F0000E8A6FEF
:102180002D0E896F89C58FF5000E916F1F0E906F10
:102190000601626BFDEF90F09007D8A09107430E07
:1021A0009025D96E060E9121DA6E87C56AF588C52D
:1021B0006BF5000E6D6F0A0E6C6FCFEC9EF06AC56A
:1021C00070F56BC571F517ECA5F005017051300F76
:1021D000DF6E8B07D8A08C078D07D8A08E0787C528
:1021E0006AF588C56BF5000E6D6F0A0E6C6F9AEC80
:1021F0009CF06AC587F56BC588F5050191BF09EFAD
:1022000091F0915108E19005D8A009EF91F00BEF02
:1022100091F035EF91F087518811D8A412EF91F029
:1022200014EF91F0CCEF90F08CBF21EF91F08C5136
:1022300006E18B05D8B01FEF91F021EF91F0CCEFC4
:1022400090F08EBF2CEF91F08E5108E18D05D8A053
:102250002CEF91F02EEF91F035EF91F0D8B333EFF2
:1022600091F035EF91F0CCEF90F08F51D8B43BEF77
:1022700091F03DEF91F048EF91F09007D8A09107D1
:10228000430E9025D96E060E9121DA6E8FC5DFF4CC
:1022900085C57CF586C57DF5430E90257E6F060EBF
:1022A00091217F6F8DC580F58EC581F57EEC9FF005
:1022B00012001FBE5EEF91F061EF91F0010E62EF30
:1022C00091F0000E266E0501CFBF69EF91F06BEF24
:1022D00091F06CEF91F0D893CFBF73EF91F071EF65
:1022E00091F079EF91F0000E236E010E226E7DEFDA
:1022F00091F0CEC522F5CFC523F5CCC524F5CDC5CB
:1023000025F52650D8B487EF91F089EF91F0A0EF32
:1023100091F02406D8A025062650D8A492EF91F07B
:1023200094EF91F09AEF91F0000E216E2B0E206E3B
:102330009EEF91F0000E216E2D0E206E20C526F529
:10234000000E286E1F0E276E0601626BD8EF91F00B
:102350002706D8A02806430E2724D96E060E28206B
:10236000DA6E1EC501F51FC502F5000E046E0A0ED9
:10237000036E27EC9FF001C507F502C508F54CEC8C
:10238000A5F00750300FDF6E2206D8A023062406E2
:10239000D8A025061EC501F51FC502F5000E046E66
:1023A0000A0E036E5DEC9DF001C51EF502C51FF51A
:1023B00028BEE3EF91F0285008E12704D8A0E3EF0E
:1023C00091F0E5EF91F010EF92F01E501F10D8A49D
:1023D000ECEF91F0EEEF91F0A8EF91F023BEFBEF60
:1023E00091F0235006E12204D8B0F9EF91F0FBEF11
:1023F00091F0A8EF91F025BE06EF92F0255008E18C
:102400002404D8A006EF92F008EF92F010EF92F0BB
:102410000501D8B30EEF92F010EF92F0A8EF91F013
:102420002650D8B416EF92F018EF92F023EF92F006
:102430002706D8A02806430E2724D96E060E28208A
:10244000DA6E26C5DFF41CC513F51DC514F5430E61
:102450002724156E060E2820166E24C517F525C5EF
:1024600018F5D0EC9FF01200096E0950D8B43BEF7C
:1024700092F03DEF92F05FEF92F004BE44EF92F0E5
:1024800042EF92F05FEF92F001C505F502C506F547
:1024900003C507F504C508F5051E061E071E081E20
:1024A000052A000E06220722082205C50BF506C5DF
:1024B0000CF507C50DF508C50EF567EF92F001C5DF
:1024C0000BF502C50CF503C50DF504C50EF501505D
:1024D000021003100410D8A470EF92F072EF92F083
:1024E0007CEF92F0000E016E000E026E000E036E85
:1024F000000E046E0DEF93F0960E0A6E86EF92F0CA
:102500000A2AD8900E320D320C320B32000E0B1408
:10251000056E000E0C14066E000E0D14076EFE0EF6
:102520000E14086E0550061007100810D8A49BEF73
:1025300092F09DEF92F080EF92F0ABEF92F00A2ACA
:10254000010E0B26000E0C220D220E22D8900E3208
:102550000D320C320B32000E0B14056E000E0C14F3
:10256000066E000E0D14076EFF0E0E14086E055059
:10257000061007100810D8A4C0EF92F0C2EF92F036
:102580009FEF92F0CAEF92F00A06D8900B360C3605
:102590000D360E360DBECFEF92F0D1EF92F0D9EF9F
:1025A00092F0020E0A60D7EF92F0D9EF92F0C4EFEA
:1025B00092F00AB0DEEF92F0E0EF92F0E1EF92F0ED
:1025C0000D9ED8900A320AC505F5066A076A086AA0
:1025D00005C508F5076A066A056A05500B1206501C
:1025E0000C1207500D1208500E120950D8B4FBEF10
:1025F00092F0FDEF92F005EF93F004BE04EF93F03C
:1026000002EF93F005EF93F00E8E0BC501F50CC5AC
:1026100002F50DC503F50EC504F5120077C57FF56B
:1026200078C580F505017F518011D8A41AEF93F089
:102630001CEF93F020EF93F0A40E7F6FFF0E806FDE
:10264000000E826F000E816F29EF93F00501814B20
:10265000822B81517F25796F825180217A6F79C5D4
:10266000F6F47AC5F7F4000EF86E250EF76403D081
:102670000800F55005D0F6C4E9F4F7C4EAF4EF50C9
:102680000009D8A446EF93F048EF93F026EF93F0BB
:102690000501CFBF4EEF93F050EF93F063EF93F04F
:1026A0008151CE5DCF51800A796F8251800A79596C
:1026B000D8B05DEF93F05FEF93F063EF93F0CEC58A
:1026C00081F5CFC582F581C57BF582C57CF5CCC58A
:1026D0007DF5CDC57EF5D8B170EF93F072EF93F034
:1026E000B1EF93F081EF93F0000E6D6F200E6C6FE1
:1026F00075C56EF576C56FF503EC9BF00501814B52
:10270000822B7D51815D8251800A796F7E51800AD2
:102710007959D8A08EEF93F090EF93F074EF93F087
:10272000B1EF93F07FC5F6F480C5F7F4000EF86EB4
:10273000250EF76403D00800F55005D0F6C4E9F47F
:10274000F7C4EAF4EF500501796F79516C6F6D6B46
:1027500075C56EF576C56FF503EC9BF005017F4BF3
:10276000802B7B07D8A07C077B2906E17C29D8A495
:10277000BCEF93F0BEEF93F092EF93F0D8A1C3EFCC
:1027800093F0C5EF93F0E3EF93F0D4EF93F0000EE6
:102790006D6F200E6C6F75C56EF576C56FF503EC29
:1027A0009BF00501814B822B7D51815D8251800A16
:1027B000796F7E51800A7959D8A0E1EF93F0E3EF69
:1027C00093F0C7EF93F012000EC516F50FC517F57D
:1027D00016501710D8A4EFEF93F0F1EF93F0F5EF48
:1027E00093F0A40E166EFF0E176E000E196E000EFB
:1027F000186EFDEF93F0184A192A18501624106E1F
:1028000019501720116E10C5F6F411C5F7F4000E1B
:10281000F86E250EF76403D00800F55005D0F6C415
:10282000E9F4F7C4EAF4EF500009D8A41AEF94F0E1
:102830001CEF94F0FBEF93F00501CFBF22EF94F073
:1028400024EF94F037EF94F01850CE5DCF51800A0A
:10285000106E1950800A1058D8B031EF94F033EF51
:1028600094F037EF94F0CEC518F5CFC519F518C51B
:1028700012F519C513F5CCC514F5CDC515F5D8B1AC
:1028800044EF94F046EF94F082EF94F054EF94F01C
:10289000000E046E200E036E0CC505F50DC506F581
:1028A00035EC9CF0184A192A1450185C1950800A0B
:1028B000106E1550800A1058D8A061EF94F063EFA5
:1028C00094F048EF94F082EF94F016C5F6F417C533
:1028D000F7F4000EF86E250EF76403D00800F550EB
:1028E00005D0F6C4E9F4F7C4EAF4EF50106E1050C6
:1028F000036E046A0CC505F50DC506F535EC9CF0B4
:10290000164A172A1206D8A01306122806E1132821
:10291000D8A48DEF94F08FEF94F065EF94F005015B
:10292000D8A195EF94F097EF94F0B4EF94F0A5EF61
:1029300094F0000E046E200E036E0CC505F50DC557
:1029400006F535EC9CF0184A192A1450185C1950F9
:10295000800A106E1550800A1058D8A0B2EF94F07B
:10296000B4EF94F099EF94F012000501CFBFBBEFE4
:1029700094F0BDEF94F0BEEF94F0D893CFBFC5EFC5
:1029800094F0C3EF94F0CBEF94F0000E8D6F010E36
:102990008C6FCFEF94F0CEC58CF5CFC58DF5CCC53F
:1029A0008EF5CDC58FF5000E926F1F0E916F06014B
:1029B000626B0DEF95F09107D8A0920787510F0B2E
:1029C000906F0A0E9061E7EF94F0E9EF94F0EDEF6D
:1029D00094F0300E9027EFEF94F0370E9027430ECF
:1029E0009125D96E060E9221DA6E90C5DFF48C0720
:1029F000D8A08D078E07D8A08F0787C589F588C511
:102A00008AF5040E8B6FD8908A3389338B2F03EFAE
:102A100095F089C587F58AC588F5050192BF1AEF3B
:102A200095F0925109E1020E915DD8A01AEF95F050
:102A30001CEF95F046EF95F087518811D8A423EF4D
:102A400095F025EF95F0DBEF94F08DBF32EF95F028
:102A50008D5106E18C05D8B030EF95F032EF95F04E
:102A6000DBEF94F08FBF3DEF95F08F5108E18E05BD
:102A7000D8A03DEF95F03FEF95F046EF95F0D8B335
:102A800044EF95F046EF95F0DBEF94F085C57CF5CB
:102A900086C57DF5430E91257E6F060E92217F6FD0
:102AA0008EC580F58FC581F57EEC9FF01200050183
:102AB000CFBF5DEF95F05FEF95F060EF95F0D893A5
:102AC000CFBF67EF95F065EF95F06DEF95F0000ED5
:102AD000246E010E236E71EF95F0CEC523F5CFC5A0
:102AE00024F5CCC525F5CDC526F5000E296E1F0EA3
:102AF000286E0601626BAFEF95F02806D8A0290674
:102B00001E500F0B276E0A0E276089EF95F08BEF92
:102B100095F08FEF95F0300E272691EF95F0370E58
:102B20002726430E2824D96E060E2920DA6E27C5E3
:102B3000DFF42306D8A024062506D8A026061EC545
:102B400020F51FC521F5040E226ED89021322032C7
:102B5000222EA5EF95F020C51EF521C51FF529BE33
:102B6000BBEF95F0295009E1020E285CD8A0BBEF1D
:102B700095F0BDEF95F0E8EF95F01E501F10D8A42A
:102B8000C4EF95F0C6EF95F07DEF95F024BED3EF3E
:102B900095F0245006E12304D8B0D1EF95F0D3EF9F
:102BA00095F07DEF95F026BEDEEF95F0265008E11A
:102BB0002504D8A0DEEF95F0E0EF95F0E8EF95F072
:102BC0000501D8B3E6EF95F0E8EF95F07DEF95F0CD
:102BD0001CC513F51DC514F5430E2824156E060EED
:102BE0002920166E25C517F526C518F5D0EC9FF0DF
:102BF0001200070E75ECA6F05E6E5EB002EF96F066
:102C000004EF96F00AEF96F0ED0E546EFF0E556E3F
:102C10000EEF96F0DF0E546EFF0E556EA20E426E52
:102C2000FC0E436E000E456E070E446E5EC546F503
:102C3000476A5EC552F5523A0F0E5216070E5216EB
:102C40005250486E496A5EC553F5D8905332070E0C
:102C5000531653504A6E4B6A54C54CF555C54DF545
:102C6000FCECA5F0170E75ECA6F05E6E5EB03BEFC7
:102C700096F03DEF96F043EF96F0ED0E566EFF0E98
:102C8000576E47EF96F0DF0E566EFF0E576E5EB230
:102C90004CEF96F04EEF96F054EF96F0ED0E586E26
:102CA000FF0E596E58EF96F0DF0E586EFF0E596EFC
:102CB0005EB85DEF96F05FEF96F065EF96F0ED0E83
:102CC0005A6EFF0E5B6E69EF96F0DF0E5A6EFF0EC6
:102CD0005B6E5EBA6EEF96F070EF96F076EF96F060
:102CE000ED0E5C6EFF0E5D6E7AEF96F0DF0E5C6EA1
:102CF000FF0E5D6EBE0E426EFB0E436E000E456E05
:102D0000170E446E5EC546F5476A5CC548F55DC55D
:102D100049F55AC54AF55BC54BF558C54CF559C53B
:102D20004DF556C54EF557C54FF5FCECA5F0120014
:102D30000501CFBF9EEF96F0A0EF96F0A1EF96F0C1
:102D4000D893CFBFA8EF96F0A6EF96F0AEEF96F02F
:102D5000000E8A6F010E896FB2EF96F0CEC589F52D
:102D6000CFC58AF5CCC58BF5CDC58CF5000E8E6F21
:102D70001F0E8D6F0601626BE9EF96F08D07D8A0EC
:102D80008E07430E8D25D96E060E8E21DA6E87C50D
:102D90006AF588C56BF5000E6D6F0A0E6C6FE1EC7D
:102DA000A1F005016A51300FDF6E8907D8A08A07AC
:102DB0008B07D8A08C0787C56AF588C56BF5000E10
:102DC0006D6F0A0E6C6F33ECA1F06AC587F56BC5A9
:102DD00088F505018D518E11D8B4F1EF96F0F3EF1F
:102DE00096F01DEF97F087518811D8A4FAEF96F06E
:102DF000FCEF96F0BEEF96F08ABF09EF97F08A518C
:102E000006E18905D8B007EF97F009EF97F0BEEF1C
:102E100096F08CBF14EF97F08C5108E18B05D8A089
:102E200014EF97F016EF97F01DEF97F0D8B31BEF64
:102E300097F01DEF97F0BEEF96F085C57CF586C53F
:102E40007DF5430E8D257E6F060E8E217F6F8BC51F
:102E500080F58CC581F57EEC9FF012000501CFBF97
:102E600034EF97F036EF97F037EF97F0D893CFBF66
:102E70003EEF97F03CEF97F044EF97F0000E216E95
:102E8000010E206E48EF97F0CEC520F5CFC521F595
:102E9000CCC522F5CDC523F5000E256E1F0E246E80
:102EA0000601626B7EEF97F02406D8A02506430E3C
:102EB0002424D96E060E2520DA6E1EC501F51FC525
:102EC00002F5000E046E0A0E036E47ECA2F00150EC
:102ED000300FDF6E2006D8A021062206D8A02306D8
:102EE0001EC501F51FC502F5000E046E0A0E036E25
:102EF0006EECA1F001C51EF502C51FF5245025108A
:102F0000D8B485EF97F087EF97F0B2EF97F01E50A7
:102F10001F10D8A48EEF97F090EF97F054EF97F032
:102F200021BE9DEF97F0215006E12004D8B09BEF21
:102F300097F09DEF97F054EF97F023BEA8EF97F02E
:102F4000235008E12204D8A0A8EF97F0AAEF97F049
:102F5000B2EF97F00501D8B3B0EF97F0B2EF97F06A
:102F600054EF97F01CC513F51DC514F5430E24242A
:102F7000156E060E2520166E22C517F523C518F509
:102F8000D0EC9FF01200ACECA5F064500501C16FCD
:102F90006350D06FC1C5D1F5D68EE80E6A6F1C0E96
:102FA0006B6F010E6C6FC6ECA6F00501DA6B000EBC
:102FB000CBEC99F0610E0501716F020E53EC99F0A4
:102FC0000501D96FD951D8A4E8EF97F0EAEF97F04F
:102FD0000BEF98F07C0EAB6FFB0EAC6FC1ECA5F065
:102FE000260E0501AB6FFD0EAC6FC1ECA5F000EC39
:102FF00080F0D00E0501C16FC90EE82EFED7C12F9B
:10300000FCD700D07C0E0501AB6FFB0EAC6FC1ECA2
:10301000A5F01FEF98F07C0EAB6FFB0EAC6FC1EC10
:10302000A5F0470E0501AB6FFD0EAC6FC1ECA5F02E
:103030007C0E0501AB6FFB0EAC6FC1ECA5F0A4B02C
:1030400024EF98F026EF98F035EF98F0B490520EF8
:103050000501C26F2B0EC16F000EE82EFED7C12FE7
:10306000FCD7C22FFAD70000A4800A0E05019D6F7D
:10307000D70E9E6FA30E9F6F3D0EA06F000EA16F27
:10308000000EA26F400EA36F3F0EA46F1BEC9EF0CC
:103090001FEF98F00DEF00F00501933594359A6F0E
:1030A0009A51D8A456EF98F058EF98F062EF98F044
:1030B000000E916F000E926F000E936F000E946FD2
:1030C000CFEF98F091C595F592C596F593C597F514
:1030D00094C598F5200E72EF98F0D89098339733F6
:1030E00096339533E82E6DEF98F09551996F938F45
:1030F000FF0E9117FF0E9217FF0E9317000E9417F5
:10310000960E9A5F9ABF89EF98F087EF98F09FEF3D
:1031100098F09A51800A970FD8B091EF98F093EFFA
:1031200098F095EF98F058EF98F0D8909433933347
:10313000923391339A3F95EF98F0B7EF98F01F0EC6
:103140009A65A5EF98F0A7EF98F0AFEF98F058EFD9
:1031500098F0D89091379237933794379A079A51CD
:10316000D8A4B5EF98F0B7EF98F0A9EF98F099517F
:10317000D8B4BDEF98F0BFEF98F0C7EF98F0941F68
:10318000931F921F916D000E92239323942391C558
:1031900091F592C592F593C593F594C594F51200F7
:1031A0002A342B34316E3150D8A4D9EF98F0DBEFAC
:1031B00098F0E5EF98F0000E286E000E296E000ED4
:1031C0002A6E000E2B6E52EF99F028C52CF529C5FA
:1031D0002DF52AC52EF52BC52FF5200EF5EF98F00D
:1031E000D8902F322E322D322C32E82EF0EF98F07C
:1031F0002C50306E2A8EFF0E2816FF0E2916FF0E59
:103200002A16000E2B16960E315E31BE0CEF99F089
:103210000AEF99F022EF99F03150800A970FD8B059
:1032200014EF99F016EF99F018EF99F0DBEF98F0A2
:10323000D8902B322A3229322832313E18EF99F0B9
:103240003AEF99F01F0E316428EF99F02AEF99F0C8
:1032500032EF99F0DBEF98F0D890283629362A36ED
:103260002B3631063150D8A438EF99F03AEF99F067
:103270002CEF99F03050D8B440EF99F042EF99F02C
:103280004AEF99F02B1E2A1E291E286C000E2922B7
:103290002A222B2228C528F529C529F52AC52AF571
:1032A0002BC52BF512000501726F010E0501746F1D
:1032B000000ECBEC99F0C992C994C182C194350E2D
:1032C000E82EFED70000C1940A0E05016C6F000EB7
:1032D0006BECA0F0010E05016C6F010E6BECA0F021
:1032E000030E05016C6F020E6BECA0F0030E0501DE
:1032F0006C6F030E6BECA0F0BE0E05016C6F060E3A
:103300006D6F050E6E6F0A0E4FECA3F0B90E05013E
:103310006C6F060E6D6F050E6E6F100E4FECA3F006
:10332000030E05016C6F040E6BECA0F005017151EA
:10333000A2ECA6F0060E05016C6F060E6BECA0F079
:10334000200E05016C6F110E6BECA0F0350EE82E0F
:10335000FED7000005017251A7ECA2F0350EE82E51
:10336000FED7000079ECA2F0000E56ECA6F00501A5
:10337000736F73A7BEEF99F0C0EF99F0C1EF99F0AA
:10338000746BE40E00D000D0E82EFCD700D000D043
:1033900005017451120005016A6F000184BFD3EF6B
:1033A00099F0D5EF99F034EF9AF005016A51050DC7
:1033B0006D0EF324F66EFB0EF420F76EF86A000E25
:1033C000F8220800F5C484F06A51050D010EF326B9
:1033D000000EF4226D0EF324F66EFB0EF420F76E51
:1033E000F86A000EF8220800F5C485F06A51050D50
:1033F000020EF326000EF4226D0EF324F66EFB0E81
:10340000F420F76EF86A000EF8220800F550FC0B65
:103410000001866F05016A51050D030EF326000EAB
:10342000F4226D0EF324F66EFB0EF420F76EF86AAC
:10343000000EF8220800F5C489F06A51050D040E4B
:10344000F326000EF4226D0EF324F66EFB0EF4202C
:10345000F76EF86A000EF8220800F5C48CF0C896E2
:103460000001848F34EF9AF01200000E0501726F94
:10347000000E716F6AC5D9F46BC5DAF4DEC4F6F4D8
:10348000DDC4F7F4000EF86E0800F5502A0AD8A43F
:103490004CEF9AF04EEF9AF081EF9AF06AC5D9F4AA
:1034A0006BC5DAF4DE2A000EDD226CC5D9F46DC5D9
:1034B000DAF4DFC46EF5020EDE26DFC46FF5000E0F
:1034C000DD226EC5D9F46FC5DAF4DEC471F5DDC452
:1034D00072F597EF9AF00A0E7103F3C46EF5F4C417
:1034E0006FF57203F3506F2770516E25716F000EE8
:1034F0006F21726F6AC5D9F46BC5DAF4DE2A000E4B
:10350000DD226AC5D9F46BC5DAF4DEC4F6F4DDC495
:10351000F7F4000EF86E0800F550D00F706F090E2A
:10352000706595EF9AF097EF9AF06BEF9AF071C58E
:103530006AF572C56BF512000501CC51CD11D8A406
:10354000A4EF9AF0A6EF9AF0ACEF9AF0CCC57BF519
:10355000CDC57CF5B2EF9AF0FF0ECC257B6FFF0E48
:10356000CD217C6FD8A1B7EF9AF0B9EF9AF0C2EFF6
:103570009AF077C56CF56D6B75C56EF576C56FF510
:1035800003EC9BF005017CBFC8EF9AF0CAEF9AF0FC
:10359000CCEF9AF0D0EF9AF0000E7C6F000E7B6FAC
:1035A000000E7A6F000E796FE3EF9AF0000E6D6FE8
:1035B000200E6C6F75C56EF576C56FF503EC9BF04C
:1035C0000501794B7A2B7B51795D7A51800A786FAE
:1035D0007C51800A7859D8A0F0EF9AF0F2EF9AF077
:1035E000D6EF9AF0D8B1F7EF9AF0F9EF9AF002EF30
:1035F0009BF077C56CF56D6B75C56EF576C56FF58F
:1036000003EC9BF0120005016E516F11D8B40BEF63
:103610009BF00DEF9BF016EF9BF06E516F11D8A44D
:1036200014EF9BF016EF9BF01BEF9BF06C5145ECF9
:10363000A6F068EF9BF020EE09F06E51D9266F518D
:10364000DA22DE50DE10D8B428EF9BF02AEF9BF090
:1036500045EF9BF020EE09F06E51D9266F51DA222A
:1036600010EE02F06E51E1266F51E222DE50E65C70
:10367000E650800A746FDE50800A7459D8B043EF68
:103680009BF045EF9BF068EF9BF020EE02F06E514F
:10369000D9266F51DA22DEC470F5DDC471F56EC52E
:1036A000D9F46FC5DAF4DEC472F5DDC473F5705178
:1036B0007225D96E71517321DA6E6CC5DFF420EE7C
:1036C00002F06E51D9266F51DA22DE2A000EDD2279
:1036D0001200000E096E000E086E01C5D9F402C575
:1036E000DAF4DEC4F6F4DDC4F7F4000EF86E080078
:1036F000F5502A0AD8A47FEF9BF081EF9BF0B4EF3E
:103700009BF001C5D9F402C5DAF4DE2A000EDD22F1
:1037100003C5D9F404C5DAF4DFC405F5020EDE26CC
:10372000DFC406F5000EDD2205C5D9F406C5DAF4BE
:10373000DEC408F5DDC409F5CAEF9BF00A0E0802E5
:10374000F3C405F5F4C406F50902F3500626075044
:103750000524086E000E0620096E01C5D9F402C5C5
:10376000DAF4DE2A000EDD2201C5D9F402C5DAF44E
:10377000DEC4F6F4DDC4F7F4000EF86E0800F55070
:10378000D00F076E090E0764C8EF9BF0CAEF9BF0DD
:103790009EEF9BF008C501F509C502F51200050171
:1037A000CC51CD11D8A4D7EF9BF0D9EF9BF0DFEF30
:1037B0009BF0CCC512F5CDC513F5E5EF9BF0FF0EE0
:1037C000CC25126EFF0ECD21136ED8A1EAEF9BF02F
:1037D000ECEF9BF0F5EF9BF00EC503F5046A0CC50A
:1037E00005F50DC506F535EC9CF013BEFAEF9BF020
:1037F000FCEF9BF0FEEF9BF002EF9CF0000E136ECF
:10380000000E126E000E116E000E106E14EF9CF082
:10381000000E046E200E036E0CC505F50DC506F5F1
:1038200035EC9CF0104A112A1250105C1150800A9D
:103830000F6E1350800A0F58D8A021EF9CF023EF91
:103840009CF008EF9CF00501D8B129EF9CF02BEF1C
:103850009CF034EF9CF00EC503F5046A0CC505F529
:103860000DC506F535EC9CF0120005500610D8B4D5
:103870003CEF9CF03EEF9CF047EF9CF005500610AB
:10388000D8A445EF9CF047EF9CF04CEF9CF0035020
:1038900066ECA6F099EF9CF020EE09F00550D926D1
:1038A0000650DA22DE50DE10D8B459EF9CF05BEF00
:1038B0009CF076EF9CF020EE09F00550D9260650DA
:1038C000DA2210EE02F00550E1260650E222DE5028
:1038D000E65CE650800A0B6EDE50800A0B58D8B0CA
:1038E00074EF9CF076EF9CF099EF9CF020EE02F0E4
:1038F0000550D9260650DA22DEC407F5DDC408F5E6
:1039000005C5D9F406C5DAF4DEC409F5DDC40AF547
:1039100007500924D96E08500A20DA6E03C5DFF477
:1039200020EE02F00550D9260650DA22DE2A000EDB
:10393000DD22120005016F6B6DBFA3EF9CF0A1EFBC
:103940009CF0A9EF9CF06C6D6D1FD8B06D2B010E33
:103950006F6F6BBFB0EF9CF0AEEF9CF0B6EF9CF0DA
:103960006A6D6B1FD8B06B2B010E6F1B000E716F51
:10397000000E706F6C516D11D8B4C1EF9CF0C3EFA5
:103980009CF0EBEF9CF0010E6E6FCBEF9CF0D890AB
:103990006C376D376E2B6DAFD0EF9CF0D2EF9CF093
:1039A000C7EF9CF0D890703771376C516A5D6D51DC
:1039B0006B59D8A0DEEF9CF0E0EF9CF0E5EF9CF0B7
:1039C0006C516A5F6D516B5B7081D8906D336C3355
:1039D0006E2FD2EF9CF06F51D8B4F1EF9CF0F3EF63
:1039E0009CF0F7EF9CF0706D711FD8B0712B70C513
:1039F0006AF571C56BF51200FAC464F5FBC465F590
:103A0000F6C466F5F7C467F5F8C468F5F5C469F55A
:103A1000A4A00DEF9DF00FEF9DF01AEF9DF0B4A064
:103A200014EF9DF016EF9DF01AEF9DF0F5ECA6F067
:103A300050EF9DF09FA41FEF9DF021EF9DF02CEF24
:103A40009DF0AFA426EF9DF028EF9DF02CEF9DF0A8
:103A500007ECA7F050EF9DF0A0A031EF9DF033EF01
:103A60009DF03EEF9DF0B0A038EF9DF03AEF9DF055
:103A70003EEF9DF005ECA7F050EF9DF0A1AE43EFB7
:103A80009DF045EF9DF050EF9DF0B1AE4AEF9DF0F7
:103A90004CEF9DF050EF9DF032ECA5F050EF9DF013
:103AA00069C5F5F468C5F8F467C5F7F466C5F6F4BA
:103AB00065C5FBF464C5FAF41100066A04BE65EF3F
:103AC0009DF063EF9DF06BEF9DF0036C041ED8B08A
:103AD000042A010E066E02BE72EF9DF070EF9DF09B
:103AE00078EF9DF0016C021ED8B0022A010E061A72
:103AF000000E086E000E076E03500410D8B483EF5A
:103B00009DF085EF9DF0ADEF9DF0010E056E8DEF00
:103B10009DF0D89003360436052A04AE92EF9DF04E
:103B200094EF9DF089EF9DF0D8900736083603504A
:103B3000015C04500258D8A0A0EF9DF0A2EF9DF0C8
:103B4000A7EF9DF00350015E0450025A0780D89001
:103B500004320332052E94EF9DF00650D8B4B3EF33
:103B60009DF0B5EF9DF0B9EF9DF0076C081ED8B041
:103B7000082A07C501F508C502F51200BE6ABF6A2A
:103B8000C06AC16AC26AC36A0401026B0A6B126B23
:103B90001A6B226B2A6BC668EF0EC76ED90EC86E01
:103BA000F90EC96E0F0ECA6EF60ECB6E0069EF0EDF
:103BB000086FC70E106FE90E186F070E206FF40E16
:103BC000286F016B096B116B196B216B296B0369F2
:103BD0000B6913691B69070E236F2B6904690C6954
:103BE0001469EF0E1C6F0F0E246F2C690201896B94
:103BF000886B876B866B290E726F140E6B6F1C0EB1
:103C00003F6F200E296F320E166F180E126F190EAD
:103C1000136F130E6A6F310E146F0401056B066B80
:103C2000076B0D6B0E6B0F6B156B166B176B256BA4
:103C3000266B276B120001ECA7F09DC57CF59EC595
:103C40007DF59FC57EF5A0C57FF5D0C56AF5D1C5C8
:103C50006BF505016C6B6D6B000EA1EC8FF06AC506
:103C600078F56BC579F56CC57AF56DC57BF54DECCE
:103C70008AF078C591F579C592F57AC593F57BC53B
:103C800094F54CEC98F091C59BF592C59CF5DAEC57
:103C9000A6F0A1C57CF5A2C57DF5A3C57EF5A4C59A
:103CA0007FF5D0C56AF5D1C56BF505016C6B6D6B01
:103CB000000EA1EC8FF06AC578F56BC579F56CC57F
:103CC0007AF56DC57BF54DEC8AF078C591F579C52F
:103CD00092F57AC593F57BC594F54CEC98F091C5B7
:103CE0009BF592C59CF5D4ECA6F0120003ECA7F06E
:103CF00034C513F535C514F536C515F537C516F5B4
:103D0000D0C501F5D1C502F5036A046A000E34EC92
:103D100092F001C50FF502C510F503C511F504C5F4
:103D200012F561EC8CF00FC528F510C529F511C509
:103D30002AF512C52BF5D0EC98F028C532F529C527
:103D400033F5F0ECA6F038C513F539C514F53AC5CE
:103D500015F53BC516F5D0C501F5D1C502F5036AC9
:103D6000046A000E34EC92F001C50FF502C510F59F
:103D700003C511F504C512F561EC8CF00FC528F5EB
:103D800010C529F511C52AF512C52BF5D0EC98F010
:103D900028C532F529C533F5EBECA6F01200050174
:103DA0006F6B6BBFD8EF9EF0D6EF9EF0DEEF9EF00C
:103DB0006A6D6B1FD8B06B2B010E6F6F6DBFE5EF97
:103DC0009EF0E3EF9EF0E9EF9EF06C6D6D1FD8B0B2
:103DD0006D2B6C516D11D8B4F0EF9EF0F2EF9EF0A8
:103DE00016EF9FF0010E6E6FFAEF9EF0D8906C37D1
:103DF0006D376E2B6DAFFFEF9EF001EF9FF0F6EF8A
:103E00009EF06C516A5D6D516B59D8A00AEF9FF01E
:103E10000CEF9FF010EF9FF06C516A5F6D516B5B80
:103E2000D8906D336C336E2F01EF9FF06F51D8B483
:103E30001CEF9FF01EEF9FF022EF9FF06A6D6B1F4B
:103E4000D8B06B2B6AC56AF56BC56BF51200066AB4
:103E500002BE2FEF9FF02DEF9FF035EF9FF0016C2A
:103E6000021ED8B0022A010E066E04BE3CEF9FF07F
:103E70003AEF9FF040EF9FF0036C041ED8B0042A85
:103E800003500410D8B447EF9FF049EF9FF06DEF57
:103E90009FF0010E056E51EF9FF0D8900336043667
:103EA000052A04AE56EF9FF058EF9FF04DEF9FF0BC
:103EB0000350015C04500258D8A061EF9FF063EFFB
:103EC0009FF067EF9FF00350015E0450025AD890B4
:103ED00004320332052E58EF9FF00650D8B473EF2A
:103EE0009FF075EF9FF079EF9FF0016C021ED8B044
:103EF000022A01C501F502C502F512000501D8A18B
:103F000084EF9FF086EF9FF090EF9FF07EC575F5F0
:103F10007FC576F57CC577F57DC578F536ECA4F0E0
:103F2000050181BF98EF9FF096EF9FF09CEF9FF007
:103F3000000E816F000E806F000E846F000E836F85
:103F4000AFEF9FF0000E6D6F200E6C6F7CC56EF5AD
:103F50007DC56FF503EC9BF00501834B842B8051ED
:103F6000835D8451800A826F8151800A8259D8A072
:103F7000BCEF9FF0BEEF9FF0A2EF9FF0D8B1C3EF70
:103F80009FF0C5EF9FF0CFEF9FF07EC575F57FC521
:103F900076F57CC577F57DC578F536ECA4F0120092
:103FA0000501D8A1D6EF9FF0D8EF9FF0E2EF9FF088
:103FB00015C50CF516C50DF513C50EF514C50FF591
:103FC000A0ECA4F018BEE9EF9FF0E7EF9FF0EDEF53
:103FD0009FF0000E186E000E176E000E1B6E000E86
:103FE0001A6EFFEF9FF0000E046E200E036E13C5D5
:103FF00005F514C506F535EC9CF01A4A1B2A175036
:104000001A5C1B50800A196E1850800A1958D8A0E3
:104010000CEFA0F00EEFA0F0F3EF9FF00501D8B188
:1040200014EFA0F016EFA0F020EFA0F015C50CF5EE
:1040300016C50DF513C50EF514C50FF5A0ECA4F0CB
:104040001200020EFDECA2F060C503F561C504F597
:10405000200E056EA00E7EECA4F0C184150E5F6EDE
:10406000C60EE82EFED75F2EFCD700D0C194070EF7
:1040700075ECA6F05F6E5FA040EFA0F042EFA0F0FD
:1040800046EFA0F09DECA3F057EFA0F0070E75EC03
:10409000A6F05F6E5FAA4FEFA0F051EFA0F057EFD0
:1040A000A0F0B50E426EFD0E436EFCECA5F04C0E7A
:1040B000426EFF0E436EFCECA5F0F9EC95F0BD0EE0
:1040C000426EFF0E436EFCECA5F0700E036E070E01
:1040D000B3ECA0F0120005016D6F200E05016D61BB
:1040E00074EFA0F076EFA0F082EFA0F0C1926D51D6
:1040F0001F0B2009C2ECA4F005016C51C2ECA4F026
:10410000ADEFA0F06D51C2ECA4F0E10E05016D1908
:10411000D8B48DEFA0F08FEFA0F0ADEFA0F0E20EDD
:104120006D19D8B496EFA0F098EFA0F0ADEFA0F025
:10413000E30E6D19D8B49FEFA0F0A1EFA0F0ADEFA2
:10414000A0F06D29D8B4A7EFA0F0A9EFA0F0ADEFD3
:10415000A0F0C1926C51C2ECA4F0C182350EE82EE1
:10416000FED700001200046E200E0460BAEFA0F02B
:10417000BCEFA0F0C7EFA0F0C19204501F0B2009C4
:1041800096ECA5F0035096ECA5F0F1EFA0F00450EA
:1041900096ECA5F0E10E0418D8B4D1EFA0F0D3EF5F
:1041A000A0F0F1EFA0F0E20E0418D8B4DAEFA0F01E
:1041B000DCEFA0F0F1EFA0F0E30E0418D8B4E3EFC9
:1041C000A0F0E5EFA0F0F1EFA0F00428D8B4EBEFF9
:1041D000A0F0EDEFA0F0F1EFA0F0C192035096EC4B
:1041E000A5F0C182350EE82EFED7000012000201B4
:1041F000A16BA26BA36BA46BA56BA66BA76BA86B43
:10420000A96BAA6BB00EAB6F800EAC6F080EAD6FD2
:10421000820EAE6F060EAF6F2E0EB06FB16B800EBA
:10422000B26FB36B000E05016A6F000E6B6F000E6C
:104230006C6F33ECA6F0000E05016A6F000E6B6F19
:10424000000E6C6F21ECA6F0000E05016A6F000EE7
:104250006B6F000E6C6F0FECA6F0000E0501D56FB2
:10426000000ED46F1200000E0501706F000E6F6F0C
:104270006C516D11D8B43FEFA1F041EFA1F069EF9F
:10428000A1F0010E6E6F49EFA1F0D8906C376D3739
:104290006E2B6DAF4EEFA1F050EFA1F045EFA1F006
:1042A000D8906F3770376C516A5D6D516B59D8A0DB
:1042B0005CEFA1F05EEFA1F063EFA1F06C516A5FDB
:1042C0006D516B5B6F81D8906D336C336E2F50EFF7
:1042D000A1F06FC56AF570C56BF51200000E066E91
:1042E000000E056E03500410D8B479EFA1F07BEFF7
:1042F000A1F0A3EFA1F0010E076E83EFA1F0D8901B
:1043000003360436072A04AE88EFA1F08AEFA1F045
:104310007FEFA1F0D890053606360350015C0450BB
:104320000258D8A096EFA1F098EFA1F09DEFA1F070
:104330000350015E0450025A0580D89004320332C3
:10434000072E8AEFA1F005C501F506C502F512009A
:10435000606A040E616E626A6B0E636E020E646EBA
:10436000656A666A676A686A6A6A360E6B6E010E0B
:104370006C6E360E6D6E010E6E6EB29CB29E6790C4
:104380006792A29EA29C000E05016A6F000E6B6FE1
:10439000000E6C6FB1ECA6F0000E05016A6F000E06
:1043A0006B6F000E6C6FAAECA6F0000E05016A6F31
:1043B000000E6B6F000E6C6FB8ECA6F0800E696E8D
:1043C000120005016C516D11D8B4E9EFA1F0EBEFCB
:1043D000A1F00FEFA2F0010E6E6FF3EFA1F0D890F5
:1043E0006C376D376E2B6DAFF8EFA1F0FAEFA1F0DF
:1043F000EFEFA1F06C516A5D6D516B59D8A003EFDE
:10440000A2F005EFA2F009EFA2F06C516A5F6D51C6
:104410006B5BD8906D336C336E2FFAEFA1F06AC5E9
:104420006AF56BC56BF512000301F39FD96BDA6B6C
:10443000DB6BDC6BDF6BE06BE56BE76BEC6BEE6B08
:10444000EF6BD86BF06BF16BF26BF46B5B0EF56F8F
:10445000100EF66FF76BF86B1F0EFA6F030EF96F05
:10446000000E0601406F000E416F000E426F000EFD
:104470003D6F000E3E6F000E3F6F0501DB6BAF948A
:104480009F94B090A090840E0301F36F120003502C
:104490000410D8B44EEFA2F050EFA2F074EFA2F0E7
:1044A000010E056E58EFA2F0D89003360436052AA7
:1044B00004AE5DEFA2F05FEFA2F054EFA2F0035064
:1044C000015C04500258D8A068EFA2F06AEFA2F095
:1044D0006EEFA2F00350015E0450025AD8900432ED
:1044E0000332052E5FEFA2F001C501F502C502F50A
:1044F0001200C192700E05016C6F070E6BECA0F0FC
:10450000D00E05016E6FC90EE82EFED76E2FFCD7B8
:1045100000D0C182C192E10EC2ECA4F0D00E050120
:104520006E6FC90EE82EFED76E2FFCD700D0C18269
:10453000C192E20EC2ECA4F0D00E05016E6FC90E5E
:10454000E82EFED76E2FFCD700D0C18212000501E5
:10455000706FBBEFA2F00F0E6C6F000E6BECA0F053
:10456000C184D1EFA2F00E0E6C6F000E6BECA0F0C8
:10457000C194D1EFA2F0050170516E6F6F6B6F5156
:10458000000AD8B4C6EFA2F0D1EFA2F06E51010A32
:10459000D8B4ABEFA2F0030AD8B4B3EFA2F0D1EFD6
:1045A000A2F01200A5C5A9F5A6C5AAF5E7EFA2F0ED
:1045B000A3C593F5A4C594F5A90E0501956F050E45
:1045C000966FA7C597F5A8C598F5B7EC85F0A9C56E
:1045D000F6F4AAC5F7F4000EF86E0800F5500009CD
:1045E000D8A4F5EFA2F0F7EFA2F0D8EFA2F0000EFA
:1045F0000501A46F000EA36F1200076E10EFA3F069
:104600000F0E036E000EB3ECA0F0C18425EFA3F0F3
:104610000E0E036E000EB3ECA0F0C19425EFA3F0D4
:104620000750056E066A0650000AD8B41AEFA3F0C8
:1046300025EFA3F00550010AD8B400EFA3F0030A58
:10464000D8B408EFA3F025EFA3F012003CC540F565
:104650003DC541F53AEFA3F03AC52AF53BC52BF528
:10466000400E2C6E050E2D6E3EC52EF53FC52FF566
:1046700004EC88F040C5F6F441C5F7F4000EF86E7E
:104680000800F5500009D8A448EFA3F04AEFA3F0C2
:104690002CEFA3F0000E3B6E000E3A6E12000501E7
:1046A0006F6FC19205016F512009C2ECA4F00501A2
:1046B000706B6BEFA3F06CC5D9F46DC5DAF4DF5005
:1046C000C2ECA4F005016C4B6D2B350EE82EFED725
:1046D00000000501702B6E51705DD8A072EFA3F041
:1046E00074EFA3F05BEFA3F0C182120005016F6FBE
:1046F000C19205016F51C2ECA4F00501706B8DEF02
:10470000A3F0FF0EC2ECA4F06CC5D9F46DC5DAF4C9
:10471000DF6E05016C4B6D2B702B6E51705DD8A058
:1047200094EFA3F096EFA3F081EFA3F06CC5D9F45A
:104730006DC5DAF4DF6AC1821200C192700E036E99
:10474000070EB3ECA0F0D00E056ECA0EE82EFED711
:10475000052EFCD7C182C192E10E96ECA5F0D00ED9
:10476000056ECA0EE82EFED7052EFCD7C182C19277
:10477000E20E96ECA5F0D00E056ECA0EE82EFED71E
:10478000052EFCD7C1821200CC0EF66E4D0EF76ED0
:10479000010EF86E01EEB9F210EE0AF00900F5C450
:1047A000EEF4E550E150FAE101EE00F2830EEE6A1C
:1047B000E806FDE101EEC3F1190EEE6AE806FDE13F
:1047C0000401080E5D6F000E5E6F000E5F6F00014A
:1047D000C3EF97F003011E911F6B206B060E216F34
:1047E000FE0E1D6F420E1C6F1D5105016A6F030105
:1047F0001C510501D66F6AC5D7F5000E0601AD6FD5
:10480000000EAE6F000EAF6F000EAA6F000EAB6F02
:10481000000EAC6FB198B19A050E03011E6F120025
:10482000460E486E050E496E42C54AF543C54BF526
:10483000000E4D6E000E4C6E000E546E000E536E48
:104840004A0E3A6E050E3B6E44C53CF545C53DF536
:10485000480E3E6E050E3F6E26ECA3F04C504224EF
:10486000D96E4D504320DA6EDF6A1200000E05014A
:104870007B6F000E7A6F49EFA4F079C56CF56D6B14
:1048800077C56EF578C56FF503EC9BF005017A4BA3
:104890007B2B7A517525D96E7B517621DA6EDF50EC
:1048A000796F7951D8A457EFA4F059EFA4F03DEFF8
:1048B000A4F01200D69AAF90D680000E05016A6F60
:1048C000000E6B6F000E6C6FCDECA6F0B490D6921C
:1048D000140E05016A6F4E0E6B6F010E6C6FC6EC05
:1048E000A6F0A480B890D684000E05016A6F000E71
:1048F0006B6F000E6C6FBFECA6F01200066EC192DB
:104900000650200996ECA5F0076A95EFA4F003C5C0
:10491000D9F404C5DAF4DF5096ECA5F0034A042A72
:10492000350EE82EFED70000072A0550075CD8A0F8
:104930009CEFA4F09EEFA4F087EFA4F0C1821200D8
:10494000000E126E000E116EB1EFA4F010C503F54B
:10495000046A0EC505F50FC506F535EC9CF0114A45
:10496000122A11500C24D96E12500D20DA6EDF502D
:10497000106E1050D8A4BFEFA4F0C1EFA4F0A6EFC2
:10498000A4F01200D7AEC7EFA4F096EFA5F0050192
:104990006A6F0001878586510309866F836B010E5C
:1049A000826F6AC581F0B1A0D8EFA4F0DAEFA4F06D
:1049B000D3EFA4F080C06BF505016B511200D7AEA8
:1049C000E4EFA4F0D5EFA5F005016A6B0201B0ABEE
:1049D000ECEFA4F0EEEFA4F0F8EFA4F0ABABF3EF44
:1049E000A4F0F5EFA4F0F8EFA4F0010E05016A6F52
:1049F00005016A51120001C507F502C508F509EF66
:104A0000A5F007C5D9F408C5DAF403C5DFF4074AF1
:104A1000082A0506D8A00606052806E10628D8A417
:104A200014EFA5F016EFA5F001EFA5F012000501B7
:104A300071BF1DEFA5F01FEFA5F025EFA5F070C524
:104A400070F571C571F531EFA5F070C572F571C5DE
:104A500073F5721F731F724B732B72C570F573C59C
:104A600071F512000601A751A811A911D8B43BEFA6
:104A7000A5F03DEFA5F04AEFA5F002D84AEFA5F06A
:104A80000500FA6EA751FD6EA851FE6EA951FF6E8A
:104A9000FA501200B19E120008BE51EFA5F053EF7C
:104AA000A5F059EFA5F007C507F508C508F565EFAE
:104AB000A5F007C509F508C50AF5091E0A1E094A29
:104AC0000A2A09C507F50AC508F512000501C651ED
:104AD000C711C811D8B46FEFA5F071EFA5F07EEF44
:104AE000A5F002D87EEFA5F00500FA6EC651FD6E66
:104AF000C751FE6EC851FF6EFA5012001200056ECB
:104B000005C5ECF30301F39DF381F3B18AEFA5F042
:104B10008CEFA5F085EFA5F0EB51046E036AEA5126
:104B20000324016E000E0420026E1200016E0001CB
:104B3000878586510309866F836B010E826F01C5DD
:104B400081F0B1A0A6EFA5F0A8EFA5F0A1EFA5F028
:104B500080C002F50250120098ECA6F0BEEC9DF069
:104B600014ECA2F0E9ECA5F0EAECA3F0A8ECA1F0BB
:104B700082ECA6F0F7ECA0F0E0ECA6F05AECA4F082
:104B80001200AD0E0501B96F050EBA6F000EA36FCE
:104B9000000EA46FABC5A5F5ACC5A6F5B90EA76F01
:104BA000050EA86FD2ECA2F01200016A0201B0ABB0
:104BB000DCEFA5F0DEEFA5F0E7EFA5F0ABABE3EFA0
:104BC000A5F0E5EFA5F0E7EFA5F0010E016E0150AD
:104BD0001200FE0E0301196F186B900E1B6F120E60
:104BE0000601A76F4E0EA86F010EA96FB19EA18E90
:104BF0008F0E03011A6F1200440E506E050E516E97
:104C0000000E3A6E000E3B6E42C53CF543C53DF5C5
:104C1000500E3E6E050E3F6E26ECA3F0120005010D
:104C20006A516B116C11D8B418EFA6F01AEFA6F008
:104C300020EFA6F06AC534F66BC535F66CC536F6BE
:104C4000120005016A516B116C11D8B42AEFA6F05D
:104C50002CEFA6F032EFA6F06AC537F66BC538F632
:104C60006CC539F6120005016A516B116C11D8B48C
:104C70003CEFA6F03EEFA6F044EFA6F06AC53AF688
:104C80006BC53BF66CC53CF6120005016B6FDFECA3
:104C9000A4F00009D8B44FEFA6F051EFA6F047EF0B
:104CA000A6F005016B518EECA6F0120005016C6FA9
:104CB000C19205016C511F0BC2ECA4F0FF0EC2ECB7
:104CC000A4F005016D6FC1826D511200026ED5EC2A
:104CD000A5F00009D8B46FEFA6F071EFA6F067EF6A
:104CE000A6F00250F9ECA6F01200036EC192035038
:104CF0001F0B96ECA5F0FF0E96ECA5F0046EC1829A
:104D000004501200A194A192A1900001846B040EA2
:104D1000856F866B896B8C6B87851200D7AE93EF9E
:104D2000A6F0F9EFA6F005016A6F6AC5A3F21200BA
:104D3000600E0001AD6FAF6BB36B080EB16FB06B5F
:104D4000AC6B120005016E6F6EC56CF5050E6BEC59
:104D5000A0F012006AC5B3F66BC5B4F66CC5B5F623
:104D600012006AC5B6F66BC5B7F66CC5B8F6120088
:104D70006AC5B0F66BC5B1F66CC5B2F612006AC56D
:104D8000C3F56BC5C4F56CC5C5F512006AC5C6F59B
:104D90006BC5C7F56CC5C8F512006AC5C9F56BC50A
:104DA000CAF56CC5CBF512009BC56DF405019C518D
:104DB0006E6E12009BC56BF405019C516C6E120067
:104DC0000001786B796B300EF06E1200000000006D
:104DD00001000000000132C56DF433506E6E120008
:104DE00032C56BF433506C6E1200B49066ECA5F0D3
:104DF0001200016E01C5A3F212003B0E0301EC6F1D
:104E000012006984120069841200B0901200AF94FD
:064E100012001200120066
:020000040030CA
:080000008FFFF7FF9FFFFFFFD8
:01000900FFF7
:00000001FF
