:040000000DEF00F010
:04000800F5EF9CF084
:06001800FF002EEFA4F032
:10FAFC0000E04101000000000000F04E0100000099
:10FB0C001C4B010000000000000000000000000081
:10FB1C0000000000000000000000000000000000D9
:10FB2C0000000000000000000000000000224E0158
:10FB3C00FE4D01DA4D01000000D84E010000008896
:10FB4C003301000000000000000000000000E24A49
:10FB5C000100000000000000000000000000000098
:10FB6C00000000020000FF0002C000FF0002400085
:10FB7C00000023232323232323232323232323238F
:10FB8C002323232323232323232323232323232339
:10FB9C002323232323232323232323232323232329
:10FBAC002323232323232323232323232323232319
:10FBBC00230D0A005B3078253032585D20307825D3
:10FBCC003032582054585F46554C4C3A25732054CB
:10FBDC00585F454D5054593A25732052585F46553D
:10FBEC004C4C3A25732052585F454D5054593A2588
:10FBFC00730D0A005B3078253032585D2030782543
:10FC0C00303258204152443D2558204152433D2525
:10FC1C00582028726574722E64656C61793D257567
:10FC2C0075732C20636F756E743D2575290D0A0054
:10FC3C005B3078253032585D2030782530325820B2
:10FC4C004D41534B3A25303358204352433A2530DB
:10FC5C003258205057523A2573204D4F44453A5054
:10FC6C0025730D0A005B3078253032585D203078D2
:10FC7C002530325820434F4E545F574156453A2554
:10FC8C007320504C4C5F4C4F434B3A2573204461CE
:10FC9C007461526174653D005B3078253032585D7B
:10FCAC0020307825303258204952513A253033587B
:10FCBC002052585F504950453A25752054585F469C
:10FCCC00554C4C3A25730D0A005B30782530325870
:10FCDC005D2030782530325820416464726573732E
:10FCEC002057696474683A202575206279746573AD
:10FCFC000D0A005B3078253032585D203078253085
:10FD0C00325820504C4F535F434E543D2575204183
:10FD1C0052435F434E543D25750D0A004E524632F8
:10FD2C00344C303120496E697469616C697A652094
:10FD3C007375636365737366756C0D0A0046616950
:10FD4C006C656420496E697469616C697A65204ED2
:10FD5C00524632344C30310D0A005B30782530324B
:10FD6C00585D203078253032582028252E337547A1
:10FD7C00487A290D0A005B3078253032585D2030E6
:10FD8C00782530325820454E5F5258414444523AFF
:10FD9C0020005B3078253032585D203078253032A9
:10FDAC0058205250443D25730D0A006974656D57F7
:10FDBC0065696768742069732052454A4543544508
:10FDCC00440A006974656D576569676874206973C6
:10FDDC002041434345505445440A0054582073690C
:10FDEC0064653A2041434B205265636569766564CE
:10FDFC00210A005B53656E645D20446174613A2096
:10FE0C0025642C25642C25640A005B30782530325F
:10FE1C00585D2052585F50575F50303D25750D0A84
:10FE2C00005B3078253032585D2052585F50575F58
:10FE3C0050313D25750D0A005B3078253032585D08
:10FE4C002052585F50575F50323D25750D0A005BAC
:10FE5C003078253032585D2052585F50575F503300
:10FE6C003D25750D0A005B3078253032585D2052E7
:10FE7C00585F50575F50343D25750D0A005B307844
:10FE8C00253032585D2052585F50575F50353D2514
:10FE9C00750D0A005B3078253032585D203078259E
:10FEAC0030325820454E41413A20005B30782530A5
:10FEBC0032585D2052585F414444525F50302022EA
:10FECC00005B3078253032585D2052585F414444F5
:10FEDC00525F50312022005B3078253032585D2043
:10FEEC0052585F414444525F50322022005B3078BC
:10FEFC00253032585D2052585F414444525F503394
:10FF0C002022005B3078253032585D2052585F41FA
:10FF1C004444525F50342022005B307825303258F4
:10FF2C005D2052585F414444525F50352022005BA3
:10FF3C003078253032585D2054585F41444452206B
:10FF4C0022006974656D4E756D6265723A20256488
:10FF5C000D0A0041667465722053656E64696E67A4
:10FF6C003A200A006974656D5765696768742025C5
:10FF7C00640D0A005B5025317525735D2573005B9C
:10FF8C003078253032585D200025642C25642C25D2
:10FF9C0064003235306B627073200052465F5057EC
:10FFAC00523D00286E756C6C2900314D62707320C7
:10FFBC0000324D62707320002563220D0A006442EA
:10FFCC006D0D0A003F3F3F20002D3132002D31389E
:10FFDC00003F3F3F004F464600594553002D360029
:10FFEC004F4E004E4F005258005458002B002D001D
:03FFFC00300000D2
:020000040001F9
:10000000000E34ECA7F00601966F96B10AEF80F06F
:100010000CEF80F012EF80F0F50E736FFF0E746F2F
:1000200016EF80F0F20E736FFF0E746F96B31BEF36
:1000300080F01DEF80F023EF80F0E10E756FFF0E72
:10004000766F27EF80F0EC0E756FFF0E766F3C0E2B
:100050000501AD6FFC0EAE6F000EB06F000EAF6FFE
:1000600096C6B1F5B26B96C6BDF5BD3B0F0EBD177A
:10007000BD51B36FB46B96C6BEF5D890BE33D89061
:10008000BE33030EBE17BE51B56FB66B75C6B7F55E
:1000900076C6B8F573C6B9F574C6BAF58BECA6F09A
:1000A000010E34ECA7F00601966FA00E0501AD6FAE
:1000B000FE0EAE6F000EB06F010EAF6F96C6B1F5BB
:1000C000B26B8BECA6F00601946B050E9419D8B4B4
:1000D0006CEF80F06EEF80F074EF80F0B50E776F0C
:1000E000FE0E786F78EF80F0C70E776FFF0E786F97
:1000F00094C6BDF5010E0501BE6FBD2B82EF80F0E9
:10010000D890BE37BD2F80EF80F00501BE510601AB
:1001100096150009D8A48FEF80F091EF80F097EF4B
:1001200080F0FA0E796FFF0E7A6F9BEF80F0F80E79
:10013000796FFF0E7A6F800E0501AD6FFF0EAE6F07
:1001400094C6AFF5B06B79C6B1F57AC6B2F577C68D
:10015000B3F578C6B4F58BECA6F00601942B050E2A
:100160009465B5EF80F0B7EF80F065EF80F0020E98
:1001700034ECA7F00601966F820E0501AD6FFD0EFF
:10018000AE6F000EB06F020EAF6F96C6B1F5B26BD8
:100190008BECA6F00601946B050E9419D8B4D3EF3E
:1001A00080F0D5EF80F0DBEF80F0B50E7B6FFE0EB8
:1001B0007C6FDFEF80F0C70E7B6FFF0E7C6F94C605
:1001C000BDF5010E0501BE6FBD2BE9EF80F0D890A3
:1001D000BE37BD2FE7EF80F00501BE510601961531
:1001E0000009D8A4F6EF80F0F8EF80F0FEEF80F081
:1001F000FA0E7D6FFF0E7E6F02EF81F0F80E7D6FBD
:10020000FF0E7E6F800E0501AD6FFF0EAE6F94C6C0
:10021000AFF5B06B7DC6B1F57EC6B2F57BC6B3F562
:100220007CC6B4F58BECA6F00601942B050E946504
:100230001CEF81F01EEF81F0CCEF80F0030E34EC68
:10024000A7F00601966F9651030B020F956FD50E1E
:100250000501AD6FFC0EAE6F000EB06F030EAF6FF9
:1002600096C6B1F5B26B95C6B3F5B46B8BECA6F040
:10027000040E34ECA7F00601966F000E0501AD6F79
:10028000FC0EAE6F000EB06F040EAF6F96C6B1F5E8
:10029000B26B96C6BDF5BD3B0F0EBD17BD51B36F1A
:1002A000B46B96C6BEF50F0EBE17BE51B56FB66BDA
:1002B00096C6BFF5BF3B0F0EBF17BF51FA0DF3C473
:1002C000C0F5F4C4C1F5FA0EC025B76F000EC12108
:1002D000B86F96C6C2F50F0EC217C251B96FBA6B8E
:1002E0008BECA6F0050E34ECA7F00601966F660EB7
:1002F0000501AD6FFD0EAE6F000EB06F050EAF6F56
:1003000096C6B1F5B26B600E060196250501B36F76
:10031000B46B090EB4238BECA6F0060E34ECA7F0F8
:100320000601966F96BF97EF81F099EF81F09FEFEE
:1003300081F0E10E7F6FFF0E806FA3EF81F0EC0E76
:100340007F6FFF0E806F96BFA8EF81F0AAEF81F05C
:10035000B0EF81F0E10E816FFF0E826FB4EF81F09C
:10036000EC0E816FFF0E826F710E0501AD6FFC0EFA
:10037000AE6F000EB06F060EAF6F96C6B1F5B26BE2
:1003800081C6B3F582C6B4F57FC6B5F580C6B6F5AD
:100390008BECA6F0ECEF81F0B60EAD6FFF0EAE6FFA
:1003A0008BECA6F00AEF82F0BD0EAD6FFF0EAE6FC4
:1003B0008BECA6F00AEF82F09E0EAD6FFF0EAE6FD3
:1003C0008BECA6F00AEF82F0D00EAD6FFF0EAE6F91
:1003D0008BECA6F00AEF82F006019639E8461F0B77
:1003E000050B0501BD6FBE6BBE51000AD8B4FBEF13
:1003F00081F0E4EF81F0BD51000AD8B4CCEF81F078
:10040000010AD8B4D4EF81F0050AD8B4DCEF81F04A
:10041000E4EF81F0A70E0501AD6FFF0EAE6F8BEC20
:10042000A6F03BEF82F0D90EAD6FFF0EAE6F8BECF6
:10043000A6F05CEF82F0D50EAD6FFF0EAE6F8BECC9
:10044000A6F05CEF82F0E90EAD6FFF0EAE6F8BECA5
:10045000A6F05CEF82F0FC0EAD6FFF0EAE6F8BEC82
:10046000A6F05CEF82F0DD0EAD6FFF0EAE6F8BEC91
:10047000A6F05CEF82F00601D8909631030B0501DF
:10048000BD6FBE6BBE51000AD8B449EF82F033EFA6
:1004900082F0BD51000AD8B413EF82F0010AD8B43B
:1004A0001BEF82F0030AD8B423EF82F0010AD8B41C
:1004B0002BEF82F033EF82F0CA0E0501AD6FFF0E15
:1004C000AE6F8BECA6F0070E34ECA7F00601966F2A
:1004D00096B16DEF82F06FEF82F075EF82F0EF0E64
:1004E000836FFF0E846F79EF82F0E50E836FFF0E4E
:1004F000846FA40E0501AD6FFC0EAE6F000EB06FE1
:10050000070EAF6F96C6B1F5B26B96C6BDF5BD3B93
:100510000F0EBD17070EBD17BD51B36FB46B96C656
:10052000BEF5D890BE33070EBE17BE51B56FB66B81
:1005300083C6B7F584C6B8F58BECA6F0080E34EC8C
:10054000A7F00601966FFF0E0501AD6FFC0EAE6FB2
:10055000000EB06F080EAF6F96C6B1F5B26B96C6BF
:10056000BDF5BD3B0F0EBD17BD51B36FB46B96C645
:10057000BEF50F0EBE17BE51B56FB66B8BECA6F075
:10058000090E34ECA7F00601966F96B1CAEF82F01F
:10059000CCEF82F0D2EF82F0EF0E856FFF0E866F08
:1005A000D6EF82F0E50E856FFF0E866F9E0E050179
:1005B000AD6FFD0EAE6F000EB06F090EAF6F96C639
:1005C000B1F5B26B85C6B3F586C6B4F58BECA6F073
:1005D0008F0E05016E6F060E6F6F95C670F50A0ED1
:1005E000E0ECA3F0B70E0501AD6FFE0EAE6F000E8E
:1005F000B06F0A0EAF6F8BECA6F00601966B17EF8B
:1006000083F08B0E0501AD6FFF0EAE6F8F0E0601EE
:100610009625D96EDA6A060EDA22DF500501BD6F23
:10062000BD51AF6FB06B8BECA6F00601962B9551C8
:10063000965DD8A01EEF83F020EF83F001EF83F0EA
:10064000C60E0501AD6FFF0EAE6F8BECA6F08F0EE0
:1006500005016E6F060E6F6F95C670F50B0EE0EC20
:10066000A3F0CD0E0501AD6FFE0EAE6F000EB06FA4
:100670000B0EAF6F8BECA6F00601966B56EF83F076
:100680008B0E0501AD6FFF0EAE6F8F0E0601962526
:10069000D96EDA6A060EDA22DF500501BD6FBD5150
:1006A000AF6FB06B8BECA6F00601962B9551965D63
:1006B000D8A05DEF83F05FEF83F040EF83F0C60ECC
:1006C0000501AD6FFF0EAE6F8BECA6F0E30E0501DA
:1006D000AD6FFE0EAE6F000EB06F0C0EAF6F8BECF9
:1006E000A6F00601966B8AEF83F08B0EAD6FFF0EBE
:1006F000AE6F8F0E06019625D96EDA6A060EDA22E3
:10070000DF500501BD6FBD51AF6FB06B8BECA6F034
:100710000601962BFF0E95250501BD6FBE6BFF0EE2
:10072000BE23060196510501BF6FC06BBD51BF5D71
:10073000C051800AC16FBE51800AC159D8A0A3EF31
:1007400083F0A5EF83F075EF83F00C0E34ECA7F087
:100750000601966FC40E0501AD6FFF0EAE6F96C613
:10076000AFF5B06B8BECA6F0F90E0501AD6FFE0E88
:10077000AE6F000EB06F0D0EAF6F8BECA6F00601E2
:10078000966BD8EF83F08B0EAD6FFF0EAE6F8F0EB2
:1007900006019625D96EDA6A060EDA22DF500501C7
:1007A000BD6FBD51AF6FB06B8BECA6F00601962B01
:1007B000FF0E95250501BD6FBE6BFF0EBE23060122
:1007C00096510501BF6FC06BBD51BF5DC051800A1E
:1007D000C16FBE51800AC159D8A0F1EF83F0F3EF89
:1007E00083F0C3EF83F00D0E34ECA7F00601966F93
:1007F000C40E0501AD6FFF0EAE6F96C6AFF5B06BC0
:100800008BECA6F00F0E0501AD6FFF0EAE6F000E64
:10081000B06F0E0EAF6F8BECA6F00601966B26EF55
:1008200084F08B0EAD6FFF0EAE6F8F0E0601962516
:10083000D96EDA6A060EDA22DF500501BD6FBD51AE
:10084000AF6FB06B8BECA6F00601962BFF0E9525D3
:100850000501BD6FBE6BFF0EBE230601965105015B
:10086000BF6FC06BBD51BF5DC051800AC16FBE512B
:10087000800AC159D8A03FEF84F041EF84F011EF16
:1008800084F00E0E34ECA7F00601966FC40E05013D
:10089000AD6FFF0EAE6F96C6AFF5B06B8BECA6F0EA
:1008A000250E0501AD6FFF0EAE6F000EB06F0F0E7F
:1008B000AF6F8BECA6F00601966B74EF84F08B0E95
:1008C000AD6FFF0EAE6F8F0E06019625D96EDA6AF8
:1008D000060EDA22DF500501BD6FBD51AF6FB06B60
:1008E0008BECA6F00601962BFF0E95250501BD6F3A
:1008F000BE6BFF0EBE23060196510501BF6FC06B94
:10090000BD51BF5DC051800AC16FBE51800AC1593F
:10091000D8A08DEF84F08FEF84F05FEF84F00F0E9E
:1009200034ECA7F00601966FC40E0501AD6FFF0E03
:10093000AE6F96C6AFF5B06B8BECA6F08F0E0501CF
:100940006E6F060E6F6F95C670F5100EE0ECA3F09B
:100950003B0E0501AD6FFF0EAE6F000EB06F100EB7
:10096000AF6F8BECA6F00601966BCDEF84F08B0E8B
:100970000501AD6FFF0EAE6F8F0E06019625D96E85
:10098000DA6A060EDA22DF500501BD6FBD51AF6F86
:10099000B06B8BECA6F00601962B9551965DD8A016
:1009A000D4EF84F0D6EF84F0B7EF84F0C60E0501E3
:1009B000AD6FFF0EAE6F8BECA6F0110E34ECA7F00E
:1009C0000601966F160E0501AD6FFE0EAE6F000E9E
:1009D000B06F110EAF6F96C6B1F5B26B8BECA6F08F
:1009E000120E34ECA7F00601966F2D0E0501AD6FC7
:1009F000FE0EAE6F000EB06F120EAF6F96C6B1F561
:100A0000B26B8BECA6F0130E34ECA7F00601966FD8
:100A1000440E0501AD6FFE0EAE6F000EB06F130EEB
:100A2000AF6F96C6B1F5B26B8BECA6F0140E34EC3A
:100A3000A7F00601966F5B0E0501AD6FFE0EAE6F5F
:100A4000000EB06F140EAF6F96C6B1F5B26B8BECA3
:100A5000A6F0150E34ECA7F00601966F720E050194
:100A6000AD6FFE0EAE6F000EB06F150EAF6F96C677
:100A7000B1F5B26B8BECA6F0160E34ECA7F00601C4
:100A8000966F890E0501AD6FFE0EAE6F000EB06F52
:100A9000160EAF6F96C6B1F5B26B8BECA6F0170EC3
:100AA00034ECA7F00601966F96B159EF85F05BEF35
:100AB00085F061EF85F0EF0E876FFF0E886F65EFB1
:100AC00085F0E50E876FFF0E886F96B36AEF85F0AD
:100AD0006CEF85F072EF85F0EF0E896FFF0E8A6F75
:100AE00076EF85F0E50E896FFF0E8A6F96B97BEF82
:100AF00085F07DEF85F083EF85F0EF0E8B6FFF0EB5
:100B00008C6F87EF85F0E50E8B6FFF0E8C6F96BBB9
:100B10008CEF85F08EEF85F094EF85F0EF0E8D6F02
:100B2000FF0E8E6F98EF85F0E50E8D6FFF0E8E6FC6
:100B3000C00E0501AD6FFB0EAE6F000EB06F170E4D
:100B4000AF6F96C6B1F5B26B8DC6B3F58EC6B4F570
:100B50008BC6B5F58CC6B6F589C6B7F58AC6B8F5A5
:100B600087C6B9F588C6BAF58BECA6F0120097C512
:100B7000D9F498C5DAF4DEC4F6F4DDC4F7F4000E57
:100B8000F86E0800F550250AD8A4C9EF85F0CBEF20
:100B900085F0ECEF87F097C5D9F498C5DAF4DE2A32
:100BA000000EDD22000E0501CE6F000ECD6FCDC50B
:100BB000D7F5CF69D069A26BFEEF85F0D78397C5D3
:100BC000D9F498C5DAF4DE2A000EDD22FEEF85F0B6
:100BD000010EA26FFEEF85F097C5D9F498C5DAF43F
:100BE000DEC4F6F4DDC4F7F4000EF86E0800F5502C
:100BF000300AD8B4DEEF85F0E8EF85F0A251D8B422
:100C000004EF86F006EF86F0ECEF85F097C56CF503
:100C100098C56DF599C56EF59AC56FF52EEC9AF0ED
:100C20006CC5CDF56DC5CEF50501CEBF1CEF86F0C8
:100C30001AEF86F021EF86F0D781CD6DCE1FD8B0A8
:100C4000CE2B97C5D9F498C5DAF4DEC4F6F4DDC42A
:100C5000F7F4000EF86E0800F5502E0AD8A433EF12
:100C600086F035EF86F04AEF86F097C5D9F498C53F
:100C7000DAF4DE2A000EDD2297C56CF598C56DF515
:100C800099C56EF59AC56FF52EEC9AF06CC5CFF547
:100C90006DC5D0F597C5D9F498C5DAF4DEC4F6F47D
:100CA000DDC4F7F4000EF86E0800F550630AD8A40E
:100CB0005CEF86F05EEF86F082EF86F097C5D9F4A0
:100CC00098C5DAF4DE2A000EDD2299C5D9F49AC55A
:100CD000DAF4DFC49BF5020EDE26DFC49CF5000EBD
:100CE000DD229BC5D9F49CC5DAF4DF5005019D6F68
:100CF00095C577F596C578F59DC579F595EC9AF08B
:100D000003EF88F097C5D9F498C5DAF4DEC4A3F5EB
:100D1000DDC4A4F5A3C5F6F4A4C5F7F4000EF86E7F
:100D20000800F550640AD8B498EF86F09AEF86F080
:100D3000AAEF86F0A3C5F6F4A4C5F7F4000EF86E8A
:100D40000800F550690AD8A4A8EF86F0AAEF86F04B
:100D5000D9EF86F099C5D9F49AC5DAF4DFC49BF5CA
:100D6000020EDE26DFC49CF5000EDD229BC5D9F401
:100D70009CC5DAF4DEC49EF5DDC49FF5010E0501C5
:100D8000A3259B6F000EA4219C6F97C5D9F498C52D
:100D9000DAF49BC5DEF49CC5DDF495C587F596C5F0
:100DA00088F59EC589F59FC58AF591EC90F003EF13
:100DB00088F0A3C5F6F4A4C5F7F4000EF86E080099
:100DC000F550580AD8B4E7EF86F0E9EF86F0F9EF6E
:100DD00086F0A3C5F6F4A4C5F7F4000EF86E08007B
:100DE000F550750AD8A4F7EF86F0F9EF86F048EFD2
:100DF00087F099C5D9F49AC5DAF4DFC49BF5020EE1
:100E0000DE26DFC49CF5000EDD229BC5D9F49CC50F
:100E1000DAF4DEC49EF5DDC49FF5010E0501A325BD
:100E20009B6F000EA4219C6F97C5D9F498C5DAF486
:100E30009BC5DEF49CC5DDF436EF87F095C587F5DC
:100E400096C588F59EC589F59FC58AF5ACEC96F0E8
:100E500003EF88F095C587F596C588F59EC589F599
:100E60009FC58AF5C9EC94F003EF88F0A3C5F6F4AA
:100E7000A4C5F7F4000EF86E0800F550580AD8B46F
:100E80002AEF87F02D0AD8B41EEF87F048EF87F0DD
:100E90000501A26B97C5D9F498C5DAF4DEC4F6F45F
:100EA000DDC4F7F4000EF86E0800F550730AD8A4FC
:100EB0005CEF87F05EEF87F069EF87F097C5D9F4B4
:100EC00098C5DAF4DE2A000EDD22010EA26FBFEF14
:100ED00087F097C5D9F498C5DAF4DEC4F6F4DDC41A
:100EE000F7F4000EF86E0800F5506C0AD8A47BEFFA
:100EF00087F07DEF87F0BFEF87F097C5D9F498C5ED
:100F0000DAF4DEC49BF5DDC49CF5010E9B27000ED0
:100F10009C239BC5F6F49CC5F7F4000EF86E080000
:100F2000F5506C0AD8A497EF87F099EF87F0BFEFE0
:100F300087F097C5D9F498C5DAF4DEC49BF5DDC413
:100F40009CF5020E9B27000E9C239BC5F6F49CC5C6
:100F5000F7F4000EF86E0800F550730AD8A4B3EF4A
:100F600087F0B5EF87F0BFEF87F0030E97C5D9F490
:100F700098C5DAF4DE26000EDD2265EF87F0A25177
:100F8000D8B4C5EF87F0C7EF87F0E3EF87F095C5DA
:100F900077F596C578F599C5D9F49AC5DAF4DFC422
:100FA0009BF5020EDE26DFC49CF5000EDD229BC5FC
:100FB000D9F49CC5DAF4DEC479F5DDC47AF522EC07
:100FC00093F003EF88F097C5D9F498C5DAF4DE2AD8
:100FD000000EDD2203EF88F097C5D9F498C5DAF446
:100FE000DEC4F6F4DDC4F7F4000EF86E0800F55028
:100FF00005016E6F6F6B95C570F596C571F5FCECCC
:101000009AF0E3EF87F012002CC5D9F42DC5DAF47D
:10101000DEC4F6F4DDC4F7F4000EF86E0800F550F7
:10102000250AD8A416EF88F018EF88F036EF8AF07A
:101030002CC5D9F42DC5DAF4DE2A000EDD22000E0F
:101040000501CE6F000ECD6FCDC5D7F5CF69D06944
:10105000376A4CEF88F00501D7832CC5D9F42DC52C
:10106000DAF4DE2A000EDD224CEF88F0010E376E36
:101070004CEF88F02CC5D9F42DC5DAF4DEC4F6F4B3
:10108000DDC4F7F4000EF86E0800F550300AD8B44D
:101090002BEF88F036EF88F03750D8B452EF88F055
:1010A00054EF88F03AEF88F02CC501F52DC502F514
:1010B0002EC503F52FC504F562EC9BF001C5CDF5F7
:1010C00002C5CEF50501CEBF6AEF88F068EF88F063
:1010D0006FEF88F0D781CD6DCE1FD8B0CE2B2CC549
:1010E000D9F42DC5DAF4DEC4F6F4DDC4F7F4000E4D
:1010F000F86E0800F5502E0AD8A481EF88F083EF2F
:1011000088F098EF88F02CC5D9F42DC5DAF4DE2AE2
:10111000000EDD222CC501F52DC502F52EC503F507
:101120002FC504F562EC9BF001C5CFF502C5D0F5E3
:101130002CC5D9F42DC5DAF4DEC4F6F4DDC4F7F419
:10114000000EF86E0800F550630AD8A4AAEF88F0E4
:10115000ACEF88F0CFEF88F02CC5D9F42DC5DAF4C8
:10116000DE2A000EDD222EC5D9F42FC5DAF4DFC445
:1011700030F5020EDE26DFC431F5000EDD2230C56B
:10118000D9F431C5DAF4DF50326E2AC50CF52BC51F
:101190000DF532C50EF5C8EC9BF04CEF8AF02CC56E
:1011A000D9F42DC5DAF4DEC438F5DDC439F538C517
:1011B000F6F439C5F7F4000EF86E0800F550640A2D
:1011C000D8B4E5EF88F0E7EF88F0F7EF88F038C59E
:1011D000F6F439C5F7F4000EF86E0800F550690A08
:1011E000D8A4F5EF88F0F7EF88F025EF89F02EC549
:1011F000D9F42FC5DAF4DFC430F5020EDE26DFC4E1
:1012000031F5000EDD2230C5D9F431C5DAF4DEC483
:1012100033F5DDC434F5010E3824306E000E39206C
:10122000316E2CC5D9F42DC5DAF430C5DEF431C5E4
:10123000DDF42AC51CF52BC51DF533C51EF534C5D7
:101240001FF56DEC91F04CEF8AF038C5F6F439C516
:10125000F7F4000EF86E0800F550580AD8B433EFD2
:1012600089F035EF89F045EF89F038C5F6F439C5D6
:10127000F7F4000EF86E0800F550750AD8A443EF95
:1012800089F045EF89F093EF89F02EC5D9F42FC589
:10129000DAF4DFC430F5020EDE26DFC431F5000ECD
:1012A000DD2230C5D9F431C5DAF4DEC433F5DDC44E
:1012B00034F5010E3824306E000E3920316E2CC505
:1012C000D9F42DC5DAF430C5DEF431C5DDF481EF93
:1012D00089F02AC51CF52BC51DF533C51EF534C58F
:1012E0001FF542EC97F04CEF8AF02AC51CF52BC590
:1012F0001DF533C51EF534C51FF56BEC95F04CEFAD
:101300008AF038C5F6F439C5F7F4000EF86E080017
:10131000F550580AD8B475EF89F02D0AD8B469EFA2
:1013200089F093EF89F0376A2CC5D9F42DC5DAF42A
:10133000DEC4F6F4DDC4F7F4000EF86E0800F550D4
:10134000730AD8A4A6EF89F0A8EF89F0B3EF89F06B
:101350002CC5D9F42DC5DAF4DE2A000EDD22010EEB
:10136000376E09EF8AF02CC5D9F42DC5DAF4DEC446
:10137000F6F4DDC4F7F4000EF86E0800F5506C0AC0
:10138000D8A4C5EF89F0C7EF89F009EF8AF02CC522
:10139000D9F42DC5DAF4DEC430F5DDC431F5010E23
:1013A0003026000E312230C5F6F431C5F7F4000EB8
:1013B000F86E0800F5506C0AD8A4E1EF89F0E3EF6D
:1013C00089F009EF8AF02CC5D9F42DC5DAF4DEC412
:1013D00030F5DDC431F5020E3026000E312230C565
:1013E000F6F431C5F7F4000EF86E0800F550730AF4
:1013F000D8A4FDEF89F0FFEF89F009EF8AF0030E22
:101400002CC5D9F42DC5DAF4DE26000EDD22AFEFAF
:1014100089F03750D8B40FEF8AF011EF8AF02DEF32
:101420008AF02AC50CF52BC50DF52EC5D9F42FC5AC
:10143000DAF4DFC430F5020EDE26DFC431F5000E2B
:10144000DD2230C5D9F431C5DAF4DEC40EF5DDC4D1
:101450000FF5F8EC93F04CEF8AF02CC5D9F42DC5BC
:10146000DAF4DE2A000EDD224CEF8AF02CC5D9F426
:101470002DC5DAF4DEC4F6F4DDC4F7F4000EF86E20
:101480000800F550036E046A2AC505F52BC506F55C
:101490002EEC9CF02DEF8AF0120005017D51800B9F
:1014A000866F7D517D258C6F7CAF59EF8AF05BEFA5
:1014B0008AF05CEF8AF08C818C51D8B462EF8AF0AC
:1014C00064EF8AF077EF8AF08C29D8A46AEF8AF06B
:1014D0006CEF8AF074EF8AF0000E7A6F000E7B6F6B
:1014E000000E7C6F000E7D6F7C8F7FEF8AF0000E08
:1014F0007A6F000E7B6F000E7C6F000E7D6F815146
:10150000800B861B815181258B6F80AF8AEF8AF01B
:101510008CEF8AF08DEF8AF08B818B51D8B493EFEA
:101520008AF095EF8AF0A8EF8AF08B29D8A49BEF78
:101530008AF09DEF8AF0A5EF8AF0000E7E6F000E14
:101540007F6F000E806F000E816F808FB0EF8AF08A
:10155000000E7E6F000E7F6F000E806F000E816F99
:101560008B51D8B4B6EF8AF0B8EF8AF0C0EF8AF0AA
:101570008C51D8A4BEEF8AF0C0EF8AF0CAEF8AF08F
:10158000000E7A6F000E7B6F000E7C6F000E7D6F79
:1015900060EF8CF080517A03F3C491F5F4C492F5B6
:1015A0009151876F886B896B8A6B92518D6F8E6BAF
:1015B0008F6B906B7F517B03F3C491F5F4C492F56C
:1015C00091518727000E882389238A2392518D27E2
:1015D000000E8E238F2390237E517C03F3C491F55C
:1015E000F4C492F591518727000E882389238A231A
:1015F00092518D27000E8E238F23902389C58AF563
:1016000088C589F587C588F5876B7E517B03F3C450
:1016100091F5F4C492F59151872792518823000ED9
:101620008923000E8A237F517A03F3C491F5F4C411
:1016300092F59151872792518823000E8923000E3D
:101640008A2389C58AF588C589F587C588F5876B9A
:101650007E517A03F3C491F5F4C492F59151872732
:1016600092518823000E8923000E8A2380517B0328
:10167000F3C491F5F4C492F591518D2792518E23C4
:10168000000E8F23000E90237F517C03F3C491F54D
:10169000F4C492F591518D2792518E23000E8F2321
:1016A000000E902380517C03F3C491F5F4C492F5AD
:1016B0009151826F9251836F846B856B84C585F5E0
:1016C00083C584F582C583F5826B82518D27835152
:1016D0008E2384518F238551902387C582F588C539
:1016E00083F589C584F58AC585F5190E7DEF8BF0E4
:1016F000D8908533843383338233E82E78EF8BF0B0
:1017000082518D2783518E2384518F2385519023BD
:1017100089C58AF588C589F587C588F5876B8B519A
:101720008CC582F5836B8227000E8323820E82256F
:10173000916FFF0E8321926FB3EF8BF0D8908D37AE
:101740008E378F3790378AAFA8EF8BF0AAEF8BF0E8
:10175000ABEF8BF08D81D8908737883789378A3700
:101760009107D8A092078FAFB8EF8BF0BAEF8BF04C
:101770009EEF8BF08B6B8AAFC0EF8BF0C2EF8BF0DC
:10178000E6EF8BF0FF0E8715826FFF0E8815836FD3
:10179000FF0E8915846F7F0E8A15856F8251831124
:1017A00084118511D8B4D7EF8BF0D9EF8BF0DDEF32
:1017B0008BF0010E8B6FE6EF8BF08DA1E2EF8BF0DB
:1017C000E4EF8BF0E6EF8BF0D9EF8BF08B51D8B4D0
:1017D000ECEF8BF0EEEF8BF012EF8CF0010E8D271B
:1017E000000E8E238F23902390A1F9EF8BF0FBEF57
:1017F0008BF012EF8CF08DC582F58EC583F58FC509
:1018000084F590C585F585358533843383338233FC
:1018100082C58DF583C58EF584C58FF585C590F598
:10182000914B922B92BF1DEF8CF0925108E19129C0
:10183000D8A01DEF8CF01FEF8CF029EF8CF0000E7C
:101840008D6F000E8E6F800E8F6F7F0E906F56EF34
:101850008CF092BF36EF8CF0925106E19105D8B032
:1018600034EF8CF036EF8CF041EF8CF0000E8D6F82
:10187000000E8E6F000E8F6F000E906F866B56EF0E
:101880008CF091C58CF5FF0E8D17FF0E8E177F0E15
:101890008F17000E90178CA150EF8CF052EF8CF048
:1018A00053EF8CF08F8FD8908C31906F86519013BE
:1018B0008DC57AF58EC57BF58FC57CF590C57DF518
:1018C00012001250800B1B6E12501224216E11AEAA
:1018D0006CEF8CF06EEF8CF06FEF8CF0218021506C
:1018E000D8B475EF8CF077EF8CF08AEF8CF021286C
:1018F000D8A47DEF8CF07FEF8CF087EF8CF0000E9A
:101900000F6E000E106E000E116E000E126E118E14
:1019100092EF8CF0000E0F6E000E106E000E116E26
:10192000000E126E1650800B1B1A16501624206ED5
:1019300015AE9DEF8CF09FEF8CF0A0EF8CF0208027
:101940002050D8B4A6EF8CF0A8EF8CF0BBEF8CF051
:101950002028D8A4AEEF8CF0B0EF8CF0B8EF8CF06C
:10196000000E136E000E146E000E156E000E166E35
:10197000158EC3EF8CF0000E136E000E146E000E69
:10198000156E000E166E2050D8B4C9EF8CF0CBEF58
:101990008CF0D3EF8CF02150D8A4D1EF8CF0D3EFA2
:1019A0008CF0DDEF8CF0000E0F6E000E106E000E4E
:1019B000116E000E126E73EF8EF015500F02F3C40D
:1019C00026F5F4C427F526501C6E1D6A1E6A1F6A90
:1019D0002750226E236A246A256A14501002F3C429
:1019E00026F5F4C427F526501C26000E1D221E22C3
:1019F0001F2227502226000E2322242225221350A4
:101A00001102F3C426F5F4C427F526501C26000E57
:101A10001D221E221F2227502226000E23222422AE
:101A200025221EC51FF51DC51EF51CC51DF51C6A0A
:101A300013501002F3C426F5F4C427F526501C26D3
:101A400027501D22000E1E22000E1F2214500F02CE
:101A5000F3C426F5F4C427F526501C2627501D2272
:101A6000000E1E22000E1F221EC51FF51DC51EF5ED
:101A70001CC51DF51C6A13500F02F3C426F5F4C4EF
:101A800027F526501C2627501D22000E1E22000E70
:101A90001F2215501002F3C426F5F4C427F5265072
:101AA000222627502322000E2422000E2522145025
:101AB0001102F3C426F5F4C427F526502226275038
:101AC0002322000E2422000E252215501102F3C4F9
:101AD00026F5F4C427F52650176E2750186E196A9C
:101AE0001A6A19C51AF518C519F517C518F5176A30
:101AF0001750222618502322195024221A5025222A
:101B00001CC517F51DC518F51EC519F51FC51AF515
:101B1000190E90EF8DF0D8901A3219321832173210
:101B2000E82E8BEF8DF017502226185023221950E3
:101B300024221A5025221EC51FF51DC51EF51CC5E1
:101B40001DF51C6A205021C517F5186A1726000ECE
:101B50001822820E1724266EFF0E1820276EC6EF5D
:101B60008DF0D89022362336243625361FAEBBEFB3
:101B70008DF0BDEF8DF0BEEF8DF02280D8901C3639
:101B80001D361E361F362606D8A0270624AECBEFFC
:101B90008DF0CDEF8DF0B1EF8DF0206A1FAED3EF59
:101BA0008DF0D5EF8DF0F9EF8DF0FF0E1C14176E50
:101BB000FF0E1D14186EFF0E1E14196E7F0E1F14DB
:101BC0001A6E1750181019101A10D8B4EAEF8DF0C9
:101BD000ECEF8DF0F0EF8DF0010E206EF9EF8DF04F
:101BE00022A0F5EF8DF0F7EF8DF0F9EF8DF0ECEF2F
:101BF0008DF02050D8B4FFEF8DF001EF8EF025EF7F
:101C00008EF0010E2226000E23222422252225A05A
:101C10000CEF8EF00EEF8EF025EF8EF022C517F54B
:101C200023C518F524C519F525C51AF51A341A3235
:101C300019321832173217C522F518C523F519C500
:101C400024F51AC525F5264A272A27BE30EF8EF03F
:101C5000275008E12628D8A030EF8EF032EF8EF022
:101C60003CEF8EF0000E226E000E236E800E246E6E
:101C70007F0E256E69EF8EF027BE49EF8EF027505C
:101C800006E12604D8B047EF8EF049EF8EF054EF0E
:101C90008EF0000E226E000E236E000E246E000EDB
:101CA000256E1B6A69EF8EF026C521F5FF0E221600
:101CB000FF0E23167F0E2416000E251621A063EFBB
:101CC0008EF065EF8EF066EF8EF0248ED890213086
:101CD000256E1B50251222C50FF523C510F524C50E
:101CE00011F525C512F51200CD0E346ECC0E356EF1
:101CF000CC0E366E3D0E376E000E386E000E396E0D
:101D0000000E3A6E000E3B6E6FEC9EF0190E050150
:101D1000636F5A0E626FB10EE82EFED7622FFCD7AA
:101D2000632FFAD700D0F2ECA7F0000E49ECA6F032
:101D300001C5D1F502C5D2F5700E426EFF0E436E9D
:101D4000D1C544F5D2C545F5DAECA6F00601AB5194
:101D50000501D15D0601AC510501D259D8A0B3EF00
:101D60008EF0B5EF8EF055EF8FF0D1510601A95DE1
:101D70000501D2510601AA59D8A0C1EF8EF0C3EFD8
:101D80008EF055EF8FF0530E016E060E026E000EB0
:101D9000046E000E036E000E066E200E056EAAEC99
:101DA000A5F0530E426E060E436E950E446EFF0E66
:101DB000456ED8C546F5476AD1C548F5D2C549F53F
:101DC000000E4B6E010E4A6E7AECA4F0530E050124
:101DD000606F060E616F1AECA0F0FF0E426EFD0EF2
:101DE000436ED8C544F5456AD1C546F5D2C547F519
:101DF000000E496E010E486EDAECA6F0CF0E426E70
:101E0000FD0E436EDAECA6F0C80E426EFF0E436E76
:101E1000DAECA6F00501D96B090E0501636F1E0E01
:101E2000626FE40EE82EFED7622FFCD7632FFAD73D
:101E30000000B80E346E1E0E356E050E366E3E0E68
:101E4000376E660E386E660E396E260E3A6E3F0E8F
:101E50003B6E6FEC9EF0520E0501636F2B0E626FAE
:101E6000000EE82EFED7622FFCD7632FFAD70000B2
:101E7000520E0501636F2B0E626F000EE82EFED727
:101E8000622FFCD7632FFAD70000520E0501636F53
:101E90002B0E626F000EE82EFED7622FFCD7632F49
:101EA000FAD70000B490B4EF8FF0B70E426EFD0E7B
:101EB000436EDAECA6F0530E016E060E026E000EB3
:101EC000046E000E036E000E066E200E056EAAEC68
:101ED000A5F0530E426E060E436E950E446EFF0E35
:101EE000456ED8C546F5476AD1C548F5D2C549F50E
:101EF000000E4B6E000E4A6E7AECA4F0530E0501F4
:101F0000606F060E616F1AECA0F0FF0E426EFD0EC0
:101F1000436ED8C544F5456AD1C546F5D2C547F5E7
:101F2000000E496E000E486EDAECA6F0CD0E346E4F
:101F3000CC0E356ECC0E366E3D0E376E000E386E02
:101F4000000E396E000E3A6E000E3B6E6FEC9EF086
:101F5000020E0501D96F040E016E0F0E026E040E03
:101F6000036E3C0EB3ECA6F012000501746F050180
:101F70007451D8B4BEEF8FF0C0EF8FF0E2EF8FF066
:101F80006FBFC7EF8FF0C5EF8FF0E2EF8FF06CC53A
:101F900070F56DC571F56EC572F56FC573F5701F7F
:101FA000711F721F731F702B000E71237223732316
:101FB00070C576F571C577F572C578F573C579F595
:101FC000EAEF8FF06CC576F56DC577F56EC578F5DF
:101FD0006FC579F56C516D116E116F11D8A4F3EFC7
:101FE0008FF0F5EF8FF0FFEF8FF0000E6C6F000EAB
:101FF0006D6F000E6E6F000E6F6F90EF90F0960E8B
:10200000756F09EF90F0752BD8907933783377336B
:102010007633000E7615706F000E7715716F000E17
:102020007815726FFE0E7915736F70517111721100
:102030007311D8A41EEF90F020EF90F003EF90F012
:102040002EEF90F0752B010E7627000E7723782364
:102050007923D8907933783377337633000E761539
:10206000706F000E7715716F000E7815726FFF0E8E
:102070007915736F7051711172117311D8A443EFF8
:1020800090F045EF90F022EF90F04DEF90F0750753
:10209000D890763777377837793778BF52EF90F026
:1020A00054EF90F05CEF90F0020E75615AEF90F0F3
:1020B0005CEF90F047EF90F075B161EF90F063EF57
:1020C00090F064EF90F0789FD890753375C570F5F7
:1020D000716B726B736B70C573F5726B716B706B38
:1020E00070517613715177137251781373517913BC
:1020F0007451D8B47EEF90F080EF90F088EF90F0BC
:102100006FBF87EF90F085EF90F088EF90F0798FB8
:1021100076C56CF577C56DF578C56EF579C56FF543
:10212000120005018ABF97EF90F09AEF90F0010E30
:102130009BEF90F0000E916FD0BFA1EF90F0A3EF56
:1021400090F0A4EF90F0D793D0BFABEF90F0A9EF51
:1021500090F0B1EF90F0000E8E6F010E8D6FB5EF25
:1021600090F0CFC58DF5D0C58EF5CDC58FF5CEC518
:1021700090F59151D8B4BFEF90F0C1EF90F0D8EF47
:1021800090F08F07D8A090079151D8A4CAEF90F093
:10219000CCEF90F0D2EF90F0000E8C6F2B0E8B6F87
:1021A000D6EF90F0000E8C6F2D0E8B6F8BC591F5D6
:1021B000000E936F1F0E926F0601526B11EF91F09C
:1021C0009207D8A09307330E9225D96E060E93215D
:1021D000DA6E89C56CF58AC56DF5000E6F6F0A0E53
:1021E0006E6FC8EC9EF06CC572F56DC573F5C6ECEC
:1021F000A5F005017251300FDF6E8D07D8A08E0754
:102200008F07D8A0900789C56CF58AC56DF5000EBB
:102210006F6F0A0E6E6F93EC9CF06CC589F56DC5FF
:102220008AF5050193BF1DEF91F0935108E19205E6
:10223000D8A01DEF91F01FEF91F049EF91F0895177
:102240008A11D8A426EF91F028EF91F0E0EF90F0FA
:102250008EBF35EF91F08E5106E18D05D8B033EF8A
:1022600091F035EF91F0E0EF90F090BF40EF91F0FA
:10227000905108E18F05D8A040EF91F042EF91F026
:1022800049EF91F0D7B347EF91F049EF91F0E0EFCC
:1022900090F09151D8B44FEF91F051EF91F05CEF85
:1022A00091F09207D8A09307330E9225D96E060EAF
:1022B0009321DA6E91C5DFF487C57EF588C57FF579
:1022C000330E9225806F060E9321816F8FC582F5A4
:1022D00090C583F577EC9FF012001FBE72EF91F06E
:1022E00075EF91F0010E76EF91F0000E266E05016C
:1022F000D0BF7DEF91F07FEF91F080EF91F0D79319
:10230000D0BF87EF91F085EF91F08DEF91F0000E47
:10231000236E010E226E91EF91F0CFC522F5D0C54C
:1023200023F5CDC524F5CEC525F52650D8B49BEFB1
:1023300091F09DEF91F0B4EF91F02406D8A025061E
:102340002650D8A4A6EF91F0A8EF91F0AEEF91F04F
:10235000000E216E2B0E206EB2EF91F0000E216E5A
:102360002D0E206E20C526F5000E286E1F0E276E3E
:102370000601526BECEF91F02706D8A02806330E29
:102380002724D96E060E2820DA6E1EC501F51FC55A
:1023900002F5000E046E0A0E036E20EC9FF001C5DC
:1023A00007F502C508F516ECA6F00750300FDF6EF2
:1023B0002206D8A023062406D8A025061EC501F5AE
:1023C0001FC502F5000E046E0A0E036E56EC9DF05A
:1023D00001C51EF502C51FF528BEF7EF91F0285084
:1023E00008E12704D8A0F7EF91F0F9EF91F024EF7E
:1023F00092F01E501F10D8A400EF92F002EF92F05E
:10240000BCEF91F023BE0FEF92F0235006E12204BF
:10241000D8B00DEF92F00FEF92F0BCEF91F025BE27
:102420001AEF92F0255008E12404D8A01AEF92F098
:102430001CEF92F024EF92F00501D7B322EF92F057
:1024400024EF92F0BCEF91F02650D8B42AEF92F02E
:102450002CEF92F037EF92F02706D8A02806330E23
:102460002724D96E060E2820DA6E26C5DFF41CC597
:1024700013F51DC514F5330E2724156E060E2820FE
:10248000166E24C517F525C518F5C9EC9FF0120086
:10249000096E0950D8B44FEF92F051EF92F073EFFC
:1024A00092F004BE58EF92F056EF92F073EF92F074
:1024B00001C505F502C506F503C507F504C508F510
:1024C000051E061E071E081E052A000E06220722EC
:1024D000082205C50BF506C50CF507C50DF508C5A1
:1024E0000EF57BEF92F001C50BF502C50CF503C5A7
:1024F0000DF504C50EF50150021003100410D8A408
:1025000084EF92F086EF92F090EF92F0000E016E61
:10251000000E026E000E036E000E046E21EF93F0AB
:10252000960E0A6E9AEF92F00A2AD8900E320D3269
:102530000C320B32000E0B14056E000E0C14066EDE
:10254000000E0D14076EFE0E0E14086E05500610D8
:1025500007100810D8A4AFEF92F0B1EF92F094EF0B
:1025600092F0BFEF92F00A2A010E0B26000E0C2209
:102570000D220E22D8900E320D320C320B32000E8C
:102580000B14056E000E0C14066E000E0D14076E73
:10259000FF0E0E14086E0550061007100810D8A480
:1025A000D4EF92F0D6EF92F0B3EF92F0DEEF92F02C
:1025B0000A06D8900B360C360D360E360DBEE3EFFC
:1025C00092F0E5EF92F0EDEF92F0020E0A60EBEF81
:1025D00092F0EDEF92F0D8EF92F00AB0F2EF92F0B5
:1025E000F4EF92F0F5EF92F00D9ED8900A320AC502
:1025F00005F5066A076A086A05C508F5076A066AE6
:10260000056A05500B1206500C1207500D120850A7
:102610000E120950D8B40FEF93F011EF93F019EFA9
:1026200093F004BE18EF93F016EF93F019EF93F0C8
:102630000E8E0BC501F50CC502F50DC503F50EC5D3
:1026400004F5120079C581F57AC582F5050181513D
:102650008211D8A42EEF93F030EF93F034EF93F083
:10266000AF0E816FFF0E826F000E846F000E836FBE
:102670003DEF93F00501834B842B835181257B6FC4
:10268000845182217C6F7BC5F6F47CC5F7F4000E83
:10269000F86E250EF76403D00800F55005D0F6C497
:1026A000E9F4F7C4EAF4EF500009D8A45AEF93F024
:1026B0005CEF93F03AEF93F00501D0BF62EF93F037
:1026C00064EF93F077EF93F08351CF5DD051800AA0
:1026D0007B6F8451800A7B59D8B071EF93F073EF10
:1026E00093F077EF93F0CFC583F5D0C584F583C51C
:1026F0007DF584C57EF5CDC57FF5CEC580F5D7B116
:1027000084EF93F086EF93F0C5EF93F095EF93F09D
:10271000000E6F6F200E6E6F77C570F578C571F57E
:10272000FCEC9AF00501834B842B7F51835D84512F
:10273000800A7B6F8051800A7B59D8A0A2EF93F06A
:10274000A4EF93F088EF93F0C5EF93F081C5F6F412
:1027500082C5F7F4000EF86E250EF76403D008006A
:10276000F55005D0F6C4E9F4F7C4EAF4EF500501DA
:102770007B6F7B516E6F6F6B77C570F578C571F5A8
:10278000FCEC9AF00501814B822B7D07D8A07E07D7
:102790007D2906E17E29D8A4D0EF93F0D2EF93F003
:1027A000A6EF93F0D7A1D7EF93F0D9EF93F0F7EF1F
:1027B00093F0E8EF93F0000E6F6F200E6E6F77C509
:1027C00070F578C571F5FCEC9AF00501834B842B0C
:1027D0007F51835D8451800A7B6F8051800A7B59D1
:1027E000D8A0F5EF93F0F7EF93F0DBEF93F0120042
:1027F0000EC516F50FC517F516501710D8A403EF20
:1028000094F005EF94F009EF94F0AF0E166EFF0E02
:10281000176E000E196E000E186E11EF94F0184A24
:10282000192A18501624106E19501720116E10C551
:10283000F6F411C5F7F4000EF86E250EF76403D018
:102840000800F55005D0F6C4E9F4F7C4EAF4EF50F7
:102850000009D8A42EEF94F030EF94F00FEF94F02D
:102860000501D0BF36EF94F038EF94F04BEF94F0C1
:102870001850CF5DD051800A106E1950800A105840
:10288000D8B045EF94F047EF94F04BEF94F0CFC5FC
:1028900018F5D0C519F518C512F519C513F5CDC52C
:1028A00014F5CEC515F5D7B158EF94F05AEF94F062
:1028B00096EF94F068EF94F0000E046E200E036E15
:1028C0000CC505F50DC506F52EEC9CF0184A192A25
:1028D0001450185C1950800A106E1550800A105858
:1028E000D8A075EF94F077EF94F05CEF94F096EF4A
:1028F00094F016C5F6F417C5F7F4000EF86E250E21
:10290000F76403D00800F55005D0F6C4E9F4F7C425
:10291000EAF4EF50106E1050036E046A0CC505F512
:102920000DC506F52EEC9CF0164A172A1206D8A003
:102930001306122806E11328D8A4A1EF94F0A3EF00
:1029400094F079EF94F00501D7A1A9EF94F0ABEFE3
:1029500094F0C8EF94F0B9EF94F0000E046E200EDE
:10296000036E0CC505F50DC506F52EEC9CF0184A56
:10297000192A1450185C1950800A106E1550800ADC
:102980001058D8A0C6EF94F0C8EF94F0ADEF94F0D3
:1029900012000501D0BFCFEF94F0D1EF94F0D2EF49
:1029A00094F0D793D0BFD9EF94F0D7EF94F0DFEF46
:1029B00094F0000E8F6F010E8E6FE3EF94F0CFC591
:1029C0008EF5D0C58FF5CDC590F5CEC591F5000E2D
:1029D000946F1F0E936F0601526B21EF95F09307D2
:1029E000D8A0940789510F0B926F0A0E9261FBEFEA
:1029F00094F0FDEF94F001EF95F0300E922703EF85
:102A000095F0370E9227330E9325D96E060E94213A
:102A1000DA6E92C5DFF48E07D8A08F079007D8A092
:102A2000910789C58BF58AC58CF5040E8D6FD890FA
:102A30008C338B338D2F17EF95F08BC589F58CC5B3
:102A40008AF5050194BF2EEF95F0945109E1020E2D
:102A5000935DD8A02EEF95F030EF95F05AEF95F0FA
:102A600089518A11D8A437EF95F039EF95F0EFEF3F
:102A700094F08FBF46EF95F08F5106E18E05D8B0E8
:102A800044EF95F046EF95F0EFEF94F091BF51EFE2
:102A900095F0915108E19005D8A051EF95F053EFD2
:102AA00095F05AEF95F0D7B358EF95F05AEF95F0AF
:102AB000EFEF94F087C57EF588C57FF5330E93253B
:102AC000806F060E9421816F90C582F591C583F5C4
:102AD00077EC9FF012000501D0BF71EF95F073EF16
:102AE00095F074EF95F0D793D0BF7BEF95F079EF29
:102AF00095F081EF95F0000E246E010E236E85EFA8
:102B000095F0CFC523F5D0C524F5CDC525F5CEC5A7
:102B100026F5000E296E1F0E286E0601526BC3EFBC
:102B200095F02806D8A029061E500F0B276E0A0E16
:102B300027609DEF95F09FEF95F0A3EF95F0300E95
:102B40002726A5EF95F0370E2726330E2824D96EB9
:102B5000060E2920DA6E27C5DFF42306D8A0240646
:102B60002506D8A026061EC520F51FC521F5040E92
:102B7000226ED89021322032222EB9EF95F020C556
:102B80001EF521C51FF529BECFEF95F0295009E1AB
:102B9000020E285CD8A0CFEF95F0D1EF95F0FCEFB6
:102BA00095F01E501F10D8A4D8EF95F0DAEF95F0ED
:102BB00091EF95F024BEE7EF95F0245006E1230451
:102BC000D8B0E5EF95F0E7EF95F091EF95F026BEE0
:102BD000F2EF95F0265008E12504D8A0F2EF95F029
:102BE000F4EF95F0FCEF95F00501D7B3FAEF95F00F
:102BF000FCEF95F091EF95F01CC513F51DC514F58C
:102C0000330E2824156E060E2920166E25C517F5DD
:102C100026C518F5C9EC9FF01200070E53ECA7F07B
:102C20005E6E5EB016EF96F018EF96F01EEF96F01F
:102C3000EF0E546EFF0E556E22EF96F0E50E546EB9
:102C4000FF0E556EA40E426EFC0E436E000E456ED6
:102C5000070E446E5EC546F5476A5EC552F5523AA8
:102C60000F0E5216070E52165250486E496A5EC534
:102C700053F5D8905332070E531653504A6E4B6A91
:102C800054C54CF555C54DF5DAECA6F0170E53ECCE
:102C9000A7F05E6E5EB04FEF96F051EF96F057EFF3
:102CA00096F0EF0E566EFF0E576E5BEF96F0E50E48
:102CB000566EFF0E576E5EB260EF96F062EF96F0C2
:102CC00068EF96F0EF0E586EFF0E596E6CEF96F0AF
:102CD000E50E586EFF0E596E5EB871EF96F073EF09
:102CE00096F079EF96F0EF0E5A6EFF0E5B6E7DEF69
:102CF00096F0E50E5A6EFF0E5B6E5EBA82EF96F0AE
:102D000084EF96F08AEF96F0EF0E5C6EFF0E5D6E2C
:102D10008EEF96F0E50E5C6EFF0E5D6EC00E426E9D
:102D2000FB0E436E000E456E170E446E5EC546F5F3
:102D3000476A5CC548F55DC549F55AC54AF55BC5A6
:102D40004BF558C54CF559C54DF556C54EF557C50B
:102D50004FF5DAECA6F012000501D0BFB2EF96F005
:102D6000B4EF96F0B5EF96F0D793D0BFBCEF96F0E6
:102D7000BAEF96F0C2EF96F0000E8C6F010E8B6FDB
:102D8000C6EF96F0CFC58BF5D0C58CF5CDC58DF5CA
:102D9000CEC58EF5000E906F1F0E8F6F0601526B21
:102DA000FDEF96F08F07D8A09007330E8F25D96ED0
:102DB000060E9021DA6E89C56CF58AC56DF5000E98
:102DC0006F6F0A0E6E6F4BECA2F005016C51300F65
:102DD000DF6E8B07D8A08C078D07D8A08E0789C51A
:102DE0006CF58AC56DF5000E6F6F0A0E6E6F2CECD8
:102DF000A1F06CC589F56DC58AF505018F5190115B
:102E0000D8B405EF97F007EF97F031EF97F08951BD
:102E10008A11D8A40EEF97F010EF97F0D2EF96F04A
:102E20008CBF1DEF97F08C5106E18B05D8B01BEFDE
:102E300097F01DEF97F0D2EF96F08EBF28EF97F046
:102E40008E5108E18D05D8A028EF97F02AEF97F072
:102E500031EF97F0D7B32FEF97F031EF97F0D2EF34
:102E600096F087C57EF588C57FF5330E8F25806F78
:102E7000060E9021816F8DC582F58EC583F577ECA6
:102E80009FF012000501D0BF48EF97F04AEF97F08E
:102E90004BEF97F0D793D0BF52EF97F050EF97F0EA
:102EA00058EF97F0000E216E010E206E5CEF97F048
:102EB000CFC520F5D0C521F5CDC522F5CEC523F56A
:102EC000000E256E1F0E246E0601526B92EF97F0D6
:102ED0002406D8A02506330E2424D96E060E2520FC
:102EE000DA6E1EC501F51FC502F5000E046E0A0E4E
:102EF000036EB1ECA2F00150300FDF6E2006D8A0B7
:102F000021062206D8A023061EC501F51FC502F51D
:102F1000000E046E0A0E036EA1ECA1F001C51EF5B1
:102F200002C51FF524502510D8B499EF97F09BEFF8
:102F300097F0C6EF97F01E501F10D8A4A2EF97F09D
:102F4000A4EF97F068EF97F021BEB1EF97F0215012
:102F500006E12004D8B0AFEF97F0B1EF97F068EF3B
:102F600097F023BEBCEF97F0235008E12204D8A0CD
:102F7000BCEF97F0BEEF97F0C6EF97F00501D7B31F
:102F8000C4EF97F0C6EF97F068EF97F01CC513F504
:102F90001DC514F5330E2424156E060E2520166E5D
:102FA00022C517F523C518F5C9EC9FF012000501DD
:102FB000953596359C6F9C51D8A4E1EF97F0E3EFDF
:102FC00097F0EDEF97F0000E936F000E946F000EE8
:102FD000956F000E966F5AEF98F093C597F594C5CC
:102FE00098F595C599F596C59AF5200EFDEF97F0E1
:102FF000D8909A33993398339733E82EF8EF97F0B7
:1030000097519B6F958FFF0E9317FF0E9417FF0E2E
:103010009517000E9617960E9C5F9CBF14EF98F0C4
:1030200012EF98F02AEF98F09C51800A970FD8B0D1
:103030001CEF98F01EEF98F020EF98F0E3EF97F078
:10304000D89096339533943393339C3F20EF98F088
:1030500042EF98F01F0E9C6530EF98F032EF98F039
:103060003AEF98F0E3EF97F0D8909337943795378D
:1030700096379C079C51D8A440EF98F042EF98F007
:1030800034EF98F09B51D8B448EF98F04AEF98F09D
:1030900052EF98F0961F951F941F936D000E942386
:1030A0009523962393C593F594C594F595C595F509
:1030B00096C596F512002A342B34316E3150D8A4BF
:1030C00064EF98F066EF98F070EF98F0000E286EBD
:1030D000000E296E000E2A6E000E2B6EDDEF98F0AA
:1030E00028C52CF529C52DF52AC52EF52BC52FF59C
:1030F000200E80EF98F0D8902F322E322D322C32C5
:10310000E82E7BEF98F02C50306E2A8EFF0E28169A
:10311000FF0E2916FF0E2A16000E2B16960E315E94
:1031200031BE97EF98F095EF98F0ADEF98F03150F1
:10313000800A970FD8B09FEF98F0A1EF98F0A3EF17
:1031400098F066EF98F0D8902B322A322932283244
:10315000313EA3EF98F0C5EF98F01F0E3164B3EF46
:1031600098F0B5EF98F0BDEF98F066EF98F0D89032
:10317000283629362A362B3631063150D8A4C3EFEB
:1031800098F0C5EF98F0B7EF98F03050D8B4CBEF87
:1031900098F0CDEF98F0D5EF98F02B1E2A1E291E3F
:1031A000286C000E29222A222B2228C528F529C5A1
:1031B00029F52AC52AF52BC52BF512000501746FD8
:1031C000010E0501766F000EC4EC99F0C992C99406
:1031D000C182C194350EE82EFED70000C1940A0EBC
:1031E00005016E6F000E64ECA0F0010E05016E6F1C
:1031F000010E64ECA0F0030E05016E6F020E64EC8C
:10320000A0F0030E05016E6F030E64ECA0F0B20E89
:1032100005016E6F060E6F6F050E706F0A0EB9EC2A
:10322000A3F0AD0E05016E6F060E6F6F050E706F89
:10323000100EB9ECA3F0030E05016E6F040E64ECE2
:10324000A0F00501735196ECA7F0060E05016E6F14
:10325000060E64ECA0F0200E05016E6F110E64ECFA
:10326000A0F0350EE82EFED700000501745111ECD8
:10327000A3F0350EE82EFED70000E3ECA2F0000E1E
:1032800034ECA7F00501756F75A749EF99F04BEF86
:1032900099F04CEF99F0766BE40E00D000D0E82E58
:1032A000FCD700D000D005017651120076ECA6F0D4
:1032B000D68EE1ECA5F0000EC4EC99F0670E050186
:1032C000736F020EDEEC98F00501DA6FDA51D8A4C4
:1032D0006CEF99F06EEF99F08FEF99F07E0EAD6F75
:1032E000FB0EAE6F8BECA6F0280E0501AD6FFD0E48
:1032F000AE6F8BECA6F000EC80F0D00E0501C36F32
:10330000C90EE82EFED7C32FFCD700D07E0E0501D4
:10331000AD6FFB0EAE6F8BECA6F0A3EF99F07E0EB7
:10332000AD6FFB0EAE6F8BECA6F0490E0501AD6FD5
:10333000FD0EAE6F8BECA6F07E0E0501AD6FFB0EA1
:10334000AE6F8BECA6F060ECA7F00009D8A4ABEF51
:1033500099F0ADEF99F0A3EF99F0CD0E05019F6FB5
:10336000CC0EA06FCC0EA16F3D0EA26F660EA36FA8
:10337000660EA46F260EA56F3F0EA66F14EC9EF08E
:10338000A3EF99F00DEF00F005016C6F000184BF11
:10339000CCEF99F0CEEF99F02DEF9AF005016C513A
:1033A000050D6F0EF324F66EFB0EF420F76EF86A2F
:1033B000000EF8220800F5C484F06C51050D010ED2
:1033C000F326000EF4226F0EF324F66EFB0EF420AB
:1033D000F76EF86A000EF8220800F5C485F06C510B
:1033E000050D020EF326000EF4226F0EF324F66E86
:1033F000FB0EF420F76EF86A000EF8220800F55074
:10340000FC0B0001866F05016C51050D030EF326C0
:10341000000EF4226F0EF324F66EFB0EF420F76E0E
:10342000F86A000EF8220800F5C489F06C51050D09
:10343000040EF326000EF4226F0EF324F66EFB0E3C
:10344000F420F76EF86A000EF8220800F5C48CF03C
:10345000C8960001848F2DEF9AF01200000E05012E
:10346000746F000E736F6CC5D9F46DC5DAF4DEC4E9
:10347000F6F4DDC4F7F4000EF86E0800F5502A0AE1
:10348000D8A445EF9AF047EF9AF07AEF9AF06CC51E
:10349000D9F46DC5DAF4DE2A000EDD226EC5D9F44A
:1034A0006FC5DAF4DFC470F5020EDE26DFC471F5F5
:1034B000000EDD2270C5D9F471C5DAF4DEC473F5EF
:1034C000DDC474F590EF9AF00A0E7303F3C470F53F
:1034D000F4C471F57403F350712772517025736F42
:1034E000000E7121746F6CC5D9F46DC5DAF4DE2A53
:1034F000000EDD226CC5D9F46DC5DAF4DEC4F6F435
:10350000DDC4F7F4000EF86E0800F550D00F726FAE
:10351000090E72658EEF9AF090EF9AF064EF9AF0D0
:1035200073C56CF574C56DF512000501CD51CE1152
:10353000D8A49DEF9AF09FEF9AF0A5EF9AF0CDC531
:103540007DF5CEC57EF5ABEF9AF0FF0ECD257D6FF4
:10355000FF0ECE217E6FD7A1B0EF9AF0B2EF9AF0B6
:10356000BBEF9AF079C56EF56F6B77C570F578C5CE
:1035700071F5FCEC9AF005017EBFC1EF9AF0C3EF44
:103580009AF0C5EF9AF0C9EF9AF0000E7E6F000E28
:103590007D6F000E7C6F000E7B6FDCEF9AF0000EEB
:1035A0006F6F200E6E6F77C570F578C571F5FCEC06
:1035B0009AF005017B4B7C2B7D517B5D7C51800A11
:1035C0007A6F7E51800A7A59D8A0E9EF9AF0EBEF32
:1035D0009AF0CFEF9AF0D7B1F0EF9AF0F2EF9AF0BD
:1035E000FBEF9AF079C56EF56F6B77C570F578C50E
:1035F00071F5FCEC9AF01200050170517111D8B40C
:1036000004EF9BF006EF9BF00FEF9BF070517111F0
:10361000D8A40DEF9BF00FEF9BF014EF9BF06E51D1
:1036200023ECA7F061EF9BF020EE09F07051D92652
:103630007151DA22DE50DE10D8B421EF9BF023EF77
:103640009BF03EEF9BF020EE09F07051D9267151AE
:10365000DA2210EE02F07051E1267151E222DE50C2
:10366000E65CE650800A766FDE50800A7659D8B064
:103670003CEF9BF03EEF9BF061EF9BF020EE02F001
:103680007051D9267151DA22DEC472F5DDC473F5AA
:1036900070C5D9F471C5DAF4DEC474F5DDC475F50E
:1036A00072517425D96E73517521DA6E6EC5DFF4CF
:1036B00020EE02F07051D9267151DA22DE2A000E76
:1036C000DD221200000E096E000E086E01C5D9F44D
:1036D00002C5DAF4DEC4F6F4DDC4F7F4000EF86EC9
:1036E0000800F5502A0AD8A478EF9BF07AEF9BF0F7
:1036F000ADEF9BF001C5D9F402C5DAF4DE2A000E65
:10370000DD2203C5D9F404C5DAF4DFC405F5020EE1
:10371000DE26DFC406F5000EDD2205C5D9F406C598
:10372000DAF4DEC408F5DDC409F5C3EF9BF00A0E38
:103730000802F3C405F5F4C406F50902F3500626A1
:1037400007500524086E000E0620096E01C5D9F445
:1037500002C5DAF4DE2A000EDD2201C5D9F402C565
:10376000DAF4DEC4F6F4DDC4F7F4000EF86E0800F7
:10377000F550D00F076E090E0764C1EF9BF0C3EF41
:103780009BF097EF9BF008C501F509C502F5120003
:103790000501CD51CE11D8A4D0EF9BF0D2EF9BF014
:1037A000D8EF9BF0CDC512F5CEC513F5DEEF9BF03B
:1037B000FF0ECD25126EFF0ECE21136ED7A1E3EFC3
:1037C0009BF0E5EF9BF0EEEF9BF00EC503F5046A6E
:1037D0000CC505F50DC506F52EEC9CF013BEF3EFF8
:1037E0009BF0F5EF9BF0F7EF9BF0FBEF9BF0000EEB
:1037F000136E000E126E000E116E000E106E0DEFA5
:103800009CF0000E046E200E036E0CC505F50DC570
:1038100006F52EEC9CF0104A112A1250105C115043
:10382000800A0F6E1350800A0F58D8A01AEF9CF030
:103830001CEF9CF001EF9CF00501D7B122EF9CF04A
:1038400024EF9CF02DEF9CF00EC503F5046A0CC527
:1038500005F50DC506F52EEC9CF01200055006107E
:10386000D8B435EF9CF037EF9CF040EF9CF005505A
:103870000610D8A43EEF9CF040EF9CF045EF9CF082
:10388000035044ECA7F092EF9CF020EE09F00550B5
:10389000D9260650DA22DE50DE10D8B452EF9CF062
:1038A00054EF9CF06FEF9CF020EE09F00550D92604
:1038B0000650DA2210EE02F00550E1260650E22210
:1038C000DE50E65CE650800A0B6EDE50800A0B5834
:1038D000D8B06DEF9CF06FEF9CF092EF9CF020EE73
:1038E00002F00550D9260650DA22DEC407F5DDC401
:1038F00008F505C5D9F406C5DAF4DEC409F5DDC45A
:103900000AF507500924D96E08500A20DA6E03C55B
:10391000DFF420EE02F00550D9260650DA22DE2A26
:10392000000EDD2212000501716B6FBF9CEF9CF051
:103930009AEF9CF0A2EF9CF06E6D6F1FD8B06F2BCA
:10394000010E716F6DBFA9EF9CF0A7EF9CF0AFEF78
:103950009CF06C6D6D1FD8B06D2B010E711B000EAD
:10396000736F000E726F6E516F11D8B4BAEF9CF086
:10397000BCEF9CF0E4EF9CF0010E706FC4EF9CF084
:10398000D8906E376F37702B6FAFC9EF9CF0CBEFCD
:103990009CF0C0EF9CF0D890723773376E516C5D1D
:1039A0006F516D59D8A0D7EF9CF0D9EF9CF0DEEFA6
:1039B0009CF06E516C5F6F516D5B7281D8906F336C
:1039C0006E33702FCBEF9CF07151D8B4EAEF9CF0BE
:1039D000ECEF9CF0F0EF9CF0726D731FD8B0732B7E
:1039E00072C56CF573C56DF51200FAC466F5FBC4BB
:1039F00067F5F6C468F5F7C469F5F8C46AF5F5C467
:103A00006BF5A4A006EF9DF008EF9DF013EF9DF07D
:103A1000B4A00DEF9DF00FEF9DF013EF9DF0F6ECCD
:103A2000A7F049EF9DF09FA418EF9DF01AEF9DF0CD
:103A300025EF9DF0AFA41FEF9DF021EF9DF025EF46
:103A40009DF00AECA8F049EF9DF0A0A02AEF9DF0B0
:103A50002CEF9DF037EF9DF0B0A031EF9DF033EFEC
:103A60009DF037EF9DF008ECA8F049EF9DF0A1AE76
:103A70003CEF9DF03EEF9DF049EF9DF0B1AE43EF7E
:103A80009DF045EF9DF049EF9DF0FCECA5F049EF6E
:103A90009DF06BC5F5F46AC5F8F469C5F7F468C51F
:103AA000F6F467C5FBF466C5FAF41100066A04BEB5
:103AB0005EEF9DF05CEF9DF064EF9DF0036C041EE3
:103AC000D8B0042A010E066E02BE6BEF9DF069EFBE
:103AD0009DF071EF9DF0016C021ED8B0022A010E1C
:103AE000061A000E086E000E076E03500410D8B4BC
:103AF0007CEF9DF07EEF9DF0A6EF9DF0010E056E30
:103B000086EF9DF0D89003360436052A04AE8BEF7D
:103B10009DF08DEF9DF082EF9DF0D890073608362E
:103B20000350015C04500258D8A099EF9DF09BEF20
:103B30009DF0A0EF9DF00350015E0450025A0780F3
:103B4000D89004320332052E8DEF9DF00650D8B484
:103B5000ACEF9DF0AEEF9DF0B2EF9DF0076C081E4C
:103B6000D8B0082A07C501F508C502F51200BE6ADB
:103B7000BF6AC06AC16AC26AC36A0401026B0A6B87
:103B8000126B1A6B226B2A6BC668EF0EC76ED90ECA
:103B9000C86EF90EC96E0F0ECA6EF60ECB6E0069B6
:103BA000EF0E086FC70E106FE90E186F070E206F2B
:103BB000F40E286F016B096B116B196B216B296B6C
:103BC00003690B6913691B69070E236F2B6904696D
:103BD0000C691469EF0E1C6F0F0E246F2C69020123
:103BE000896B886B876B866B290E726F140E6B6FF7
:103BF0001C0E3F6F200E296F320E166F180E126FBB
:103C0000190E136F130E6A6F310E146F0401056BDA
:103C1000066B076B0D6B0E6B0F6B156B166B176BD3
:103C2000256B266B276B120004ECA8F09FC57EF570
:103C3000A0C57FF5A1C580F5A2C581F5D3C56CF5FA
:103C4000D4C56DF505016E6B6F6B000EB5EC8FF092
:103C50006CC57AF56DC57BF56EC57CF56FC57DF5D8
:103C60004DEC8AF07AC593F57BC594F57CC595F546
:103C70007DC596F5D7EC97F093C59DF594C59EF557
:103C8000DCECA7F0A3C57EF5A4C57FF5A5C580F53E
:103C9000A6C581F5D3C56CF5D4C56DF505016E6B70
:103CA0006F6B000EB5EC8FF06CC57AF56DC57BF5CA
:103CB0006EC57CF56FC57DF54DEC8AF07AC593F540
:103CC0007BC594F57CC595F57DC596F5D7EC97F049
:103CD00093C59DF594C59EF5D6ECA7F0120006ECB1
:103CE000A8F034C513F535C514F536C515F537C537
:103CF00016F5D3C501F5D4C502F5036A046A000EB2
:103D000048EC92F001C50FF502C510F503C511F599
:103D100004C512F561EC8CF00FC528F510C529F526
:103D200011C52AF512C52BF55BEC98F028C532F5C4
:103D300029C533F5EDECA7F038C513F539C514F5F1
:103D40003AC515F53BC516F5D3C501F5D4C502F541
:103D5000036A046A000E48EC92F001C50FF502C533
:103D600010F503C511F504C512F561EC8CF00FC513
:103D700028F510C529F511C52AF512C52BF55BEC00
:103D800098F028C532F529C533F5E8ECA7F0120004
:103D90000501716B6DBFD1EF9EF0CFEF9EF0D7EFB5
:103DA0009EF06C6D6D1FD8B06D2B010E716F6FBFE3
:103DB000DEEF9EF0DCEF9EF0E2EF9EF06E6D6F1F87
:103DC000D8B06F2B6E516F11D8B4E9EF9EF0EBEFC6
:103DD0009EF00FEF9FF0010E706FF3EF9EF0D89002
:103DE0006E376F37702B6FAFF8EF9EF0FAEF9EF0E3
:103DF000EFEF9EF06E516C5D6F516D59D8A003EFDF
:103E00009FF005EF9FF009EF9FF06E516C5F6F51CF
:103E10006D5BD8906F336E33702FFAEF9EF0715157
:103E2000D8B415EF9FF017EF9FF01BEF9FF06C6D6C
:103E30006D1FD8B06D2B6CC56CF56DC56DF512009E
:103E4000066A02BE28EF9FF026EF9FF02EEF9FF04C
:103E5000016C021ED8B0022A010E066E04BE35EFB8
:103E60009FF033EF9FF039EF9FF0036C041ED8B042
:103E7000042A03500410D8B440EF9FF042EF9FF0A3
:103E800066EF9FF0010E056E4AEF9FF0D890033663
:103E90000436052A04AE4FEF9FF051EF9FF046EF36
:103EA0009FF00350015C04500258D8A05AEF9FF0D5
:103EB0005CEF9FF060EF9FF00350015E0450025AE8
:103EC000D89004320332052E51EF9FF00650D8B43B
:103ED0006CEF9FF06EEF9FF072EF9FF0016C021E8F
:103EE000D8B0022A01C501F502C502F5120005018C
:103EF000D7A17DEF9FF07FEF9FF089EF9FF080C506
:103F000077F581C578F57EC579F57FC57AF5C6EC7C
:103F1000A4F0050183BF91EF9FF08FEF9FF095EF25
:103F20009FF0000E836F000E826F000E866F000EF2
:103F3000856FA8EF9FF0000E6F6F200E6E6F7EC52D
:103F400070F57FC571F5FCEC9AF00501854B862B69
:103F50008251855D8651800A846F8351800A84591D
:103F6000D8A0B5EF9FF0B7EF9FF09BEF9FF0D7B1D0
:103F7000BCEF9FF0BEEF9FF0C8EF9FF080C577F5D4
:103F800081C578F57EC579F57FC57AF5C6ECA4F0D4
:103F900012000501D7A1CFEF9FF0D1EF9FF0DBEF2B
:103FA0009FF015C50CF516C50DF513C50EF514C516
:103FB0000FF530ECA5F018BEE2EF9FF0E0EF9FF0B8
:103FC000E6EF9FF0000E186E000E176E000E1B6ECF
:103FD000000E1A6EF8EF9FF0000E046E200E036EB6
:103FE00013C505F514C506F52EEC9CF01A4A1B2ADC
:103FF00017501A5C1B50800A196E1850800A195805
:10400000D8A005EFA0F007EFA0F0ECEF9FF00501BE
:10401000D7B10DEFA0F00FEFA0F019EFA0F015C58C
:104020000CF516C50DF513C50EF514C50FF530ECDE
:10403000A5F01200020E67ECA3F060C503F561C5A0
:1040400004F5200E056EA00E0EECA5F0C184150E31
:104050005F6EC60EE82EFED75F2EFCD700D0C1944F
:10406000070E53ECA7F05F6E5FA039EFA0F03BEFB7
:10407000A0F03FEFA0F007ECA4F050EFA0F0070E87
:1040800053ECA7F05F6E5FAA48EFA0F04AEFA0F0F4
:1040900050EFA0F0E70E426EFD0E436EDAECA6F094
:1040A0005F0E426EFF0E436EDAECA6F00DEC96F05A
:1040B000C80E426EFF0E436EDAECA6F0700E036E71
:1040C000070EACECA0F0120005016F6F200E050189
:1040D0006F616DEFA0F06FEFA0F07BEFA0F0C192E9
:1040E0006F511F0B200971ECA5F005016E5171ECA9
:1040F000A5F0A6EFA0F06F5171ECA5F0E10E05015F
:104100006F19D8B486EFA0F088EFA0F0A6EFA0F06A
:10411000E20E6F19D8B48FEFA0F091EFA0F0A6EFE8
:10412000A0F0E30E6F19D8B498EFA0F09AEFA0F0CA
:10413000A6EFA0F06F29D8B4A0EFA0F0A2EFA0F0F6
:10414000A6EFA0F0C1926E5171ECA5F0C182350EC0
:10415000E82EFED700001200046E200E0460B3EFBC
:10416000A0F0B5EFA0F0C0EFA0F0C19204501F0B7B
:10417000200960ECA6F0035060ECA6F0EAEFA0F096
:10418000045060ECA6F0E10E0418D8B4CAEFA0F019
:10419000CCEFA0F0EAEFA0F0E20E0418D8B4D3EF11
:1041A000A0F0D5EFA0F0EAEFA0F0E30E0418D8B429
:1041B000DCEFA0F0DEEFA0F0EAEFA0F00428D8B426
:1041C000E4EFA0F0E6EFA0F0EAEFA0F0C192035018
:1041D00060ECA6F0C182350EE82EFED7000012007A
:1041E0000201A16BA26BA36BA46BA56BA66BA76B63
:1041F000A86BA96BAA6BB00EAB6F800EAC6F080EEC
:10420000AD6F820EAE6F060EAF6F2E0EB06FB16B3C
:10421000800EB26FB36B000E05016C6F000E6D6FF8
:10422000000E6E6F11ECA7F0000E05016C6F000E12
:104230006D6F000E6E6FFFECA6F0000E05016C6F47
:10424000000E6D6F000E6E6FEDECA6F0000E060115
:10425000326F000E316F1200000E0501726F000EFA
:10426000716F6E516F11D8B438EFA1F03AEFA1F031
:1042700062EFA1F0010E706F42EFA1F0D8906E379F
:104280006F37702B6FAF47EFA1F049EFA1F03EEF12
:10429000A1F0D890713772376E516C5D6F516D59C6
:1042A000D8A055EFA1F057EFA1F05CEFA1F06E514F
:1042B0006C5F6F516D5B7181D8906F336E33702F6F
:1042C00049EFA1F071C56CF572C56DF51200B19E94
:1042D0007AEFA1F074EC8EF0A0EFA1F052ECA5F013
:1042E000A0EFA1F014ECA2F0A0EFA1F08CECA7F0ED
:1042F000A0EFA1F00501D951646F656B6551000A0B
:10430000D8B485EFA1F0A0EFA1F06451000AD8B4B1
:10431000A0EFA1F0010AD8B46AEFA1F0030AD8B463
:104320006EEFA1F0010AD8B472EFA1F0070AD8B479
:1043300072EFA1F0010AD8B476EFA1F0A0EFA1F0DE
:104340001200000E066E000E056E03500410D8B465
:10435000ACEFA1F0AEEFA1F0D6EFA1F0010E076E29
:10436000B6EFA1F0D89003360436072A04AEBBEFAF
:10437000A1F0BDEFA1F0B2EFA1F0D890053606365E
:104380000350015C04500258D8A0C9EFA1F0CBEF54
:10439000A1F0D0EFA1F00350015E0450025A058055
:1043A000D89004320332072EBDEFA1F005C501F508
:1043B00006C502F51200606A040E616E626A6B0E39
:1043C000636E020E646E656A666A676A686A6A6A24
:1043D000360E6B6E010E6C6E360E6D6E010E6E6ECD
:1043E000B29CB29E67906792A29EA29C000E0501AD
:1043F0006C6F000E6D6F000E6E6FB3ECA7F0000EC9
:1044000005016C6F000E6D6F000E6E6FACECA7F0C7
:10441000000E05016C6F000E6D6F000E6E6FBAEC32
:10442000A7F0800E696E1200030E0501D919D8A4F9
:104430001CEFA2F01EEFA2F02CEFA2F0040E016E12
:104440000F0E026E040E036E790EB3ECA6F0040E8E
:104450000501D96F4AEFA2F0CD0E346ECC0E356E49
:10446000CC0E366E3D0E376E660E386E660E396EA9
:10447000260E3A6E3F0E3B6E6FEC9EF0050E050168
:10448000D96F040E016E0F0E026E040E036E3C0E09
:10449000B3ECA6F0120005016E516F11D8B453EFC2
:1044A000A2F055EFA2F079EFA2F0010E706F5DEF70
:1044B000A2F0D8906E376F37702B6FAF62EFA2F01B
:1044C00064EFA2F059EFA2F06E516C5D6F516D591F
:1044D000D8A06DEFA2F06FEFA2F073EFA2F06E51D3
:1044E0006C5F6F516D5BD8906F336E33702F64EFDC
:1044F000A2F06CC56CF56DC56DF512000301F39F5C
:10450000D96BDA6BDB6BDC6BDF6BE06BE56BE76B5E
:10451000EC6BEE6BEF6BD86BF06BF16BF26BF46BDB
:104520005B0EF56F100EF66FF76BF86B1F0EFA6FE0
:10453000030EF96F000E06012C6F000E2D6F000E9A
:104540002E6F000E296F000E2A6F000E2B6F0501D3
:10455000DB6BAF949F94B090A090840E0301F36F37
:10456000120003500410D8B4B8EFA2F0BAEFA2F0D2
:10457000DEEFA2F0010E056EC2EFA2F0D890033676
:104580000436052A04AEC7EFA2F0C9EFA2F0BEEFD1
:10459000A2F00350015C04500258D8A0D2EFA2F060
:1045A000D4EFA2F0D8EFA2F00350015E0450025AFB
:1045B000D89004320332052EC9EFA2F001C501F5EF
:1045C00002C502F51200C192700E05016E6F070E52
:1045D00064ECA0F0D00E0501706FC90EE82EFED776
:1045E000702FFCD700D0C182C192E10E71ECA5F012
:1045F000D00E0501706FC90EE82EFED7702FFCD7C4
:1046000000D0C182C192E20E71ECA5F0D00E05017E
:10461000706FC90EE82EFED7702FFCD700D0C18274
:1046200012000501726F25EFA3F00F0E6E6F000EE2
:1046300064ECA0F0C1843BEFA3F00E0E6E6F000E91
:1046400064ECA0F0C1943BEFA3F005017251706FD0
:10465000716B7151000AD8B430EFA3F03BEFA3F0B7
:104660007051010AD8B415EFA3F0030AD8B41DEFB6
:10467000A3F03BEFA3F01200A7C5ABF5A8C5ACF5BE
:1046800051EFA3F0A5C595F5A6C596F5AB0E0501AE
:10469000976F050E986FA9C599F5AAC59AF5B7EC5D
:1046A00085F0ABC5F6F4ACC5F7F4000EF86E080063
:1046B000F5500009D8A45FEFA3F061EFA3F042EF3B
:1046C000A3F0000E0501A66F000EA56F1200076E85
:1046D0007AEFA3F00F0E036E000EACECA0F0C184D5
:1046E0008FEFA3F00E0E036E000EACECA0F0C194A1
:1046F0008FEFA3F00750056E066A0650000AD8B483
:1047000084EFA3F08FEFA3F00550010AD8B46AEF4D
:10471000A3F0030AD8B472EFA3F08FEFA3F0120056
:104720003CC540F53DC541F5A4EFA3F03AC52AF5D7
:104730003BC52BF5400E2C6E050E2D6E3EC52EF59D
:104740003FC52FF504EC88F040C5F6F441C5F7F4F9
:10475000000EF86E0800F5500009D8A4B2EFA3F0DF
:10476000B4EFA3F096EFA3F0000E3B6E000E3A6E8E
:1047700012000501716FC19205017151200971ECA0
:10478000A5F00501726BD5EFA3F06EC5D9F46FC526
:10479000DAF4DF5071ECA5F005016E4B6F2B350E8E
:1047A000E82EFED700000501722B7051725DD8A073
:1047B000DCEFA3F0DEEFA3F0C5EFA3F0C18212009F
:1047C0000501716FC1920501715171ECA5F00501F0
:1047D000726BF7EFA3F0FF0E71ECA5F06EC5D9F484
:1047E0006FC5DAF4DF6E05016E4B6F2B722B7051C3
:1047F000725DD8A0FEEFA3F000EFA4F0EBEFA3F002
:104800006EC5D9F46FC5DAF4DF6AC1821200C192B5
:10481000700E036E070EACECA0F0D00E056ECA0E43
:10482000E82EFED7052EFCD7C182C192E10E60ECC6
:10483000A6F0D00E056ECA0EE82EFED7052EFCD7C8
:10484000C182C192E20E60ECA6F0D00E056ECA0ED7
:10485000E82EFED7052EFCD7C18212003C0EF66E64
:104860004F0EF76E010EF86E01EEA9F210EE0EF08B
:104870000900F5C4EEF4E550E150FAE101EE00F272
:10488000730EEE6AE806FDE101EEC4F1180EEE6A61
:10489000E806FDE10401080E5D6F000E5E6F000E7C
:1048A0005F6F000156EF99F003011E911F6B206BA3
:1048B000060E216FFE0E1D6F420E1C6F1D5105016D
:1048C0006C6F03011C510501D56F6CC5D6F5000E48
:1048D00006019D6F000E9E6F000E9F6F000E9A6F77
:1048E000000E9B6F000E9C6FB198B19A050E0301EC
:1048F0001E6F1200460E4C6E050E4D6E42C54EF5F3
:1049000043C54FF5000E516E000E506E000E586EEE
:10491000000E576E4E0E3A6E050E3B6E44C53CF5CA
:1049200045C53DF54C0E3E6E050E3F6E90ECA3F076
:1049300050504224D96E51504320DA6EDF6A120083
:104940000501D951D8B4A7EFA4F0A9EFA4F0ACEFBA
:10495000A4F0B490C5EFA4F0FEECA7F00501D82BAD
:104960004E0E426EFF0E436ED8C544F5456ADAEC32
:10497000A6F0010E0501D96F040E016E0F0E026E36
:10498000040E036E720EB3ECA6F01200000E0501C9
:104990007D6F000E7C6FD9EFA4F07BC56EF56F6B59
:1049A00079C570F57AC571F5FCEC9AF005017C4B80
:1049B0007D2B7C517725D96E7D517821DA6EDF50C1
:1049C0007B6F7B51D8A4E7EFA4F0E9EFA4F0CDEF23
:1049D000A4F01200D69AAF90D680000E05016C6F3D
:1049E000000E6D6F000E6E6FCFECA7F0B490D692F4
:1049F0001A0E05016C6F500E6D6F010E6E6FC8ECD4
:104A0000A7F0A480B890D684000E05016C6F000E4C
:104A10006D6F000E6E6FC1ECA7F01200066EC192B2
:104A20000650200960ECA6F0076A25EFA5F003C543
:104A3000D9F404C5DAF4DF5060ECA6F0034A042A86
:104A4000350EE82EFED70000072A0550075CD8A0D7
:104A50002CEFA5F02EEFA5F017EFA5F0C182120004
:104A6000000E126E000E116E41EFA5F010C503F599
:104A7000046A0EC505F50FC506F52EEC9CF0114A2B
:104A8000122A11500C24D96E12500D20DA6EDF500C
:104A9000106E1050D8A44FEFA5F051EFA5F036EFEF
:104AA000A5F012007F0E346E6A0E356EBC0E366EA7
:104AB0003C0E376E000E386E000E396E000E3A6EE8
:104AC000000E3B6E6FEC9EF0030E0501D96F040ED5
:104AD000016E0F0E026E040E036EF20EB3ECA6F022
:104AE0001200D7AE76EFA5F060EFA6F005016C6F6F
:104AF0000001878586510309866F836B010E826FE3
:104B00006CC581F0B1A087EFA5F089EFA5F082EF29
:104B1000A5F080C06DF505016D511200D7AE93EF81
:104B2000A5F09FEFA6F005016C6B0201B0AB9BEF07
:104B3000A5F09DEFA5F0A7EFA5F0ABABA2EFA5F018
:104B4000A4EFA5F0A7EFA5F0010E05016C6F05011C
:104B50006C51120001C507F502C508F5B8EFA5F0C4
:104B600007C5D9F408C5DAF403C5DFF4074A082AF3
:104B70000506D8A00606052806E10628D8A4C3EF36
:104B8000A5F0C5EFA5F0B0EFA5F01200050173BFC9
:104B9000CCEFA5F0CEEFA5F0D4EFA5F072C572F57D
:104BA00073C573F5E0EFA5F072C574F573C575F5BF
:104BB000741F751F744B752B74C572F575C573F52D
:104BC0001200645005016F6F6350D36F6FC5D4F549
:104BD000D96BD86B400E6C6F490E6D6F010E6E6F06
:104BE000C8ECA7F0CE0E05016C6F420E6D6F010E82
:104BF0006E6FA5ECA7F0120006019751981199115C
:104C0000D8B405EFA6F007EFA6F014EFA6F002D88F
:104C100014EFA6F00500FA6E9751FD6E9851FE6EE6
:104C20009951FF6EFA501200B19E120008BE1BEFA0
:104C3000A6F01DEFA6F023EFA6F007C507F508C5FF
:104C400008F52FEFA6F007C509F508C50AF5091EF6
:104C50000A1E094A0A2A09C507F50AC508F51200FD
:104C60000501C751C811C911D8B439EFA6F03BEFFF
:104C7000A6F048EFA6F002D848EFA6F00500FA6EBD
:104C8000C751FD6EC851FE6EC951FF6EFA50120039
:104C90001200056E05C5ECF30301F39DF381F3B13A
:104CA00054EFA6F056EFA6F04FEFA6F0EB51046ECE
:104CB000036AEA510324016E000E0420026E120002
:104CC000016E0001878586510309866F836B010E93
:104CD000826F01C581F0B1A070EFA6F072EFA6F06F
:104CE0006BEFA6F080C002F50250120082ECA7F034
:104CF000B7EC9DF07EECA2F0C7ECA6F054ECA4F06B
:104D0000DBECA1F06CECA7F0F0ECA0F0E2ECA7F08B
:104D1000EAECA4F01200AF0E0501BB6F050EBC6FEC
:104D2000000EA56F000EA66FADC5A7F5AEC5A8F520
:104D3000BB0EA96F050EAA6F3CECA3F01200016A2E
:104D40000201B0ABA6EFA6F0A8EFA6F0B1EFA6F077
:104D5000ABABADEFA6F0AFEFA6F0B1EFA6F0010E52
:104D6000016E01501200046EFEECA7F004C519F3A9
:104D70000301186B0338E846E00B011010091B6FA4
:104D800002C51AF3B19EA18E01ECA8F012000E0E1E
:104D90000301196F186B940E1B6F180E0601976FA5
:104DA000500E986F010E996FB19EA18E8F0E030168
:104DB0001A6F1200440E506E050E516E000E3A6EC0
:104DC000000E3B6E42C53CF543C53DF5500E3E6EB0
:104DD000050E3F6E90ECA3F0120005016C516D11B1
:104DE0006E11D8B4F6EFA6F0F8EFA6F0FEEFA6F03D
:104DF0006CC520F66DC521F66EC522F612000501C0
:104E00006C516D116E11D8B408EFA7F00AEFA7F03E
:104E100010EFA7F06CC523F66DC524F66EC525F618
:104E2000120005016C516D116E11D8B41AEFA7F084
:104E30001CEFA7F022EFA7F06CC526F66DC527F68C
:104E40006EC528F6120005016D6F8EECA5F0000905
:104E5000D8B42DEFA7F02FEFA7F025EFA7F00501AD
:104E60006D5178ECA7F0120005016E6FC19205013B
:104E70006E511F0B71ECA5F0FF0E71ECA5F0050152
:104E80006F6FC1826F511200026E9FECA6F0000995
:104E9000D8B44DEFA7F04FEFA7F045EFA7F00250C1
:104EA000FAECA7F01200036EC19203501F0B60ECE6
:104EB000A6F0FF0E60ECA6F0046EC1820450120052
:104EC0000501D951D8A467EFA7F06AEFA7F0010E4A
:104ED0006BEFA7F0000E1200A194A192A190000127
:104EE000846B040E856F866B896B8C6B87851200D3
:104EF000D7AE7DEFA7F0FAEFA7F005016C6F6CC598
:104F0000A3F21200600E0001AD6FAF6BB36B080E21
:104F1000B16FB06BAC6B1200B490C80E426EFF0E56
:104F2000436EDAECA6F00501D96B12000501706F33
:104F300070C56EF5050E64ECA0F01200280A0A0098
:104F4000000000000100000000016CC597F66DC56F
:104F500098F66EC599F612006CC5A3F66DC5A4F659
:104F60006EC5A5F612006CC5A6F66DC5A7F66EC592
:104F7000A8F612006CC5A0F66DC5A1F66EC5A2F626
:104F800012006CC5C4F56DC5C5F56EC5C6F5120039
:104F90006CC5C7F56DC5C8F56EC5C9F512006CC501
:104FA000CAF56DC5CBF56EC5CCF512009DC56DF487
:104FB00005019E516E6E12009DC56BF405019E5158
:104FC0006C6E12000001786B796B300EF06E12007F
:104FD00032C56DF433506E6E120032C56BF433502F
:104FE0006C6E12003B0E0301EC6F1200B49030ECBB
:104FF000A6F01200016E01C5A3F2120003011A9F70
:10500000120003011A8F12006984120069841200D1
:0C501000B0901200AF94120012001200C9
:020000040030CA
:080000008FFFF7FF9FFFFFFFD8
:01000900FFF7
:00000001FF
