:040000000DEF00F010
:040008008DEF9CF0EC
:06001800FF0049EFA2F019
:10FAFC0000104101000000000000384E0100000021
:10FB0C00644A01000000000000000000000000003A
:10FB1C0000000000000000000000000000000000D9
:10FB2C00000000000000000000000000006A4D0111
:10FB3C00464D01224D01000000204E01000000B88E
:10FB4C0032010000000000000000000000002A4A02
:10FB5C000100000000000000000000000000000098
:10FB6C00000000020000FF0002C000FF0002400085
:10FB7C00000023232323232323232323232323238F
:10FB8C002323232323232323232323232323232339
:10FB9C002323232323232323232323232323232329
:10FBAC002323232323232323232323232323232319
:10FBBC00230D0A005B3078253032585D20307825D3
:10FBCC003032582054585F46554C4C3A25732054CB
:10FBDC00585F454D5054593A25732052585F46553D
:10FBEC004C4C3A25732052585F454D5054593A2588
:10FBFC00730D0A005B3078253032585D2030782543
:10FC0C00303258204152443D2558204152433D2525
:10FC1C00582028726574722E64656C61793D257567
:10FC2C0075732C20636F756E743D2575290D0A0054
:10FC3C005B3078253032585D2030782530325820B2
:10FC4C004D41534B3A25303358204352433A2530DB
:10FC5C003258205057523A2573204D4F44453A5054
:10FC6C0025730D0A005B3078253032585D203078D2
:10FC7C002530325820434F4E545F574156453A2554
:10FC8C007320504C4C5F4C4F434B3A2573204461CE
:10FC9C007461526174653D005B3078253032585D7B
:10FCAC0020307825303258204952513A253033587B
:10FCBC002052585F504950453A25752054585F469C
:10FCCC00554C4C3A25730D0A005B30782530325870
:10FCDC005D2030782530325820416464726573732E
:10FCEC002057696474683A202575206279746573AD
:10FCFC000D0A005B3078253032585D203078253085
:10FD0C00325820504C4F535F434E543D2575204183
:10FD1C0052435F434E543D25750D0A004E524632F8
:10FD2C00344C303120496E697469616C697A652094
:10FD3C007375636365737366756C0D0A0046616950
:10FD4C006C656420496E697469616C697A65204ED2
:10FD5C00524632344C30310D0A005B30782530324B
:10FD6C00585D203078253032582028252E337547A1
:10FD7C00487A290D0A005B3078253032585D2030E6
:10FD8C00782530325820454E5F5258414444523AFF
:10FD9C0020005B3078253032585D203078253032A9
:10FDAC0058205250443D25730D0A006974656D57F7
:10FDBC0065696768742069732052454A4543544508
:10FDCC00440A006974656D576569676874206973C6
:10FDDC002041434345505445440A0054582073690C
:10FDEC0064653A2041434B205265636569766564CE
:10FDFC00210A005B53656E645D20446174613A2096
:10FE0C0025642C25642C25640A005B30782530325F
:10FE1C00585D2052585F50575F50303D25750D0A84
:10FE2C00005B3078253032585D2052585F50575F58
:10FE3C0050313D25750D0A005B3078253032585D08
:10FE4C002052585F50575F50323D25750D0A005BAC
:10FE5C003078253032585D2052585F50575F503300
:10FE6C003D25750D0A005B3078253032585D2052E7
:10FE7C00585F50575F50343D25750D0A005B307844
:10FE8C00253032585D2052585F50575F50353D2514
:10FE9C00750D0A005B3078253032585D203078259E
:10FEAC0030325820454E41413A20005B30782530A5
:10FEBC0032585D2052585F414444525F50302022EA
:10FECC00005B3078253032585D2052585F414444F5
:10FEDC00525F50312022005B3078253032585D2043
:10FEEC0052585F414444525F50322022005B3078BC
:10FEFC00253032585D2052585F414444525F503394
:10FF0C002022005B3078253032585D2052585F41FA
:10FF1C004444525F50342022005B307825303258F4
:10FF2C005D2052585F414444525F50352022005BA3
:10FF3C003078253032585D2054585F41444452206B
:10FF4C0022006974656D4E756D6265723A20256488
:10FF5C000D0A0041667465722053656E64696E67A4
:10FF6C003A200A006974656D5765696768742025C5
:10FF7C00640D0A005B5025317525735D2573005B9C
:10FF8C003078253032585D200025642C25642C25D2
:10FF9C0064003235306B627073200052465F5057EC
:10FFAC00523D00286E756C6C2900314D62707320C7
:10FFBC0000324D62707320002563220D0A006442EA
:10FFCC006D0D0A003F3F3F20002D3132002D31389E
:10FFDC00003F3F3F004F464600594553002D360029
:10FFEC004F4E004E4F005258005458002B002D001D
:03FFFC00300000D2
:020000040001F9
:10000000000ED8ECA6F00601966F96B10AEF80F0CC
:100010000CEF80F012EF80F0F50E736FFF0E746F2F
:1000200016EF80F0F20E736FFF0E746F96B31BEF36
:1000300080F01DEF80F023EF80F0E10E756FFF0E72
:10004000766F27EF80F0EC0E756FFF0E766F3C0E2B
:100050000501AB6FFC0EAC6F000EAE6F000EAD6F06
:1000600096C6AFF5B06B96C6BBF5BB3B0F0EBB1784
:10007000BB51B16FB26B96C6BCF5D890BC33D8906B
:10008000BC33030EBC17BC51B36FB46B75C6B5F56A
:1000900076C6B6F573C6B7F574C6B8F52FECA6F0FC
:1000A000010ED8ECA6F00601966FA00E0501AB6F0D
:1000B000FE0EAC6F000EAE6F010EAD6F96C6AFF5C3
:1000C000B06B2FECA6F00601946B050E9419D8B412
:1000D0006CEF80F06EEF80F074EF80F0B50E776F0C
:1000E000FE0E786F78EF80F0C70E776FFF0E786F97
:1000F00094C6BBF5010E0501BC6FBB2B82EF80F0EF
:10010000D890BC37BB2F80EF80F00501BC510601B1
:1001100096150009D8A48FEF80F091EF80F097EF4B
:1001200080F0FA0E796FFF0E7A6F9BEF80F0F80E79
:10013000796FFF0E7A6F800E0501AB6FFF0EAC6F0B
:1001400094C6ADF5AE6B79C6AFF57AC6B0F577C695
:10015000B1F578C6B2F52FECA6F00601942B050E8A
:100160009465B5EF80F0B7EF80F065EF80F0020E98
:10017000D8ECA6F00601966F820E0501AB6FFD0E5E
:10018000AC6F000EAE6F020EAD6F96C6AFF5B06BE2
:100190002FECA6F00601946B050E9419D8B4D3EF9A
:1001A00080F0D5EF80F0DBEF80F0B50E7B6FFE0EB8
:1001B0007C6FDFEF80F0C70E7B6FFF0E7C6F94C605
:1001C000BBF5010E0501BC6FBB2BE9EF80F0D890A9
:1001D000BC37BB2FE7EF80F00501BC510601961537
:1001E0000009D8A4F6EF80F0F8EF80F0FEEF80F081
:1001F000FA0E7D6FFF0E7E6F02EF81F0F80E7D6FBD
:10020000FF0E7E6F800E0501AB6FFF0EAC6F94C6C4
:10021000ADF5AE6B7DC6AFF57EC6B0F57BC6B1F56C
:100220007CC6B2F52FECA6F00601942B050E946562
:100230001CEF81F01EEF81F0CCEF80F0030ED8ECC4
:10024000A6F00601966F9651030B020F956FD50E1F
:100250000501AB6FFC0EAC6F000EAE6F030EAD6F01
:1002600096C6AFF5B06B95C6B1F5B26B2FECA6F0A4
:10027000040ED8ECA6F00601966F000E0501AB6FD8
:10028000FC0EAC6F000EAE6F040EAD6F96C6AFF5F0
:10029000B06B96C6BBF5BB3B0F0EBB17BB51B16F26
:1002A000B26B96C6BCF50F0EBC17BC51B36FB46BE6
:1002B00096C6BDF5BD3B0F0EBD17BD51FA0DF3C47B
:1002C000BEF5F4C4BFF5FA0EBE25B56F000EBF2112
:1002D000B66F96C6C0F50F0EC017C051B76FB86B9A
:1002E0002FECA6F0050ED8ECA6F00601966F660E70
:1002F0000501AB6FFD0EAC6F000EAE6F050EAD6F5E
:1003000096C6AFF5B06B600E060196250501B16F7C
:10031000B26B090EB2232FECA6F0060ED8ECA6F0B5
:100320000601966F96BF97EF81F099EF81F09FEFEE
:1003300081F0E10E7F6FFF0E806FA3EF81F0EC0E76
:100340007F6FFF0E806F96BFA8EF81F0AAEF81F05C
:10035000B0EF81F0E10E816FFF0E826FB4EF81F09C
:10036000EC0E816FFF0E826F710E0501AB6FFC0EFC
:10037000AC6F000EAE6F060EAD6F96C6AFF5B06BEC
:1003800081C6B1F582C6B2F57FC6B3F580C6B4F5B5
:100390002FECA6F0ECEF81F0B60EAB6FFF0EAC6F5A
:1003A0002FECA6F00AEF82F0BD0EAB6FFF0EAC6F24
:1003B0002FECA6F00AEF82F09E0EAB6FFF0EAC6F33
:1003C0002FECA6F00AEF82F0D00EAB6FFF0EAC6FF1
:1003D0002FECA6F00AEF82F006019639E8461F0BD3
:1003E000050B0501BB6FBC6BBC51000AD8B4FBEF19
:1003F00081F0E4EF81F0BB51000AD8B4CCEF81F07A
:10040000010AD8B4D4EF81F0050AD8B4DCEF81F04A
:10041000E4EF81F0A70E0501AB6FFF0EAC6F2FEC80
:10042000A6F03BEF82F0D90EAB6FFF0EAC6F2FEC56
:10043000A6F05CEF82F0D50EAB6FFF0EAC6F2FEC29
:10044000A6F05CEF82F0E90EAB6FFF0EAC6F2FEC05
:10045000A6F05CEF82F0FC0EAB6FFF0EAC6F2FECE2
:10046000A6F05CEF82F0DD0EAB6FFF0EAC6F2FECF1
:10047000A6F05CEF82F00601D8909631030B0501DF
:10048000BB6FBC6BBC51000AD8B449EF82F033EFAC
:1004900082F0BB51000AD8B413EF82F0010AD8B43D
:1004A0001BEF82F0030AD8B423EF82F0010AD8B41C
:1004B0002BEF82F033EF82F0CA0E0501AB6FFF0E17
:1004C000AC6F2FECA6F0070ED8ECA6F00601966FE5
:1004D00096B16DEF82F06FEF82F075EF82F0EF0E64
:1004E000836FFF0E846F79EF82F0E50E836FFF0E4E
:1004F000846FA40E0501AB6FFC0EAC6F000EAE6FE7
:10050000070EAD6F96C6AFF5B06B96C6BBF5BB3B9D
:100510000F0EBB17070EBB17BB51B16FB26B96C660
:10052000BCF5D890BC33070EBC17BC51B36FB46B8D
:1005300083C6B5F584C6B6F52FECA6F0080ED8EC48
:10054000A6F00601966FFF0E0501AB6FFC0EAC6FB7
:10055000000EAE6F080EAD6F96C6AFF5B06B96C6C7
:10056000BBF5BB3B0F0EBB17BB51B16FB26B96C651
:10057000BCF50F0EBC17BC51B36FB46B2FECA6F0DB
:10058000090ED8ECA6F00601966F96B1CAEF82F07C
:10059000CCEF82F0D2EF82F0EF0E856FFF0E866F08
:1005A000D6EF82F0E50E856FFF0E866F9E0E050179
:1005B000AB6FFD0EAC6F000EAE6F090EAD6F96C641
:1005C000AFF5B06B85C6B1F586C6B2F52FECA6F0D7
:1005D0008F0E05016C6F060E6D6F95C66EF50A0ED7
:1005E000AAECA3F0B70E0501AB6FFE0EAC6F000EC8
:1005F000AE6F0A0EAD6F2FECA6F00601966B17EFEB
:1006000083F08B0E0501AB6FFF0EAC6F8F0E0601F2
:100610009625D96EDA6A060EDA22DF500501BB6F25
:10062000BB51AD6FAE6B2FECA6F00601962B95512A
:10063000965DD8A01EEF83F020EF83F001EF83F0EA
:10064000C60E0501AB6FFF0EAC6F2FECA6F08F0E40
:1006500005016C6F060E6D6F95C66EF50B0EAAEC5C
:10066000A3F0CD0E0501AB6FFE0EAC6F000EAE6FAA
:100670000B0EAD6F2FECA6F00601966B56EF83F0D4
:100680008B0E0501AB6FFF0EAC6F8F0E060196252A
:10069000D96EDA6A060EDA22DF500501BB6FBB5154
:1006A000AD6FAE6B2FECA6F00601962B9551965DC3
:1006B000D8A05DEF83F05FEF83F040EF83F0C60ECC
:1006C0000501AB6FFF0EAC6F2FECA6F0E30E05013A
:1006D000AB6FFE0EAC6F000EAE6F0C0EAD6F2FEC5D
:1006E000A6F00601966B8AEF83F08B0EAB6FFF0EC0
:1006F000AC6F8F0E06019625D96EDA6A060EDA22E5
:10070000DF500501BB6FBB51AD6FAE6B2FECA6F098
:100710000601962BFF0E95250501BB6FBC6BFF0EE6
:10072000BC23060196510501BD6FBE6BBB51BD5D7B
:10073000BE51800ABF6FBC51800ABF59D8A0A3EF39
:1007400083F0A5EF83F075EF83F00C0ED8ECA6F0E4
:100750000601966FC40E0501AB6FFF0EAC6F96C617
:10076000ADF5AE6B2FECA6F0F90E0501AB6FFE0EEA
:10077000AC6F000EAE6F0D0EAD6F2FECA6F0060144
:10078000966BD8EF83F08B0EAB6FFF0EAC6F8F0EB6
:1007900006019625D96EDA6A060EDA22DF500501C7
:1007A000BB6FBB51AD6FAE6B2FECA6F00601962B65
:1007B000FF0E95250501BB6FBC6BFF0EBC23060128
:1007C00096510501BD6FBE6BBB51BD5DBE51800A28
:1007D000BF6FBC51800ABF59D8A0F1EF83F0F3EF8F
:1007E00083F0C3EF83F00D0ED8ECA6F00601966FF0
:1007F000C40E0501AB6FFF0EAC6F96C6ADF5AE6BC8
:100800002FECA6F00F0E0501AB6FFF0EAC6F000EC4
:10081000AE6F0E0EAD6F2FECA6F00601966B26EFB5
:1008200084F08B0EAB6FFF0EAC6F8F0E060196251A
:10083000D96EDA6A060EDA22DF500501BB6FBB51B2
:10084000AD6FAE6B2FECA6F00601962BFF0E952533
:100850000501BB6FBC6BFF0EBC2306019651050161
:10086000BD6FBE6BBB51BD5DBE51800ABF6FBC5139
:10087000800ABF59D8A03FEF84F041EF84F011EF18
:1008800084F00E0ED8ECA6F00601966FC40E05019A
:10089000AB6FFF0EAC6F96C6ADF5AE6B2FECA6F04E
:1008A000250E0501AB6FFF0EAC6F000EAE6F0F0E85
:1008B000AD6F2FECA6F00601966B74EF84F08B0EF3
:1008C000AB6FFF0EAC6F8F0E06019625D96EDA6AFC
:1008D000060EDA22DF500501BB6FBB51AD6FAE6B68
:1008E0002FECA6F00601962BFF0E95250501BB6F98
:1008F000BC6BFF0EBC23060196510501BD6FBE6B9C
:10090000BB51BD5DBE51800ABF6FBC51800ABF594B
:10091000D8A08DEF84F08FEF84F05FEF84F00F0E9E
:10092000D8ECA6F00601966FC40E0501AB6FFF0E62
:10093000AC6F96C6ADF5AE6B2FECA6F08F0E050131
:100940006C6F060E6D6F95C66EF5100EAAECA3F0D7
:100950003B0E0501AB6FFF0EAC6F000EAE6F100EBD
:10096000AD6F2FECA6F00601966BCDEF84F08B0EE9
:100970000501AB6FFF0EAC6F8F0E06019625D96E89
:10098000DA6A060EDA22DF500501BB6FBB51AD6F8C
:10099000AE6B2FECA6F00601962B9551965DD8A074
:1009A000D4EF84F0D6EF84F0B7EF84F0C60E0501E3
:1009B000AB6FFF0EAC6F2FECA6F0110ED8ECA6F0CB
:1009C0000601966F160E0501AB6FFE0EAC6F000EA2
:1009D000AE6F110EAD6F96C6AFF5B06B2FECA6F0F3
:1009E000120ED8ECA6F00601966F2D0E0501AB6F26
:1009F000FE0EAC6F000EAE6F120EAD6F96C6AFF569
:100A0000B06B2FECA6F0130ED8ECA6F00601966F93
:100A1000440E0501AB6FFE0EAC6F000EAE6F130EF1
:100A2000AD6F96C6AFF5B06B2FECA6F0140ED8ECF8
:100A3000A6F00601966F5B0E0501AB6FFE0EAC6F64
:100A4000000EAE6F140EAD6F96C6AFF5B06B2FEC07
:100A5000A6F0150ED8ECA6F00601966F720E0501F1
:100A6000AB6FFE0EAC6F000EAE6F150EAD6F96C67F
:100A7000AFF5B06B2FECA6F0160ED8ECA6F0060181
:100A8000966F890E0501AB6FFE0EAC6F000EAE6F58
:100A9000160EAD6F96C6AFF5B06B2FECA6F0170E25
:100AA000D8ECA6F00601966F96B159EF85F05BEF92
:100AB00085F061EF85F0EF0E876FFF0E886F65EFB1
:100AC00085F0E50E876FFF0E886F96B36AEF85F0AD
:100AD0006CEF85F072EF85F0EF0E896FFF0E8A6F75
:100AE00076EF85F0E50E896FFF0E8A6F96B97BEF82
:100AF00085F07DEF85F083EF85F0EF0E8B6FFF0EB5
:100B00008C6F87EF85F0E50E8B6FFF0E8C6F96BBB9
:100B10008CEF85F08EEF85F094EF85F0EF0E8D6F02
:100B2000FF0E8E6F98EF85F0E50E8D6FFF0E8E6FC6
:100B3000C00E0501AB6FFB0EAC6F000EAE6F170E53
:100B4000AD6F96C6AFF5B06B8DC6B1F58EC6B2F57A
:100B50008BC6B3F58CC6B4F589C6B5F58AC6B6F5AD
:100B600087C6B7F588C6B8F52FECA6F0120095C574
:100B7000D9F496C5DAF4DEC4F6F4DDC4F7F4000E59
:100B8000F86E0800F550250AD8A4C9EF85F0CBEF20
:100B900085F0ECEF87F095C5D9F496C5DAF4DE2A36
:100BA000000EDD22000E0501CC6F000ECB6FCBC511
:100BB000D5F5CD69CE69A06BFEEF85F0D58395C5DF
:100BC000D9F496C5DAF4DE2A000EDD22FEEF85F0B8
:100BD000010EA06FFEEF85F095C5D9F496C5DAF445
:100BE000DEC4F6F4DDC4F7F4000EF86E0800F5502C
:100BF000300AD8B4DEEF85F0E8EF85F0A051D8B424
:100C000004EF86F006EF86F0ECEF85F095C56AF507
:100C100096C56BF597C56CF598C56DF5C6EC99F062
:100C20006AC5CBF56BC5CCF50501CCBF1CEF86F0D2
:100C30001AEF86F021EF86F0D581CB6DCC1FD8B0AE
:100C4000CC2B95C5D9F496C5DAF4DEC4F6F4DDC430
:100C5000F7F4000EF86E0800F5502E0AD8A433EF12
:100C600086F035EF86F04AEF86F095C5D9F496C543
:100C7000DAF4DE2A000EDD2295C56AF596C56BF51D
:100C800097C56CF598C56DF5C6EC99F06AC5CDF5BC
:100C90006BC5CEF595C5D9F496C5DAF4DEC4F6F485
:100CA000DDC4F7F4000EF86E0800F550630AD8A40E
:100CB0005CEF86F05EEF86F082EF86F095C5D9F4A2
:100CC00096C5DAF4DE2A000EDD2297C5D9F498C560
:100CD000DAF4DFC499F5020EDE26DFC49AF5000EC1
:100CE000DD2299C5D9F49AC5DAF4DF5005019B6F6E
:100CF00093C575F594C576F59BC577F52DEC9AF0FF
:100D000003EF88F095C5D9F496C5DAF4DEC4A1F5F1
:100D1000DDC4A2F5A1C5F6F4A2C5F7F4000EF86E85
:100D20000800F550640AD8B498EF86F09AEF86F080
:100D3000AAEF86F0A1C5F6F4A2C5F7F4000EF86E8E
:100D40000800F550690AD8A4A8EF86F0AAEF86F04B
:100D5000D9EF86F097C5D9F498C5DAF4DFC499F5D0
:100D6000020EDE26DFC49AF5000EDD2299C5D9F405
:100D70009AC5DAF4DEC49CF5DDC49DF5010E0501CB
:100D8000A125996F000EA2219A6F95C5D9F496C539
:100D9000DAF499C5DEF49AC5DDF493C585F594C5FA
:100DA00086F59CC587F59DC588F550EC8FF003EF5F
:100DB00088F0A1C5F6F4A2C5F7F4000EF86E08009D
:100DC000F550580AD8B4E7EF86F0E9EF86F0F9EF6E
:100DD00086F0A1C5F6F4A2C5F7F4000EF86E08007F
:100DE000F550750AD8A4F7EF86F0F9EF86F048EFD2
:100DF00087F097C5D9F498C5DAF4DFC499F5020EE7
:100E0000DE26DFC49AF5000EDD2299C5D9F49AC515
:100E1000DAF4DEC49CF5DDC49DF5010E0501A125C3
:100E2000996F000EA2219A6F95C5D9F496C5DAF490
:100E300099C5DEF49AC5DDF436EF87F093C585F5E4
:100E400094C586F59CC587F59DC588F544EC96F05C
:100E500003EF88F093C585F594C586F59CC587F5A5
:100E60009DC588F561EC94F003EF88F0A1C5F6F418
:100E7000A2C5F7F4000EF86E0800F550580AD8B471
:100E80002AEF87F02D0AD8B41EEF87F048EF87F0DD
:100E90000501A06B95C5D9F496C5DAF4DEC4F6F465
:100EA000DDC4F7F4000EF86E0800F550730AD8A4FC
:100EB0005CEF87F05EEF87F069EF87F095C5D9F4B6
:100EC00096C5DAF4DE2A000EDD22010EA06FBFEF18
:100ED00087F095C5D9F496C5DAF4DEC4F6F4DDC41E
:100EE000F7F4000EF86E0800F5506C0AD8A47BEFFA
:100EF00087F07DEF87F0BFEF87F095C5D9F496C5F1
:100F0000DAF4DEC499F5DDC49AF5010E9927000ED6
:100F10009A2399C5F6F49AC5F7F4000EF86E080006
:100F2000F5506C0AD8A497EF87F099EF87F0BFEFE0
:100F300087F095C5D9F496C5DAF4DEC499F5DDC419
:100F40009AF5020E9927000E9A2399C5F6F49AC5D0
:100F5000F7F4000EF86E0800F550730AD8A4B3EF4A
:100F600087F0B5EF87F0BFEF87F0030E95C5D9F492
:100F700096C5DAF4DE26000EDD2265EF87F0A0517B
:100F8000D8B4C5EF87F0C7EF87F0E3EF87F093C5DC
:100F900075F594C576F597C5D9F498C5DAF4DFC42C
:100FA00099F5020EDE26DFC49AF5000EDD2299C502
:100FB000D9F49AC5DAF4DEC477F5DDC478F5BAEC75
:100FC00092F003EF88F095C5D9F496C5DAF4DE2ADD
:100FD000000EDD2203EF88F095C5D9F496C5DAF44A
:100FE000DEC4F6F4DDC4F7F4000EF86E0800F55028
:100FF00005016C6F6D6B93C56EF594C56FF594EC40
:101000009AF0E3EF87F012002CC5D9F42DC5DAF47D
:10101000DEC4F6F4DDC4F7F4000EF86E0800F550F7
:10102000250AD8A416EF88F018EF88F036EF8AF07A
:101030002CC5D9F42DC5DAF4DE2A000EDD22000E0F
:101040000501CC6F000ECB6FCBC5D5F5CD69CE6950
:10105000376A4CEF88F00501D5832CC5D9F42DC52E
:10106000DAF4DE2A000EDD224CEF88F0010E376E36
:101070004CEF88F02CC5D9F42DC5DAF4DEC4F6F4B3
:10108000DDC4F7F4000EF86E0800F550300AD8B44D
:101090002BEF88F036EF88F03750D8B452EF88F055
:1010A00054EF88F03AEF88F02CC501F52DC502F514
:1010B0002EC503F52FC504F5FAEC9AF001C5CBF562
:1010C00002C5CCF50501CCBF6AEF88F068EF88F067
:1010D0006FEF88F0D581CB6DCC1FD8B0CC2B2CC551
:1010E000D9F42DC5DAF4DEC4F6F4DDC4F7F4000E4D
:1010F000F86E0800F5502E0AD8A481EF88F083EF2F
:1011000088F098EF88F02CC5D9F42DC5DAF4DE2AE2
:10111000000EDD222CC501F52DC502F52EC503F507
:101120002FC504F5FAEC9AF001C5CDF502C5CEF550
:101130002CC5D9F42DC5DAF4DEC4F6F4DDC4F7F419
:10114000000EF86E0800F550630AD8A4AAEF88F0E4
:10115000ACEF88F0CFEF88F02CC5D9F42DC5DAF4C8
:10116000DE2A000EDD222EC5D9F42FC5DAF4DFC445
:1011700030F5020EDE26DFC431F5000EDD2230C56B
:10118000D9F431C5DAF4DF50326E2AC50CF52BC51F
:101190000DF532C50EF560EC9BF04CEF8AF02CC5D6
:1011A000D9F42DC5DAF4DEC438F5DDC439F538C517
:1011B000F6F439C5F7F4000EF86E0800F550640A2D
:1011C000D8B4E5EF88F0E7EF88F0F7EF88F038C59E
:1011D000F6F439C5F7F4000EF86E0800F550690A08
:1011E000D8A4F5EF88F0F7EF88F025EF89F02EC549
:1011F000D9F42FC5DAF4DFC430F5020EDE26DFC4E1
:1012000031F5000EDD2230C5D9F431C5DAF4DEC483
:1012100033F5DDC434F5010E3824306E000E39206C
:10122000316E2CC5D9F42DC5DAF430C5DEF431C5E4
:10123000DDF42AC51CF52BC51DF533C51EF534C5D7
:101240001FF52CEC90F04CEF8AF038C5F6F439C558
:10125000F7F4000EF86E0800F550580AD8B433EFD2
:1012600089F035EF89F045EF89F038C5F6F439C5D6
:10127000F7F4000EF86E0800F550750AD8A443EF95
:1012800089F045EF89F093EF89F02EC5D9F42FC589
:10129000DAF4DFC430F5020EDE26DFC431F5000ECD
:1012A000DD2230C5D9F431C5DAF4DEC433F5DDC44E
:1012B00034F5010E3824306E000E3920316E2CC505
:1012C000D9F42DC5DAF430C5DEF431C5DDF481EF93
:1012D00089F02AC51CF52BC51DF533C51EF534C58F
:1012E0001FF5DAEC96F04CEF8AF02AC51CF52BC5F9
:1012F0001DF533C51EF534C51FF503EC95F04CEF15
:101300008AF038C5F6F439C5F7F4000EF86E080017
:10131000F550580AD8B475EF89F02D0AD8B469EFA2
:1013200089F093EF89F0376A2CC5D9F42DC5DAF42A
:10133000DEC4F6F4DDC4F7F4000EF86E0800F550D4
:10134000730AD8A4A6EF89F0A8EF89F0B3EF89F06B
:101350002CC5D9F42DC5DAF4DE2A000EDD22010EEB
:10136000376E09EF8AF02CC5D9F42DC5DAF4DEC446
:10137000F6F4DDC4F7F4000EF86E0800F5506C0AC0
:10138000D8A4C5EF89F0C7EF89F009EF8AF02CC522
:10139000D9F42DC5DAF4DEC430F5DDC431F5010E23
:1013A0003026000E312230C5F6F431C5F7F4000EB8
:1013B000F86E0800F5506C0AD8A4E1EF89F0E3EF6D
:1013C00089F009EF8AF02CC5D9F42DC5DAF4DEC412
:1013D00030F5DDC431F5020E3026000E312230C565
:1013E000F6F431C5F7F4000EF86E0800F550730AF4
:1013F000D8A4FDEF89F0FFEF89F009EF8AF0030E22
:101400002CC5D9F42DC5DAF4DE26000EDD22AFEFAF
:1014100089F03750D8B40FEF8AF011EF8AF02DEF32
:101420008AF02AC50CF52BC50DF52EC5D9F42FC5AC
:10143000DAF4DFC430F5020EDE26DFC431F5000E2B
:10144000DD2230C5D9F431C5DAF4DEC40EF5DDC4D1
:101450000FF590EC93F04CEF8AF02CC5D9F42DC524
:10146000DAF4DE2A000EDD224CEF8AF02CC5D9F426
:101470002DC5DAF4DEC4F6F4DDC4F7F4000EF86E20
:101480000800F550036E046A2AC505F52BC506F55C
:10149000C6EC9BF02DEF8AF0120005017B51800B0A
:1014A000846F7B517B258A6F7AAF59EF8AF05BEFAF
:1014B0008AF05CEF8AF08A818A51D8B462EF8AF0B0
:1014C00064EF8AF077EF8AF08A29D8A46AEF8AF06D
:1014D0006CEF8AF074EF8AF0000E786F000E796F6F
:1014E000000E7A6F000E7B6F7A8F7FEF8AF0000E0E
:1014F000786F000E796F000E7A6F000E7B6F7F5150
:10150000800B841B7F517F25896F7EAF8AEF8AF025
:101510008CEF8AF08DEF8AF089818951D8B493EFEE
:101520008AF095EF8AF0A8EF8AF08929D8A49BEF7A
:101530008AF09DEF8AF0A5EF8AF0000E7C6F000E16
:101540007D6F000E7E6F000E7F6F7E8FB0EF8AF092
:10155000000E7C6F000E7D6F000E7E6F000E7F6FA1
:101560008951D8B4B6EF8AF0B8EF8AF0C0EF8AF0AC
:101570008A51D8A4BEEF8AF0C0EF8AF0CAEF8AF091
:10158000000E786F000E796F000E7A6F000E7B6F81
:1015900060EF8CF07E517803F3C48FF5F4C490F5BE
:1015A0008F51856F866B876B886B90518B6F8C6BBF
:1015B0008D6B8E6B7D517903F3C48FF5F4C490F578
:1015C0008F518527000E86238723882390518B27F0
:1015D000000E8C238D238E237C517A03F3C48FF568
:1015E000F4C490F58F518527000E86238723882326
:1015F00090518B27000E8C238D238E2387C588F571
:1016000086C587F585C586F5856B7C517903F3C45E
:101610008FF5F4C490F58F51852790518623000EE5
:101620008723000E88237D517803F3C48FF5F4C41B
:1016300090F58F51852790518623000E8723000E49
:10164000882387C588F586C587F585C586F5856BAA
:101650007C517803F3C48FF5F4C490F58F5185273E
:1016600090518623000E8723000E88237E51790334
:10167000F3C48FF5F4C490F58F518B2790518C23D0
:10168000000E8D23000E8E237D517A03F3C48FF557
:10169000F4C490F58F518B2790518C23000E8D232D
:1016A000000E8E237E517A03F3C48FF5F4C490F5B7
:1016B0008F51806F9051816F826B836B82C583F5F0
:1016C00081C582F580C581F5806B80518B27815162
:1016D0008C2382518D2383518E2385C580F586C549
:1016E00081F587C582F588C583F5190E7DEF8BF0EE
:1016F000D8908333823381338033E82E78EF8BF0B8
:1017000080518B2781518C2382518D2383518E23CD
:1017100087C588F586C587F585C586F5856B8951AA
:101720008AC580F5816B8027000E8123820E80257B
:101730008F6FFF0E8121906FB3EF8BF0D8908B37B6
:101740008C378D378E3788AFA8EF8BF0AAEF8BF0F0
:10175000ABEF8BF08B81D89085378637873788370A
:101760008F07D8A090078DAFB8EF8BF0BAEF8BF052
:101770009EEF8BF0896B88AFC0EF8BF0C2EF8BF0E0
:10178000E6EF8BF0FF0E8515806FFF0E8615816FDB
:10179000FF0E8715826F7F0E8815836F8051811130
:1017A00082118311D8B4D7EF8BF0D9EF8BF0DDEF36
:1017B0008BF0010E896FE6EF8BF08BA1E2EF8BF0DF
:1017C000E4EF8BF0E6EF8BF0D9EF8BF08951D8B4D2
:1017D000ECEF8BF0EEEF8BF012EF8CF0010E8B271D
:1017E000000E8C238D238E238EA1F9EF8BF0FBEF5F
:1017F0008BF012EF8CF08BC580F58CC581F58DC513
:1018000082F58EC583F5833583338233813380330C
:1018100080C58BF581C58CF582C58DF583C58EF5A8
:101820008F4B902B90BF1DEF8CF0905108E18F29CA
:10183000D8A01DEF8CF01FEF8CF029EF8CF0000E7C
:101840008B6F000E8C6F800E8D6F7F0E8E6F56EF3C
:101850008CF090BF36EF8CF0905106E18F05D8B038
:1018600034EF8CF036EF8CF041EF8CF0000E8B6F84
:10187000000E8C6F000E8D6F000E8E6F846B56EF16
:101880008CF08FC58AF5FF0E8B17FF0E8C177F0E1D
:101890008D17000E8E178AA150EF8CF052EF8CF04E
:1018A00053EF8CF08D8FD8908A318E6F84518E13C8
:1018B0008BC578F58CC579F58DC57AF58EC57BF528
:1018C00012001250800B1B6E12501224216E11AEAA
:1018D0006CEF8CF06EEF8CF06FEF8CF0218021506C
:1018E000D8B475EF8CF077EF8CF08AEF8CF021286C
:1018F000D8A47DEF8CF07FEF8CF087EF8CF0000E9A
:101900000F6E000E106E000E116E000E126E118E14
:1019100092EF8CF0000E0F6E000E106E000E116E26
:10192000000E126E1650800B1B1A16501624206ED5
:1019300015AE9DEF8CF09FEF8CF0A0EF8CF0208027
:101940002050D8B4A6EF8CF0A8EF8CF0BBEF8CF051
:101950002028D8A4AEEF8CF0B0EF8CF0B8EF8CF06C
:10196000000E136E000E146E000E156E000E166E35
:10197000158EC3EF8CF0000E136E000E146E000E69
:10198000156E000E166E2050D8B4C9EF8CF0CBEF58
:101990008CF0D3EF8CF02150D8A4D1EF8CF0D3EFA2
:1019A0008CF0DDEF8CF0000E0F6E000E106E000E4E
:1019B000116E000E126E73EF8EF015500F02F3C40D
:1019C00026F5F4C427F526501C6E1D6A1E6A1F6A90
:1019D0002750226E236A246A256A14501002F3C429
:1019E00026F5F4C427F526501C26000E1D221E22C3
:1019F0001F2227502226000E2322242225221350A4
:101A00001102F3C426F5F4C427F526501C26000E57
:101A10001D221E221F2227502226000E23222422AE
:101A200025221EC51FF51DC51EF51CC51DF51C6A0A
:101A300013501002F3C426F5F4C427F526501C26D3
:101A400027501D22000E1E22000E1F2214500F02CE
:101A5000F3C426F5F4C427F526501C2627501D2272
:101A6000000E1E22000E1F221EC51FF51DC51EF5ED
:101A70001CC51DF51C6A13500F02F3C426F5F4C4EF
:101A800027F526501C2627501D22000E1E22000E70
:101A90001F2215501002F3C426F5F4C427F5265072
:101AA000222627502322000E2422000E2522145025
:101AB0001102F3C426F5F4C427F526502226275038
:101AC0002322000E2422000E252215501102F3C4F9
:101AD00026F5F4C427F52650176E2750186E196A9C
:101AE0001A6A19C51AF518C519F517C518F5176A30
:101AF0001750222618502322195024221A5025222A
:101B00001CC517F51DC518F51EC519F51FC51AF515
:101B1000190E90EF8DF0D8901A3219321832173210
:101B2000E82E8BEF8DF017502226185023221950E3
:101B300024221A5025221EC51FF51DC51EF51CC5E1
:101B40001DF51C6A205021C517F5186A1726000ECE
:101B50001822820E1724266EFF0E1820276EC6EF5D
:101B60008DF0D89022362336243625361FAEBBEFB3
:101B70008DF0BDEF8DF0BEEF8DF02280D8901C3639
:101B80001D361E361F362606D8A0270624AECBEFFC
:101B90008DF0CDEF8DF0B1EF8DF0206A1FAED3EF59
:101BA0008DF0D5EF8DF0F9EF8DF0FF0E1C14176E50
:101BB000FF0E1D14186EFF0E1E14196E7F0E1F14DB
:101BC0001A6E1750181019101A10D8B4EAEF8DF0C9
:101BD000ECEF8DF0F0EF8DF0010E206EF9EF8DF04F
:101BE00022A0F5EF8DF0F7EF8DF0F9EF8DF0ECEF2F
:101BF0008DF02050D8B4FFEF8DF001EF8EF025EF7F
:101C00008EF0010E2226000E23222422252225A05A
:101C10000CEF8EF00EEF8EF025EF8EF022C517F54B
:101C200023C518F524C519F525C51AF51A341A3235
:101C300019321832173217C522F518C523F519C500
:101C400024F51AC525F5264A272A27BE30EF8EF03F
:101C5000275008E12628D8A030EF8EF032EF8EF022
:101C60003CEF8EF0000E226E000E236E800E246E6E
:101C70007F0E256E69EF8EF027BE49EF8EF027505C
:101C800006E12604D8B047EF8EF049EF8EF054EF0E
:101C90008EF0000E226E000E236E000E246E000EDB
:101CA000256E1B6A69EF8EF026C521F5FF0E221600
:101CB000FF0E23167F0E2416000E251621A063EFBB
:101CC0008EF065EF8EF066EF8EF0248ED890213086
:101CD000256E1B50251222C50FF523C510F524C50E
:101CE00011F525C512F512000501726F050172513B
:101CF000D8B47DEF8EF07FEF8EF0A1EF8EF06DBF48
:101D000086EF8EF084EF8EF0A1EF8EF06AC56EF54F
:101D10006BC56FF56CC570F56DC571F56E1F6F1FE6
:101D2000701F711F6E2B000E6F23702371236EC501
:101D300074F56FC575F570C576F571C577F5A9EFC2
:101D40008EF06AC574F56BC575F56CC576F56DC515
:101D500077F56A516B116C116D11D8A4B2EF8EF04A
:101D6000B4EF8EF0BEEF8EF0000E6A6F000E6B6F58
:101D7000000E6C6F000E6D6F4FEF8FF0960E736F4D
:101D8000C8EF8EF0732BD890773376337533743376
:101D9000000E74156E6F000E75156F6F000E7615C0
:101DA000706FFE0E7715716F6E516F11701171119A
:101DB000D8A4DDEF8EF0DFEF8EF0C2EF8EF0EDEF06
:101DC0008EF0732B010E7427000E75237623772374
:101DD000D8907733763375337433000E74156E6F85
:101DE000000E75156F6F000E7615706FFF0E77156C
:101DF000716F6E516F1170117111D8A402EF8FF0D5
:101E000004EF8FF0E1EF8EF00CEF8FF07307D890B6
:101E1000743775377637773776BF11EF8FF013EF5A
:101E20008FF01BEF8FF0020E736119EF8FF01BEF35
:101E30008FF006EF8FF073B120EF8FF022EF8FF06D
:101E400023EF8FF0769FD890733373C56EF56F6B69
:101E5000706B716B6EC571F5706B6F6B6E6B6E51E5
:101E600074136F517513705176137151771372514A
:101E7000D8B43DEF8FF03FEF8FF047EF8FF06DBF9D
:101E800046EF8FF044EF8FF047EF8FF0778F74C5F8
:101E90006AF575C56BF576C56CF577C56DF51200FD
:101EA000050188BF56EF8FF059EF8FF0010E5AEF02
:101EB0008FF0000E8F6FCEBF60EF8FF062EF8FF06C
:101EC00063EF8FF0D593CEBF6AEF8FF068EF8FF09E
:101ED00070EF8FF0000E8C6F010E8B6F74EF8FF030
:101EE000CDC58BF5CEC58CF5CBC58DF5CCC58EF5A6
:101EF0008F51D8B47EEF8FF080EF8FF097EF8FF097
:101F00008D07D8A08E078F51D8A489EF8FF08BEF63
:101F10008FF091EF8FF0000E8A6F2B0E896F95EF87
:101F20008FF0000E8A6F2D0E896F89C58FF5000E18
:101F3000916F1F0E906F0601526BD0EF8FF09007DC
:101F4000D8A09107330E9025D96E060E9121DA6E36
:101F500087C56AF588C56BF5000E6D6F0A0E6C6F4C
:101F600060EC9EF06AC570F56BC571F56AECA5F082
:101F700005017051300FDF6E8B07D8A08C078D07DD
:101F8000D8A08E0787C56AF588C56BF5000E6D6F02
:101F90000A0E6C6F2BEC9CF06AC587F56BC588F553
:101FA000050191BFDCEF8FF0915108E19005D8A0B9
:101FB000DCEF8FF0DEEF8FF008EF90F087518811A3
:101FC000D8A4E5EF8FF0E7EF8FF09FEF8FF08CBF95
:101FD000F4EF8FF08C5106E18B05D8B0F2EF8FF063
:101FE000F4EF8FF09FEF8FF08EBFFFEF8FF08E51E9
:101FF00008E18D05D8A0FFEF8FF001EF90F008EF1A
:1020000090F0D5B306EF90F008EF90F09FEF8FF0CF
:102010008F51D8B40EEF90F010EF90F01BEF90F0CE
:102020009007D8A09107330E9025D96E060E912106
:10203000DA6E8FC5DFF485C57CF586C57DF5330E78
:1020400090257E6F060E91217F6F8DC580F58EC520
:1020500081F50FEC9FF012001FBE31EF90F034EFCE
:1020600090F0010E35EF90F0000E266E0501CEBF08
:102070003CEF90F03EEF90F03FEF90F0D593CEBF65
:1020800046EF90F044EF90F04CEF90F0000E236E8E
:10209000010E226E50EF90F0CDC522F5CEC523F58E
:1020A000CBC524F5CCC525F52650D8B45AEF90F011
:1020B0005CEF90F073EF90F02406D8A02506265030
:1020C000D8A465EF90F067EF90F06DEF90F0000E00
:1020D000216E2B0E206E71EF90F0000E216E2D0EF2
:1020E000206E20C526F5000E286E1F0E276E0601F5
:1020F000526BABEF90F02706D8A02806330E2724AA
:10210000D96E060E2820DA6E1EC501F51FC502F530
:10211000000E046E0A0E036EB8EC9EF001C507F5C2
:1021200002C508F5BAECA5F00750300FDF6E2206A5
:10213000D8A023062406D8A025061EC501F51FC574
:1021400002F5000E046E0A0E036EEEEC9CF001C563
:102150001EF502C51FF528BEB6EF90F0285008E125
:102160002704D8A0B6EF90F0B8EF90F0E3EF90F02E
:102170001E501F10D8A4BFEF90F0C1EF90F07BEF7E
:1021800090F023BECEEF90F0235006E12204D8B0A9
:10219000CCEF90F0CEEF90F07BEF90F025BED9EF32
:1021A00090F0255008E12404D8A0D9EF90F0DBEF9F
:1021B00090F0E3EF90F00501D5B3E1EF90F0E3EF9D
:1021C00090F07BEF90F02650D8B4E9EF90F0EBEF71
:1021D00090F0F6EF90F02706D8A02806330E2724BB
:1021E000D96E060E2820DA6E26C5DFF41CC513F55D
:1021F0001DC514F5330E2724156E060E2820166E05
:1022000024C517F525C518F561EC9FF01200096E7D
:102210000950D8B40EEF91F010EF91F032EF91F039
:1022200004BE17EF91F015EF91F032EF91F001C578
:1022300005F502C506F503C507F504C508F5051E35
:10224000061E071E081E052A000E06220722082267
:1022500005C50BF506C50CF507C50DF508C50EF54A
:102260003AEF91F001C50BF502C50CF503C50DF56C
:1022700004C50EF50150021003100410D8A443EF5A
:1022800091F045EF91F04FEF91F0000E016E000ECE
:10229000026E000E036E000E046EE0EF91F0960EDB
:1022A0000A6E59EF91F00A2AD8900E320D320C3294
:1022B0000B32000E0B14056E000E0C14066E000E91
:1022C0000D14076EFE0E0E14086E05500610071052
:1022D0000810D8A46EEF91F070EF91F053EF91F0E9
:1022E0007EEF91F00A2A010E0B26000E0C220D2221
:1022F0000E22D8900E320D320C320B32000E0B141F
:10230000056E000E0C14066E000E0D14076EFF0E07
:102310000E14086E0550061007100810D8A493EF8D
:1023200091F095EF91F072EF91F09DEF91F00A0628
:10233000D8900B360C360D360E360DBEA2EF91F04E
:10234000A4EF91F0ACEF91F0020E0A60AAEF91F0C9
:10235000ACEF91F097EF91F00AB0B1EF91F0B3EFDD
:1023600091F0B4EF91F00D9ED8900A320AC505F5B0
:10237000066A076A086A05C508F5076A066A056AF3
:1023800005500B1206500C1207500D1208500E1279
:102390000950D8B4CEEF91F0D0EF91F0D8EF91F092
:1023A00004BED7EF91F0D5EF91F0D8EF91F00E8EFB
:1023B0000BC501F50CC502F50DC503F50EC504F5F9
:1023C000120095ECA7F0000EEDECA5F001C5CFF5DD
:1023D00002C5D0F5700E426EFF0E436ECFC544F5B8
:1023E000D0C545F57EECA6F00501DA51CF5DDB5195
:1023F000D059D8A0FEEF91F000EF92F05AEF92F092
:10240000CF510601A95D0501D0510601AA59D8A0F6
:102410000CEF92F00EEF92F05AEF92F0530E016E25
:10242000060E026E000E046E000E036E000E066EA7
:10243000200E056E4EECA5F0530E426E060E436E56
:10244000950E446EFF0E456ED6C546F5476ACFC55C
:1024500048F5D0C549F5000E4B6E010E4A6E1EECD4
:10246000A4F0530E0501606F060E616FB2EC9FF091
:10247000FF0E426EFD0E436ED6C544F5456ACFC5CC
:1024800046F5D0C547F5000E496E010E486E7EEC4C
:10249000A6F0CF0E426EFD0E436E7EECA6F0C80E87
:1024A000426EFF0E436E7EECA6F00501D76BB49032
:1024B000B9EF92F0B70E426EFD0E436E7EECA6F0C1
:1024C000530E016E060E026E000E046E000E036EB9
:1024D000000E066E200E056E4EECA5F0530E426EF9
:1024E000060E436E950E446EFF0E456ED6C546F53C
:1024F000476ACFC548F5D0C549F5000E4B6E000EB2
:102500004A6E1EECA4F0530E0501606F060E616F5B
:10251000B2EC9FF0FF0E426EFD0E436ED6C544F541
:10252000456ACFC546F5D0C547F5000E496E000E89
:10253000486E7EECA6F07F0E346E6A0E356EBC0ED1
:10254000366E3C0E376E000E386E000E396E000E81
:102550003A6E000E3B6E07EC9EF0020E0501D76F3F
:10256000040E016E0F0E026E040E036E3C0E57EC4D
:10257000A6F0120077C57FF578C580F505017F517B
:102580008011D8A4C6EF92F0C8EF92F0CCEF92F091
:10259000AF0E7F6FFF0E806F000E826F000E816F97
:1025A000D5EF92F00501814B822B81517F25796F08
:1025B000825180217A6F79C5F6F47AC5F7F4000E5E
:1025C000F86E250EF76403D00800F55005D0F6C468
:1025D000E9F4F7C4EAF4EF500009D8A4F2EF92F05E
:1025E000F4EF92F0D2EF92F00501CEBFFAEF92F045
:1025F000FCEF92F00FEF93F08151CD5DCE51800A48
:10260000796F8251800A7959D8B009EF93F00BEFB6
:1026100093F00FEF93F0CDC581F5CEC582F581C55E
:102620007BF582C57CF5CBC57DF5CCC57EF5D5B1F6
:102630001CEF93F01EEF93F05DEF93F02DEF93F00E
:10264000000E6D6F200E6C6F75C56EF576C56FF55B
:1026500094EC9AF00501814B822B7D51815D825172
:10266000800A796F7E51800A7959D8A03AEF93F0A9
:102670003CEF93F020EF93F05DEF93F07FC5F6F41D
:1026800080C5F7F4000EF86E250EF76403D008003D
:10269000F55005D0F6C4E9F4F7C4EAF4EF500501AB
:1026A000796F79516C6F6D6B75C56EF576C56FF589
:1026B00094EC9AF005017F4B802B7B07D8A07C0718
:1026C0007B2906E17C29D8A468EF93F06AEF93F0A8
:1026D0003EEF93F0D5A16FEF93F071EF93F08FEF92
:1026E00093F080EF93F0000E6D6F200E6C6F75C548
:1026F0006EF576C56FF594EC9AF00501814B822B4F
:102700007D51815D8251800A796F7E51800A7959AD
:10271000D8A08DEF93F08FEF93F073EF93F012004A
:102720000EC516F50FC517F516501710D8A49BEF58
:1027300093F09DEF93F0A1EF93F0AF0E166EFF0EA6
:10274000176E000E196E000E186EA9EF93F0184A5E
:10275000192A18501624106E19501720116E10C522
:10276000F6F411C5F7F4000EF86E250EF76403D0E9
:102770000800F55005D0F6C4E9F4F7C4EAF4EF50C8
:102780000009D8A4C6EF93F0C8EF93F0A7EF93F039
:102790000501CEBFCEEF93F0D0EF93F0E3EF93F0CF
:1027A0001850CD5DCE51800A106E1950800A105815
:1027B000D8B0DDEF93F0DFEF93F0E3EF93F0CDC50A
:1027C00018F5CEC519F518C512F519C513F5CBC501
:1027D00014F5CCC515F5D5B1F0EF93F0F2EF93F009
:1027E0002EEF94F000EF94F0000E046E200E036EB6
:1027F0000CC505F50DC506F5C6EC9BF0184A192A5F
:102800001450185C1950800A106E1550800A105828
:10281000D8A00DEF94F00FEF94F0F4EF93F02EEFBB
:1028200094F016C5F6F417C5F7F4000EF86E250EF1
:10283000F76403D00800F55005D0F6C4E9F4F7C4F6
:10284000EAF4EF50106E1050036E046A0CC505F5E3
:102850000DC506F5C6EC9BF0164A172A1206D8A03D
:102860001306122806E11328D8A439EF94F03BEFA1
:1028700094F011EF94F00501D5A141EF94F043EFEE
:1028800094F060EF94F051EF94F0000E046E200E7F
:10289000036E0CC505F50DC506F5C6EC9BF0184A90
:1028A000192A1450185C1950800A106E1550800AAD
:1028B0001058D8A05EEF94F060EF94F045EF94F0DC
:1028C00012000501CEBF67EF94F069EF94F06AEF54
:1028D00094F0D593CEBF71EF94F06FEF94F077EF53
:1028E00094F0000E8D6F010E8C6F7BEF94F0CDC5D0
:1028F0008CF5CEC58DF5CBC58EF5CCC58FF5000E0C
:10290000926F1F0E916F0601526BB9EF94F0910711
:10291000D8A0920787510F0B906F0A0E906193EF2A
:1029200094F095EF94F099EF94F0300E90279BEF90
:1029300094F0370E9027330E9125D96E060E922112
:10294000DA6E90C5DFF48C07D8A08D078E07D8A06B
:102950008F0787C589F588C58AF5040E8B6FD890D7
:102960008A3389338B2FAFEF94F089C587F58AC5F9
:1029700088F5050192BFC6EF94F0925109E1020E6D
:10298000915DD8A0C6EF94F0C8EF94F0F2EF94F008
:1029900087518811D8A4CFEF94F0D1EF94F087EF4E
:1029A00094F08DBFDEEF94F08D5106E18C05D8B028
:1029B000DCEF94F0DEEF94F087EF94F08FBFE9EF57
:1029C00094F08F5108E18E05D8A0E9EF94F0EBEF79
:1029D00094F0F2EF94F0D5B3F0EF94F0F2EF94F0BE
:1029E00087EF94F085C57CF586C57DF5330E91257E
:1029F0007E6F060E92217F6F8EC580F58FC581F5A3
:102A00000FEC9FF012000501CEBF09EF95F00BEF20
:102A100095F00CEF95F0D593CEBF13EF95F011EF35
:102A200095F019EF95F0000E246E010E236E1DEF48
:102A300095F0CDC523F5CEC524F5CBC525F5CCC580
:102A400026F5000E296E1F0E286E0601526B5BEFF5
:102A500095F02806D8A029061E500F0B276E0A0EE7
:102A6000276035EF95F037EF95F03BEF95F0300E9E
:102A700027263DEF95F0370E2726330E2824D96EF2
:102A8000060E2920DA6E27C5DFF42306D8A0240617
:102A90002506D8A026061EC520F51FC521F5040E63
:102AA000226ED89021322032222E51EF95F020C58F
:102AB0001EF521C51FF529BE67EF95F0295009E1E4
:102AC000020E285CD8A067EF95F069EF95F094EFBF
:102AD00095F01E501F10D8A470EF95F072EF95F08E
:102AE00029EF95F024BE7FEF95F0245006E12304F2
:102AF000D8B07DEF95F07FEF95F029EF95F026BEE9
:102B00008AEF95F0265008E12504D8A08AEF95F0C9
:102B10008CEF95F094EF95F00501D5B392EF95F019
:102B200094EF95F029EF95F01CC513F51DC514F52C
:102B3000330E2824156E060E2920166E25C517F5AE
:102B400026C518F561EC9FF01200070EF7ECA6F011
:102B50005E6E5EB0AEEF95F0B0EF95F0B6EF95F02B
:102B6000EF0E546EFF0E556EBAEF95F0E50E546EF3
:102B7000FF0E556EA40E426EFC0E436E000E456EA7
:102B8000070E446E5EC546F5476A5EC552F5523A79
:102B90000F0E5216070E52165250486E496A5EC505
:102BA00053F5D8905332070E531653504A6E4B6A62
:102BB00054C54CF555C54DF57EECA6F0170EF7EC57
:102BC000A6F05E6E5EB0E7EF95F0E9EF95F0EFEFFF
:102BD00095F0EF0E566EFF0E576EF3EF95F0E50E83
:102BE000566EFF0E576E5EB2F8EF95F0FAEF95F065
:102BF00000EF96F0EF0E586EFF0E596E04EF96F050
:102C0000E50E586EFF0E596E5EB809EF96F00BEFA9
:102C100096F011EF96F0EF0E5A6EFF0E5B6E15EF09
:102C200096F0E50E5A6EFF0E5B6E5EBA1AEF96F0E6
:102C30001CEF96F022EF96F0EF0E5C6EFF0E5D6ECD
:102C400026EF96F0E50E5C6EFF0E5D6EC00E426ED6
:102C5000FB0E436E000E456E170E446E5EC546F5C4
:102C6000476A5CC548F55DC549F55AC54AF55BC577
:102C70004BF558C54CF559C54DF556C54EF557C5DC
:102C80004FF57EECA6F012000501CEBF4AEF96F09C
:102C90004CEF96F04DEF96F0D593CEBF54EF96F0F3
:102CA00052EF96F05AEF96F0000E8A6F010E896F80
:102CB0005EEF96F0CDC589F5CEC58AF5CBC58BF50F
:102CC000CCC58CF5000E8E6F1F0E8D6F0601526BFA
:102CD00095EF96F08D07D8A08E07330E8D25D96E0F
:102CE000060E8E21DA6E87C56AF588C56BF5000E73
:102CF0006D6F0A0E6C6FE3ECA1F005016A51300FA5
:102D0000DF6E8907D8A08A078B07D8A08C0787C5F4
:102D10006AF588C56BF5000E6D6F0A0E6C6FC4EC1A
:102D2000A0F06AC587F56BC588F505018D518E1138
:102D3000D8B49DEF96F09FEF96F0C9EF96F08751CB
:102D40008811D8A4A6EF96F0A8EF96F06AEF96F057
:102D50008ABFB5EF96F08A5106E18905D8B0B3EF86
:102D600096F0B5EF96F06AEF96F08CBFC0EF96F054
:102D70008C5108E18B05D8A0C0EF96F0C2EF96F019
:102D8000C9EF96F0D5B3C7EF96F0C9EF96F06AEFAA
:102D900096F085C57CF586C57DF5330E8D257E6F55
:102DA000060E8E217F6F8BC580F58CC581F50FECEB
:102DB0009FF012000501CEBFE0EF96F0E2EF96F033
:102DC000E3EF96F0D593CEBFEAEF96F0E8EF96F0FA
:102DD000F0EF96F0000E216E010E206EF4EF96F0EB
:102DE000CDC520F5CEC521F5CBC522F5CCC523F543
:102DF000000E256E1F0E246E0601526B2AEF97F00F
:102E00002406D8A02506330E2424D96E060E2520CC
:102E1000DA6E1EC501F51FC502F5000E046E0A0E1E
:102E2000036E7BECA2F00150300FDF6E2006D8A0BD
:102E300021062206D8A023061EC501F51FC502F5EE
:102E4000000E046E0A0E036E39ECA1F001C51EF5EA
:102E500002C51FF524502510D8B431EF97F033EF99
:102E600097F05EEF97F01E501F10D8A43AEF97F03E
:102E70003CEF97F000EF97F021BE49EF97F021501B
:102E800006E12004D8B047EF97F049EF97F000EF44
:102E900097F023BE54EF97F0235008E12204D8A006
:102EA00054EF97F056EF97F05EEF97F00501D5B32A
:102EB0005CEF97F05EEF97F000EF97F01CC513F50D
:102EC0001DC514F5330E2424156E060E2520166E2E
:102ED00022C517F523C518F561EC9FF01200050116
:102EE000933594359A6F9A51D8A479EF97F07BEF88
:102EF00097F085EF97F0000E916F000E926F000E25
:102F0000936F000E946FF2EF97F091C595F592C50F
:102F100096F593C597F594C598F5200E95EF97F023
:102F2000D8909833973396339533E82E90EF97F0F7
:102F30009551996F938FFF0E9117FF0E9217FF0E09
:102F40009317000E9417960E9A5F9ABFACEF97F006
:102F5000AAEF97F0C2EF97F09A51800A970FD8B076
:102F6000B4EF97F0B6EF97F0B8EF97F07BEF97F0EC
:102F7000D89094339333923391339A3FB8EF97F0CC
:102F8000DAEF97F01F0E9A65C8EF97F0CAEF97F047
:102F9000D2EF97F07BEF97F0D89091379237933735
:102FA00094379A079A51D8A4D8EF97F0DAEF97F0B0
:102FB000CCEF97F09951D8B4E0EF97F0E2EF97F0AB
:102FC000EAEF97F0941F931F921F916D000E9223CA
:102FD0009323942391C591F592C592F593C593F5EA
:102FE00094C594F512002A342B34316E3150D8A494
:102FF000FCEF97F0FEEF97F008EF98F0000E286EC8
:10300000000E296E000E2A6E000E2B6E75EF98F0E2
:1030100028C52CF529C52DF52AC52EF52BC52FF56C
:10302000200E18EF98F0D8902F322E322D322C32FD
:10303000E82E13EF98F02C50306E2A8EFF0E2816D3
:10304000FF0E2916FF0E2A16000E2B16960E315E65
:1030500031BE2FEF98F02DEF98F045EF98F03150FA
:10306000800A970FD8B037EF98F039EF98F03BEF20
:1030700098F0FEEF97F0D8902B322A32293228327E
:10308000313E3BEF98F05DEF98F01F0E31644BEF4F
:1030900098F04DEF98F055EF98F0FEEF97F0D8903C
:1030A000283629362A362B3631063150D8A45BEF24
:1030B00098F05DEF98F04FEF98F03050D8B463EF90
:1030C00098F065EF98F06DEF98F02B1E2A1E291EE0
:1030D000286C000E29222A222B2228C528F529C572
:1030E00029F52AC52AF52BC52BF512000501726FAB
:1030F000010E0501746F000E5CEC99F0C992C99441
:10310000C182C194350EE82EFED70000C1940A0E8C
:1031100005016C6F000EFCEC9FF0010E05016C6F59
:10312000010EFCEC9FF0030E05016C6F020EFCEC2F
:103130009FF0030E05016C6F030EFCEC9FF0B00EC8
:1031400005016C6F060E6D6F050E6E6F0A0E83EC37
:10315000A3F0AB0E05016C6F060E6D6F050E6E6F62
:10316000100E83ECA3F0030E05016C6F040EFCEC53
:103170009FF0050171513AECA7F0060E05016C6F46
:10318000060EFCEC9FF0200E05016C6F110EFCEC9E
:103190009FF0350EE82EFED7000005017251DBECE2
:1031A000A2F0350EE82EFED70000ADECA2F0000E26
:1031B000D8ECA6F00501736F73A7E1EF98F0E3EF89
:1031C00098F0E4EF98F0746BE40E00D000D0E82E95
:1031D000FCD700D000D00501745112001AECA6F003
:1031E000D68E85ECA5F0000E5CEC99F0670E05011B
:1031F000716F020E76EC98F00501D86FD851D8A403
:1032000004EF99F006EF99F027EF99F07E0EAB6F7F
:10321000FB0EAC6F2FECA6F0280E0501AB6FFD0E78
:10322000AC6F2FECA6F000EC80F0D00E0501C16F62
:10323000C90EE82EFED7C12FFCD700D07E0E0501A7
:10324000AB6FFB0EAC6F2FECA6F03BEF99F07E0E50
:10325000AB6FFB0EAC6F2FECA6F0490E0501AB6F08
:10326000FD0EAC6F2FECA6F07E0E0501AB6FFB0ED2
:10327000AC6F2FECA6F004ECA7F00009D8A443EF44
:1032800099F045EF99F03BEF99F07F0E05019D6FA6
:103290006A0E9E6FBC0E9F6F3C0EA06F000EA16F5A
:1032A000000EA26F400EA36F3F0EA46FACEC9DF01A
:1032B0003BEF99F00DEF00F005016A6F000184BF4C
:1032C00064EF99F066EF99F0C5EF99F005016A5146
:1032D000050D6F0EF324F66EFB0EF420F76EF86A00
:1032E000000EF8220800F5C484F06A51050D010EA5
:1032F000F326000EF4226F0EF324F66EFB0EF4207C
:10330000F76EF86A000EF8220800F5C485F06A51DD
:10331000050D020EF326000EF4226F0EF324F66E56
:10332000FB0EF420F76EF86A000EF8220800F55044
:10333000FC0B0001866F05016A51050D030EF32693
:10334000000EF4226F0EF324F66EFB0EF420F76EDF
:10335000F86A000EF8220800F5C489F06A51050DDC
:10336000040EF326000EF4226F0EF324F66EFB0E0D
:10337000F420F76EF86A000EF8220800F5C48CF00D
:10338000C8960001848FC5EF99F01200000E050168
:10339000726F000E716F6AC5D9F46BC5DAF4DEC4C2
:1033A000F6F4DDC4F7F4000EF86E0800F5502A0AB2
:1033B000D8A4DDEF99F0DFEF99F012EF9AF06AC52B
:1033C000D9F46BC5DAF4DE2A000EDD226CC5D9F41F
:1033D0006DC5DAF4DFC46EF5020EDE26DFC46FF5CC
:1033E000000EDD226EC5D9F46FC5DAF4DEC471F5C6
:1033F000DDC472F528EF9AF00A0E7103F3C46EF57E
:10340000F4C46FF57203F3506F2770516E25716F1E
:10341000000E6F21726F6AC5D9F46BC5DAF4DE2A2B
:10342000000EDD226AC5D9F46BC5DAF4DEC4F6F409
:10343000DDC4F7F4000EF86E0800F550D00F706F81
:10344000090E706526EF9AF028EF9AF0FCEF99F0DC
:1034500071C56AF572C56BF512000501CB51CC112F
:10346000D8A435EF9AF037EF9AF03DEF9AF0CBC53C
:103470007BF5CCC57CF543EF9AF0FF0ECB257B6F37
:10348000FF0ECC217C6FD5A148EF9AF04AEF9AF05D
:1034900053EF9AF077C56CF56D6B75C56EF576C513
:1034A0006FF594EC9AF005017CBF59EF9AF05BEF51
:1034B0009AF05DEF9AF061EF9AF0000E7C6F000ECB
:1034C0007B6F000E7A6F000E796F74EF9AF0000E2A
:1034D0006D6F200E6C6F75C56EF576C56FF594EC4B
:1034E0009AF00501794B7A2B7B51795D7A51800AEC
:1034F000786F7C51800A7859D8A081EF9AF083EFD9
:103500009AF067EF9AF0D5B188EF9AF08AEF9AF0C7
:1035100093EF9AF077C56CF56D6B75C56EF576C552
:103520006FF594EC9AF0120005016E516F11D8B44A
:103530009CEF9AF09EEF9AF0A7EF9AF06E516F1100
:10354000D8A4A5EF9AF0A7EF9AF0ACEF9AF06C51DF
:10355000C7ECA6F0F9EF9AF020EE09F06E51D926EB
:103560006F51DA22DE50DE10D8B4B9EF9AF0BBEF1B
:103570009AF0D6EF9AF020EE09F06E51D9266F51ED
:10358000DA2210EE02F06E51E1266F51E222DE5097
:10359000E65CE650800A746FDE50800A7459D8B039
:1035A000D4EF9AF0D6EF9AF0F9EF9AF020EE02F00D
:1035B0006E51D9266F51DA22DEC470F5DDC471F583
:1035C0006EC5D9F46FC5DAF4DEC472F5DDC473F5E7
:1035D00070517225D96E71517321DA6E6CC5DFF4AA
:1035E00020EE02F06E51D9266F51DA22DE2A000E4B
:1035F000DD221200000E096E000E086E01C5D9F41E
:1036000002C5DAF4DEC4F6F4DDC4F7F4000EF86E99
:103610000800F5502A0AD8A410EF9BF012EF9BF097
:1036200045EF9BF001C5D9F402C5DAF4DE2A000E9D
:10363000DD2203C5D9F404C5DAF4DFC405F5020EB2
:10364000DE26DFC406F5000EDD2205C5D9F406C569
:10365000DAF4DEC408F5DDC409F55BEF9BF00A0E71
:103660000802F3C405F5F4C406F50902F350062672
:1036700007500524086E000E0620096E01C5D9F416
:1036800002C5DAF4DE2A000EDD2201C5D9F402C536
:10369000DAF4DEC4F6F4DDC4F7F4000EF86E0800C8
:1036A000F550D00F076E090E076459EF9BF05BEFE2
:1036B0009BF02FEF9BF008C501F509C502F512003C
:1036C0000501CB51CC11D8A468EF9BF06AEF9BF0B9
:1036D00070EF9BF0CBC512F5CCC513F576EF9BF0E0
:1036E000FF0ECB25126EFF0ECC21136ED5A17BEF02
:1036F0009BF07DEF9BF086EF9BF00EC503F5046A0F
:103700000CC505F50DC506F5C6EC9BF013BE8BEF99
:103710009BF08DEF9BF08FEF9BF093EF9BF0000EF3
:10372000136E000E126E000E116E000E106EA5EFDD
:103730009BF0000E046E200E036E0CC505F50DC542
:1037400006F5C6EC9BF0104A112A1250105C11507D
:10375000800A0F6E1350800A0F58D8A0B2EF9BF06A
:10376000B4EF9BF099EF9BF00501D5B1BAEF9BF058
:10377000BCEF9BF0C5EF9BF00EC503F5046A0CC5CA
:1037800005F50DC506F5C6EC9BF0120005500610B8
:10379000D8B4CDEF9BF0CFEF9BF0D8EF9BF0055066
:1037A0000610D8A4D6EF9BF0D8EF9BF0DDEF9BF08E
:1037B0000350E8ECA6F02AEF9CF020EE09F005504B
:1037C000D9260650DA22DE50DE10D8B4EAEF9BF09C
:1037D000ECEF9BF007EF9CF020EE09F00550D926A6
:1037E0000650DA2210EE02F00550E1260650E222E1
:1037F000DE50E65CE650800A0B6EDE50800A0B5805
:10380000D8B005EF9CF007EF9CF02AEF9CF020EE7B
:1038100002F00550D9260650DA22DEC407F5DDC4D1
:1038200008F505C5D9F406C5DAF4DEC409F5DDC42A
:103830000AF507500924D96E08500A20DA6E03C52C
:10384000DFF420EE02F00550D9260650DA22DE2AF7
:10385000000EDD22120005016F6B6DBF34EF9CF08E
:1038600032EF9CF03AEF9CF06C6D6D1FD8B06D2B71
:10387000010E6F6F6BBF41EF9CF03FEF9CF047EF85
:103880009CF06A6D6B1FD8B06B2B010E6F1B000E86
:10389000716F000E706F6C516D11D8B452EF9CF0C7
:1038A00054EF9CF07CEF9CF0010E6E6F5CEF9CF08F
:1038B000D8906C376D376E2B6DAF61EF9CF063EF76
:1038C0009CF058EF9CF0D890703771376C516A5D5E
:1038D0006D516B59D8A06FEF9CF071EF9CF076EFB3
:1038E0009CF06C516A5F6D516B5B7081D8906D3349
:1038F0006C336E2F63EF9CF06F51D8B482EF9CF065
:1039000084EF9CF088EF9CF0706D711FD8B0712B24
:1039100070C56AF571C56BF51200FAC464F5FBC495
:1039200065F5F6C466F5F7C467F5F8C468F5F5C43F
:1039300069F5A4A09EEF9CF0A0EF9CF0ABEF9CF08B
:10394000B4A0A5EF9CF0A7EF9CF0ABEF9CF099EC36
:10395000A7F0E1EF9CF09FA4B0EF9CF0B2EF9CF0D9
:10396000BDEF9CF0AFA4B7EF9CF0B9EF9CF0BDEFBA
:103970009CF0ADECA7F0E1EF9CF0A0A0C2EF9CF0B2
:10398000C4EF9CF0CFEF9CF0B0A0C9EF9CF0CBEF60
:103990009CF0CFEF9CF0ABECA7F0E1EF9CF0A1AE78
:1039A000D4EF9CF0D6EF9CF0E1EF9CF0B1AEDBEFF2
:1039B0009CF0DDEF9CF0E1EF9CF0A0ECA5F0E1EFD6
:1039C0009CF069C5F5F468C5F8F467C5F7F466C5F9
:1039D000F6F465C5FBF464C5FAF41100066A04BE8A
:1039E000F6EF9CF0F4EF9CF0FCEF9CF0036C041EEF
:1039F000D8B0042A010E066E02BE03EF9DF001EF5F
:103A00009DF009EF9DF0016C021ED8B0022A010E54
:103A1000061A000E086E000E076E03500410D8B48C
:103A200014EF9DF016EF9DF03EEF9DF0010E056E38
:103A30001EEF9DF0D89003360436052A04AE23EF1E
:103A40009DF025EF9DF01AEF9DF0D89007360836CF
:103A50000350015C04500258D8A031EF9DF033EFC1
:103A60009DF038EF9DF00350015E0450025A07802C
:103A7000D89004320332052E25EF9DF00650D8B4BD
:103A800044EF9DF046EF9DF04AEF9DF0076C081E55
:103A9000D8B0082A07C501F508C502F51200BE6AAC
:103AA000BF6AC06AC16AC26AC36A0401026B0A6B58
:103AB000126B1A6B226B2A6BC668EF0EC76ED90E9B
:103AC000C86EF90EC96E0F0ECA6EF60ECB6E006987
:103AD000EF0E086FC70E106FE90E186F070E206FFC
:103AE000F40E286F016B096B116B196B216B296B3D
:103AF00003690B6913691B69070E236F2B6904693E
:103B00000C691469EF0E1C6F0F0E246F2C690201F3
:103B1000896B886B876B866B290E726F140E6B6FC7
:103B20001C0E3F6F200E296F320E166F180E126F8B
:103B3000190E136F130E6A6F310E146F0401056BAB
:103B4000066B076B0D6B0E6B0F6B156B166B176BA4
:103B5000256B266B276B1200A7ECA7F09DC57CF5A3
:103B60009EC57DF59FC57EF5A0C57FF5D1C56AF5DB
:103B7000D2C56BF505016C6B6D6B000E74EC8EF0AD
:103B80006AC578F56BC579F56CC57AF56DC57BF5B9
:103B90004DEC8AF078C591F579C592F57AC593F523
:103BA0007BC594F56FEC97F091C59BF592C59CF59C
:103BB0007FECA7F0A1C57CF5A2C57DF5A3C57EF578
:103BC000A4C57FF5D1C56AF5D2C56BF505016C6B4F
:103BD0006D6B000E74EC8EF06AC578F56BC579F5E7
:103BE0006CC57AF56DC57BF54DEC8AF078C591F51D
:103BF00079C592F57AC593F57BC594F56FEC97F08E
:103C000091C59BF592C59CF579ECA7F01200A9EC43
:103C1000A7F034C513F535C514F536C515F537C508
:103C200016F5D1C501F5D2C502F5036A046A000E86
:103C300007EC91F001C50FF502C510F503C511F5AC
:103C400004C512F561EC8CF00FC528F510C529F5F7
:103C500011C52AF512C52BF5F3EC97F028C532F5FE
:103C600029C533F590ECA7F038C513F539C514F51F
:103C70003AC515F53BC516F5D1C501F5D2C502F516
:103C8000036A046A000E07EC91F001C50FF502C546
:103C900010F503C511F504C512F561EC8CF00FC5E4
:103CA00028F510C529F511C52AF512C52BF5F3EC39
:103CB00097F028C532F529C533F58BECA7F0120033
:103CC00005016F6B6BBF69EF9EF067EF9EF06FEFC2
:103CD0009EF06A6D6B1FD8B06B2B010E6F6F6DBFBE
:103CE00076EF9EF074EF9EF07AEF9EF06C6D6D1F94
:103CF000D8B06D2B6C516D11D8B481EF9EF083EF6D
:103D00009EF0A7EF9EF0010E6E6F8BEF9EF0D890A5
:103D10006C376D376E2B6DAF90EF9EF092EF9EF08B
:103D200087EF9EF06C516A5D6D516B59D8A09BEF87
:103D30009EF09DEF9EF0A1EF9EF06C516A5F6D5179
:103D40006B5BD8906D336C336E2F92EF9EF06F519A
:103D5000D8B4ADEF9EF0AFEF9EF0B3EF9EF06A6D7A
:103D60006B1FD8B06B2B6AC56AF56BC56BF512007B
:103D7000066A02BEC0EF9EF0BEEF9EF0C6EF9EF058
:103D8000016C021ED8B0022A010E066E04BECDEFF1
:103D90009EF0CBEF9EF0D1EF9EF0036C041ED8B0E6
:103DA000042A03500410D8B4D8EF9EF0DAEF9EF046
:103DB000FEEF9EF0010E056EE2EF9EF0D890033606
:103DC0000436052A04AEE7EF9EF0E9EF9EF0DEEF41
:103DD0009EF00350015C04500258D8A0F2EF9EF010
:103DE000F4EF9EF0F8EF9EF00350015E0450025A8B
:103DF000D89004320332052EE9EF9EF00650D8B475
:103E000004EF9FF006EF9FF00AEF9FF0016C021E97
:103E1000D8B0022A01C501F502C502F5120005015C
:103E2000D5A115EF9FF017EF9FF021EF9FF07EC512
:103E300075F57FC576F57CC577F57DC578F56AECB7
:103E4000A4F0050181BF29EF9FF027EF9FF02DEF30
:103E50009FF0000E816F000E806F000E846F000EC9
:103E6000836F40EF9FF0000E6D6F200E6C6F7CC56E
:103E70006EF57DC56FF594EC9AF00501834B842BAC
:103E80008051835D8451800A826F8151800A8259FA
:103E9000D8A04DEF9FF04FEF9FF033EF9FF0D5B1DB
:103EA00054EF9FF056EF9FF060EF9FF07EC575F5E1
:103EB0007FC576F57CC577F57DC578F56AECA4F00D
:103EC00012000501D5A167EF9FF069EF9FF073EF36
:103ED0009FF015C50CF516C50DF513C50EF514C5E7
:103EE0000FF5D4ECA4F018BE7AEF9FF078EF9FF0B6
:103EF0007EEF9FF0000E186E000E176E000E1B6E08
:103F0000000E1A6E90EF9FF0000E046E200E036EEE
:103F100013C505F514C506F5C6EC9BF01A4A1B2A15
:103F200017501A5C1B50800A196E1850800A1958D5
:103F3000D8A09DEF9FF09FEF9FF084EF9FF00501C9
:103F4000D5B1A5EF9FF0A7EF9FF0B1EF9FF015C59A
:103F50000CF516C50DF513C50EF514C50FF5D4EC0B
:103F6000A4F01200020E31ECA3F060C503F561C5A8
:103F700004F5200E056EA00EB2ECA4F0C184150E5F
:103F80005F6EC60EE82EFED75F2EFCD700D0C19420
:103F9000070EF7ECA6F05F6E5FA0D1EF9FF0D3EFB6
:103FA0009FF0D7EF9FF0D1ECA3F0E8EF9FF0070E62
:103FB000F7ECA6F05F6E5FAAE0EF9FF0E2EF9FF0F4
:103FC000E8EF9FF0E70E426EFD0E436E7EECA6F02A
:103FD0005F0E426EFF0E436E7EECA6F0A5EC95F0F0
:103FE000C80E426EFF0E436E7EECA6F0700E036E9E
:103FF000070E44ECA0F0120005016D6F200E0501C4
:104000006D6105EFA0F007EFA0F013EFA0F0C192F3
:104010006D511F0B200915ECA5F005016C5115EC35
:10402000A5F03EEFA0F06D5115ECA5F0E10E0501F5
:104030006D19D8B41EEFA0F020EFA0F03EEFA0F075
:10404000E20E6D19D8B427EFA0F029EFA0F03EEFF3
:10405000A0F0E30E6D19D8B430EFA0F032EFA0F06D
:104060003EEFA0F06D29D8B438EFA0F03AEFA0F001
:104070003EEFA0F0C1926C5115ECA5F0C182350E57
:10408000E82EFED700001200046E200E04604BEFF5
:10409000A0F04DEFA0F058EFA0F0C19204501F0B1C
:1040A000200904ECA6F0035004ECA6F082EFA0F087
:1040B000045004ECA6F0E10E0418D8B462EFA0F0AE
:1040C00064EFA0F082EFA0F0E20E0418D8B46BEF1A
:1040D000A0F06DEFA0F082EFA0F0E30E0418D8B4CA
:1040E00074EFA0F076EFA0F082EFA0F00428D8B42F
:1040F0007CEFA0F07EEFA0F082EFA0F0C192035021
:1041000004ECA6F0C182350EE82EFED700001200A6
:104110000201A16BA26BA36BA46BA56BA66BA76B33
:10412000A86BA96BAA6BB00EAB6F800EAC6F080EBC
:10413000AD6F820EAE6F060EAF6F2E0EB06FB16B0D
:10414000800EB26FB36B000E05016A6F000E6B6FCD
:10415000000E6C6FB5ECA6F0000E05016A6F000E44
:104160006B6F000E6C6FA3ECA6F0000E05016A6F7A
:10417000000E6B6F000E6C6F91ECA6F0000E060146
:10418000326F000E316F1200000E0501706F000ECD
:104190006F6F6C516D11D8B4D0EFA0F0D2EFA0F0DA
:1041A000FAEFA0F0010E6E6FDAEFA0F0D8906C3746
:1041B0006D376E2B6DAFDFEFA0F0E1EFA0F0D6EF23
:1041C000A0F0D8906F3770376C516A5D6D516B59A4
:1041D000D8A0EDEFA0F0EFEFA0F0F4EFA0F06C515D
:1041E0006A5F6D516B5B6F81D8906D336C336E2F4E
:1041F000E1EFA0F06FC56AF570C56BF51200B19ED6
:1042000012EFA1F0E1EC91F038EFA1F0F6ECA4F0A0
:1042100038EFA1F0ACECA1F038EFA1F030ECA7F052
:1042200038EFA1F00501D751626F636B6351000A4B
:10423000D8B41DEFA1F038EFA1F06251000AD8B454
:1042400038EFA1F0010AD8B402EFA1F0030AD8B404
:1042500006EFA1F0010AD8B40AEFA1F0070AD8B41A
:104260000AEFA1F0010AD8B40EEFA1F038EFA1F0E7
:104270001200000E066E000E056E03500410D8B436
:1042800044EFA1F046EFA1F06EEFA1F0010E076E32
:104290004EEFA1F0D89003360436072A04AE53EF50
:1042A000A1F055EFA1F04AEFA1F0D89005360636FF
:1042B0000350015C04500258D8A061EFA1F063EFF5
:1042C000A1F068EFA1F00350015E0450025A05808E
:1042D000D89004320332072E55EFA1F005C501F541
:1042E00006C502F51200606A040E616E626A6B0E0A
:1042F000636E020E646E656A666A676A686A6A6AF5
:10430000360E6B6E010E6C6E360E6D6E010E6E6E9D
:10431000B29CB29E67906792A29EA29C000E05017D
:104320006A6F000E6B6F000E6C6F50ECA7F0000E02
:1043300005016A6F000E6B6F000E6C6F49ECA7F001
:10434000000E05016A6F000E6B6F000E6C6F57EC6C
:10435000A7F0800E696E1200030E0501D719D8A4CC
:10436000B4EFA1F0B6EFA1F0C4EFA1F0040E016E1E
:104370000F0E026E040E036E790E57ECA6F0040EBB
:104380000501D76FE2EFA1F07F0E346E6A0E356E35
:10439000BC0E366E3C0E376E000E386E000E396E57
:1043A000400E3A6E3F0E3B6E07EC9EF0050E050187
:1043B000D76F040E016E0F0E026E040E036E3C0EDC
:1043C00057ECA6F0120005016C516D11D8B4EBEF5B
:1043D000A1F0EDEFA1F011EFA2F0010E6E6FF5EF7D
:1043E000A1F0D8906C376D376E2B6DAFFAEFA1F05E
:1043F000FCEFA1F0F1EFA1F06C516A5D6D516B59CA
:10440000D8A005EFA2F007EFA2F00BEFA2F06C51DD
:104410006A5F6D516B5BD8906D336C336E2FFCEF20
:10442000A1F06AC56AF56BC56BF512000301F39F35
:10443000D96BDA6BDB6BDC6BDF6BE06BE56BE76B2F
:10444000EC6BEE6BEF6BD86BF06BF16BF26BF46BAC
:104450005B0EF56F100EF66FF76BF86B1F0EFA6FB1
:10446000030EF96F000E06012C6F000E2D6F000E6B
:104470002E6F000E296F000E2A6F000E2B6F0501A4
:10448000D96BAF949F94B090A090840E0301F36F0A
:104490001200E60EF66E4E0EF76E010EF86E01EE8D
:1044A000A9F210EE0CF00900F5C4EEF4E550E1506D
:1044B000FAE15E0EF66E4F0EF76E010EF86E090011
:1044C000F5C4DAF50900F5C4DBF501EE00F2730E70
:1044D000EE6AE806FDE101EEC2F1180EEE6AE806AA
:1044E000FDE10401080E5D6F000E5E6F000E5F6F50
:1044F0000001EEEF98F003500410D8B482EFA2F060
:1045000084EFA2F0A8EFA2F0010E056E8CEFA2F0EE
:10451000D89003360436052A04AE91EFA2F093EF4B
:10452000A2F088EFA2F00350015C04500258D8A01A
:104530009CEFA2F09EEFA2F0A2EFA2F00350015E6A
:104540000450025AD89004320332052E93EFA2F0A1
:1045500001C501F502C502F51200C192700E0501F8
:104560006C6F070EFCEC9FF0D00E05016E6FC90E4C
:10457000E82EFED76E2FFCD700D0C182C192E10E8B
:1045800015ECA5F0D00E05016E6FC90EE82EFED712
:104590006E2FFCD700D0C182C192E20E15ECA5F0BF
:1045A000D00E05016E6FC90EE82EFED76E2FFCD718
:1045B00000D0C18212000501706FEFEFA2F00F0E64
:1045C0006C6F000EFCEC9FF0C18405EFA3F00E0EA3
:1045D0006C6F000EFCEC9FF0C19405EFA3F0050199
:1045E00070516E6F6F6B6F51000AD8B4FAEFA2F082
:1045F00005EFA3F06E51010AD8B4DFEFA2F0030A71
:10460000D8B4E7EFA2F005EFA3F01200A5C5A9F515
:10461000A6C5AAF51BEFA3F0A3C593F5A4C594F511
:10462000A90E0501956F050E966FA7C597F5A8C54C
:1046300098F5B7EC85F0A9C5F6F4AAC5F7F4000E15
:10464000F86E0800F5500009D8A429EFA3F02BEF6D
:10465000A3F00CEFA3F0000E0501A46F000EA36FF2
:104660001200076E44EFA3F00F0E036E000E44EC31
:10467000A0F0C18459EFA3F00E0E036E000E44ECBF
:10468000A0F0C19459EFA3F00750056E066A0650DA
:10469000000AD8B44EEFA3F059EFA3F00550010A79
:1046A000D8B434EFA3F0030AD8B43CEFA3F059EF29
:1046B000A3F012003CC540F53DC541F56EEFA3F0F7
:1046C0003AC52AF53BC52BF5400E2C6E050E2D6E16
:1046D0003EC52EF53FC52FF504EC88F040C5F6F435
:1046E00041C5F7F4000EF86E0800F5500009D8A493
:1046F0007CEFA3F07EEFA3F060EFA3F0000E3B6E23
:10470000000E3A6E120005016F6FC19205016F51E4
:10471000200915ECA5F00501706B9FEFA3F06CC5A7
:10472000D9F46DC5DAF4DF5015ECA5F005016C4B3A
:104730006D2B350EE82EFED700000501702B6E5153
:10474000705DD8A0A6EFA3F0A8EFA3F08FEFA3F0C1
:10475000C182120005016F6FC19205016F5115EC06
:10476000A5F00501706BC1EFA3F0FF0E15ECA5F0ED
:104770006CC5D9F46DC5DAF4DF6E05016C4B6D2B99
:10478000702B6E51705DD8A0C8EFA3F0CAEFA3F0F4
:10479000B5EFA3F06CC5D9F46DC5DAF4DF6AC18258
:1047A0001200C192700E036E070E44ECA0F0D00E02
:1047B000056ECA0EE82EFED7052EFCD7C182C19227
:1047C000E10E04ECA6F0D00E056ECA0EE82EFED760
:1047D000052EFCD7C182C192E20E04ECA6F0D00EE9
:1047E000056ECA0EE82EFED7052EFCD7C182120038
:1047F00003011E911F6B206B060E216FFE0E1D6FB5
:10480000420E1C6F1D5105016A6F03011C51050109
:10481000D36F6AC5D4F5000E06019D6F000E9E6F22
:10482000000E9F6F000E9A6F000E9B6F000E9C6F24
:10483000B198B19A050E03011E6F1200460E4C6E20
:10484000050E4D6E42C54EF543C54FF5000E516E37
:10485000000E506E000E586E000E576E4E0E3A6EE1
:10486000050E3B6E44C53CF545C53DF54C0E3E6E10
:10487000050E3F6E5AECA3F050504224D96E5150B1
:104880004320DA6EDF6A12000501D751D8B44BEF2E
:10489000A4F04DEFA4F050EFA4F0B49069EFA4F0B1
:1048A000A1ECA7F00501D62B4E0E426EFF0E436E13
:1048B000D6C544F5456A7EECA6F0010E0501D76F1A
:1048C000040E016E0F0E026E040E036E3C0E57ECCA
:1048D000A6F01200000E05017B6F000E7A6F7DEFCF
:1048E000A4F079C56CF56D6B77C56EF578C56FF57D
:1048F00094EC9AF005017A4B7B2B7A517525D96E91
:104900007B517621DA6EDF50796F7951D8A48BEF25
:10491000A4F08DEFA4F071EFA4F01200D69AAF903E
:10492000D680000E05016A6F000E6B6F000E6C6F73
:104930006CECA7F0B490D692620E05016A6F4F0E30
:104940006B6F010E6C6F65ECA7F0A480B890D684F5
:10495000000E05016A6F000E6B6F000E6C6F5EEC4F
:10496000A7F01200066EC1920650200904ECA6F0D2
:10497000076AC9EFA4F003C5D9F404C5DAF4DF501F
:1049800004ECA6F0034A042A350EE82EFED70000F8
:10499000072A0550075CD8A0D0EFA4F0D2EFA4F00E
:1049A000BBEFA4F0C1821200000E126E000E116E59
:1049B000E5EFA4F010C503F5046A0EC505F50FC5B3
:1049C00006F5C6EC9BF0114A122A11500C24D96E40
:1049D00012500D20DA6EDF50106E1050D8A4F3EF95
:1049E000A4F0F5EFA4F0DAEFA4F01200AE0E346EEE
:1049F000470E356EE10E366E3D0E376E000E386E88
:104A0000000E396E000E3A6E000E3B6E07EC9EF003
:104A1000030E0501D76F040E016E0F0E026E040E19
:104A2000036EF20E57ECA6F01200D7AE1AEFA5F007
:104A300004EFA6F005016A6F00018785865103091E
:104A4000866F836B010E826F6AC581F0B1A02BEF78
:104A5000A5F02DEFA5F026EFA5F080C06BF50501C0
:104A60006B511200D7AE37EFA5F043EFA6F005016A
:104A70006A6B0201B0AB3FEFA5F041EFA5F04BEF41
:104A8000A5F0ABAB46EFA5F048EFA5F04BEFA5F0D6
:104A9000010E05016A6F05016A51120001C507F593
:104AA00002C508F55CEFA5F007C5D9F408C5DAF42E
:104AB00003C5DFF4074A082A0506D8A0060605281C
:104AC00006E10628D8A467EFA5F069EFA5F054EF3A
:104AD000A5F01200050171BF70EFA5F072EFA5F00F
:104AE00078EFA5F070C570F571C571F584EFA5F08C
:104AF00070C572F571C573F5721F731F724B732BFE
:104B000072C570F573C571F51200645005016D6FC3
:104B10006350D16F6DC5D2F5D76BD66B880E6A6FB7
:104B2000480E6B6F010E6C6F65ECA7F0FE0E050171
:104B30006A6F410E6B6F010E6C6F42ECA7F01200B2
:104B40000601975198119911D8B4A9EFA5F0ABEFD0
:104B5000A5F0B8EFA5F002D8B8EFA5F00500FA6E01
:104B60009751FD6E9851FE6E9951FF6EFA501200EA
:104B7000B19E120008BEBFEFA5F0C1EFA5F0C7EFD0
:104B8000A5F007C507F508C508F5D3EFA5F007C5DB
:104B900009F508C50AF5091E0A1E094A0A2A09C5A7
:104BA00007F50AC508F512000501C551C611C71160
:104BB000D8B4DDEFA5F0DFEFA5F0ECEFA5F002D85B
:104BC000ECEFA5F00500FA6EC551FD6EC651FE6E04
:104BD000C751FF6EFA5012001200056E05C5ECF3C6
:104BE0000301F39DF381F3B1F8EFA5F0FAEFA5F01F
:104BF000F3EFA5F0EB51046E036AEA510324016E52
:104C0000000E0420026E1200016E0001878586519D
:104C10000309866F836B010E826F01C581F0B1A01D
:104C200014EFA6F016EFA6F00FEFA6F080C002F585
:104C30000250120026ECA7F04FEC9DF016ECA2F00B
:104C40006BECA6F0F8ECA3F073ECA1F010ECA7F07D
:104C500088ECA0F085ECA7F08EECA4F01200AD0E6D
:104C60000501B96F050EBA6F000EA36F000EA46F99
:104C7000ABC5A5F5ACC5A6F5B90EA76F050EA86F17
:104C800006ECA3F01200016A0201B0AB4AEFA6F0F5
:104C90004CEFA6F055EFA6F0ABAB51EFA6F053EFFB
:104CA000A6F055EFA6F0010E016E01501200046E41
:104CB000A1ECA7F004C519F30301186B0338E8460B
:104CC000E00B011010091B6F02C51AF3B19EA18EF3
:104CD000A4ECA7F012000E0E0301196F186B940ECE
:104CE0001B6F600E0601976F4F0E986F010E996F44
:104CF000B19EA18E8F0E03011A6F1200440E506EEA
:104D0000050E516E000E3A6E000E3B6E42C53CF52C
:104D100043C53DF5500E3E6E050E3F6E5AECA3F0B6
:104D2000120005016A516B116C11D8B49AEFA6F00C
:104D30009CEFA6F0A2EFA6F06AC520F66BC521F69F
:104D40006CC522F6120005016A516B116C11D8B4C2
:104D5000ACEFA6F0AEEFA6F0B4EFA6F06AC523F66E
:104D60006BC524F66CC525F6120005016A516B115E
:104D70006C11D8B4BEEFA6F0C0EFA6F0C6EFA6F057
:104D80006AC526F66BC527F66CC528F61200050124
:104D90006B6F32ECA5F00009D8B4D1EFA6F0D3EFD9
:104DA000A6F0C9EFA6F005016B511CECA7F01200AC
:104DB00005016C6FC19205016C511F0B15ECA5F03C
:104DC000FF0E15ECA5F005016D6FC1826D5112004B
:104DD000026E43ECA6F00009D8B4F1EFA6F0F3EFB1
:104DE000A6F0E9EFA6F002509DECA7F01200036ECA
:104DF000C19203501F0B04ECA6F0FF0E04ECA6F0CA
:104E0000046EC182045012000501D751D8A40BEFE3
:104E1000A7F00EEFA7F0010E0FEFA7F0000E1200A3
:104E2000A194A192A1900001846B040E856F866B02
:104E3000896B8C6B87851200D7AE21EFA7F09DEFB1
:104E4000A7F005016A6F6AC5A3F21200600E0001A7
:104E5000AD6FAF6BB36B080EB16FB06BAC6B120084
:104E6000B490C80E426EFF0E436E7EECA6F00501B4
:104E7000D76B120005016E6F6EC56CF5050EFCEC6C
:104E80009FF012006AC597F66BC598F66CC599F647
:104E900012006AC5A3F66BC5A4F66CC5A5F6120090
:104EA0006AC5A6F66BC5A7F66CC5A8F612006AC55A
:104EB000A0F66BC5A1F66CC5A2F612006AC5C2F5D4
:104EC0006BC5C3F56CC5C4F512006AC5C5F56BC5E5
:104ED000C6F56CC5C7F512006AC5C8F56BC5C9F53E
:104EE0006CC5CAF51200280A00000000010000008D
:104EF00000019BC56DF405019C516E6E12009BC5AF
:104F00006BF405019C516C6E12000001786B796B9B
:104F1000300EF06E120032C56DF433506E6E12001A
:104F200032C56BF433506C6E12003B0E0301EC6F14
:104F30001200B490D4ECA5F01200016E01C5A3F2EA
:104F4000120003011A9F120003011A8F12006984D4
:104F5000120069841200B0901200AF9412000A008F
:044F60001200120029
:020000040030CA
:080000008FFFF7FF9FFFFFFFD8
:01000900FFF7
:00000001FF
